{
    "abi": [
        {
            "inputs": [
                {
                    "internalType": "address",
                    "name": "_vaultToken",
                    "type": "address"
                },
                {
                    "internalType": "address",
                    "name": "_rewardToken",
                    "type": "address"
                },
                {
                    "internalType": "uint256",
                    "name": "_vestingPeriod",
                    "type": "uint256"
                },
                {
                    "internalType": "uint256",
                    "name": "_vaultLimit",
                    "type": "uint256"
                },
                {
                    "internalType": "uint256",
                    "name": "_rewardLimit",
                    "type": "uint256"
                },
                {
                    "internalType": "uint256",
                    "name": "_vaultGenesis",
                    "type": "uint256"
                }
            ],
            "stateMutability": "nonpayable",
            "type": "constructor"
        },
        {
            "anonymous": false,
            "inputs": [
                {
                    "indexed": true,
                    "internalType": "address",
                    "name": "user",
                    "type": "address"
                },
                {
                    "indexed": false,
                    "internalType": "uint256",
                    "name": "unlockedVestedToken",
                    "type": "uint256"
                },
                {
                    "indexed": false,
                    "internalType": "uint256",
                    "name": "reward",
                    "type": "uint256"
                }
            ],
            "name": "Claimed",
            "type": "event"
        },
        {
            "anonymous": false,
            "inputs": [
                {
                    "indexed": false,
                    "internalType": "address",
                    "name": "userAddress",
                    "type": "address"
                },
                {
                    "indexed": false,
                    "internalType": "address payable",
                    "name": "relayerAddress",
                    "type": "address"
                },
                {
                    "indexed": false,
                    "internalType": "bytes",
                    "name": "functionSignature",
                    "type": "bytes"
                }
            ],
            "name": "MetaTransactionExecuted",
            "type": "event"
        },
        {
            "anonymous": false,
            "inputs": [
                {
                    "indexed": true,
                    "internalType": "address",
                    "name": "user",
                    "type": "address"
                },
                {
                    "indexed": false,
                    "internalType": "uint256",
                    "name": "amount",
                    "type": "uint256"
                }
            ],
            "name": "Staked",
            "type": "event"
        },
        {
            "inputs": [],
            "name": "ERC712_VERSION",
            "outputs": [
                {
                    "internalType": "string",
                    "name": "",
                    "type": "string"
                }
            ],
            "stateMutability": "view",
            "type": "function"
        },
        {
            "inputs": [
                {
                    "internalType": "address",
                    "name": "userAddress",
                    "type": "address"
                },
                {
                    "internalType": "bytes",
                    "name": "functionSignature",
                    "type": "bytes"
                },
                {
                    "internalType": "bytes32",
                    "name": "sigR",
                    "type": "bytes32"
                },
                {
                    "internalType": "bytes32",
                    "name": "sigS",
                    "type": "bytes32"
                },
                {
                    "internalType": "uint8",
                    "name": "sigV",
                    "type": "uint8"
                }
            ],
            "name": "executeMetaTransaction",
            "outputs": [
                {
                    "internalType": "bytes",
                    "name": "",
                    "type": "bytes"
                }
            ],
            "stateMutability": "payable",
            "type": "function"
        },
        {
            "inputs": [],
            "name": "getChainId",
            "outputs": [
                {
                    "internalType": "uint256",
                    "name": "",
                    "type": "uint256"
                }
            ],
            "stateMutability": "pure",
            "type": "function"
        },
        {
            "inputs": [],
            "name": "getDomainSeperator",
            "outputs": [
                {
                    "internalType": "bytes32",
                    "name": "",
                    "type": "bytes32"
                }
            ],
            "stateMutability": "view",
            "type": "function"
        },
        {
            "inputs": [
                {
                    "internalType": "address",
                    "name": "user",
                    "type": "address"
                }
            ],
            "name": "getNonce",
            "outputs": [
                {
                    "internalType": "uint256",
                    "name": "nonce",
                    "type": "uint256"
                }
            ],
            "stateMutability": "view",
            "type": "function"
        },
        {
            "inputs": [],
            "name": "rewardToken",
            "outputs": [
                {
                    "internalType": "contract IERC20",
                    "name": "",
                    "type": "address"
                }
            ],
            "stateMutability": "view",
            "type": "function"
        },
        {
            "inputs": [
                {
                    "internalType": "address",
                    "name": "",
                    "type": "address"
                },
                {
                    "internalType": "uint256",
                    "name": "",
                    "type": "uint256"
                }
            ],
            "name": "userVault",
            "outputs": [
                {
                    "internalType": "uint256",
                    "name": "amount",
                    "type": "uint256"
                },
                {
                    "internalType": "uint256",
                    "name": "depositTime",
                    "type": "uint256"
                },
                {
                    "internalType": "uint256",
                    "name": "vestingPeriodEnds",
                    "type": "uint256"
                },
                {
                    "internalType": "uint256",
                    "name": "lastUpdated",
                    "type": "uint256"
                },
                {
                    "internalType": "uint256",
                    "name": "totalEarned",
                    "type": "uint256"
                },
                {
                    "internalType": "uint256",
                    "name": "totalUnlockedVestedAmount",
                    "type": "uint256"
                }
            ],
            "stateMutability": "view",
            "type": "function"
        },
        {
            "inputs": [],
            "name": "vaultGenesis",
            "outputs": [
                {
                    "internalType": "uint256",
                    "name": "",
                    "type": "uint256"
                }
            ],
            "stateMutability": "view",
            "type": "function"
        },
        {
            "inputs": [],
            "name": "vaultLimit",
            "outputs": [
                {
                    "internalType": "uint256",
                    "name": "",
                    "type": "uint256"
                }
            ],
            "stateMutability": "view",
            "type": "function"
        },
        {
            "inputs": [],
            "name": "vaultToken",
            "outputs": [
                {
                    "internalType": "contract IERC20",
                    "name": "",
                    "type": "address"
                }
            ],
            "stateMutability": "view",
            "type": "function"
        },
        {
            "inputs": [],
            "name": "vestingPeriod",
            "outputs": [
                {
                    "internalType": "uint256",
                    "name": "",
                    "type": "uint256"
                }
            ],
            "stateMutability": "view",
            "type": "function"
        },
        {
            "inputs": [],
            "name": "totalSupply",
            "outputs": [
                {
                    "internalType": "uint256",
                    "name": "",
                    "type": "uint256"
                }
            ],
            "stateMutability": "view",
            "type": "function"
        },
        {
            "inputs": [],
            "name": "totalDeposits",
            "outputs": [
                {
                    "internalType": "uint256",
                    "name": "",
                    "type": "uint256"
                }
            ],
            "stateMutability": "view",
            "type": "function"
        },
        {
            "inputs": [
                {
                    "internalType": "address",
                    "name": "account",
                    "type": "address"
                }
            ],
            "name": "balanceOf",
            "outputs": [
                {
                    "internalType": "uint256",
                    "name": "",
                    "type": "uint256"
                }
            ],
            "stateMutability": "view",
            "type": "function"
        },
        {
            "inputs": [
                {
                    "internalType": "address",
                    "name": "account",
                    "type": "address"
                }
            ],
            "name": "getUserVaultInfo",
            "outputs": [
                {
                    "components": [
                        {
                            "internalType": "uint256",
                            "name": "amount",
                            "type": "uint256"
                        },
                        {
                            "internalType": "uint256",
                            "name": "depositTime",
                            "type": "uint256"
                        },
                        {
                            "internalType": "uint256",
                            "name": "vestingPeriodEnds",
                            "type": "uint256"
                        },
                        {
                            "internalType": "uint256",
                            "name": "lastUpdated",
                            "type": "uint256"
                        },
                        {
                            "internalType": "uint256",
                            "name": "totalEarned",
                            "type": "uint256"
                        },
                        {
                            "internalType": "uint256",
                            "name": "totalUnlockedVestedAmount",
                            "type": "uint256"
                        }
                    ],
                    "internalType": "struct Vault.UserVault[]",
                    "name": "",
                    "type": "tuple[]"
                }
            ],
            "stateMutability": "view",
            "type": "function"
        },
        {
            "inputs": [
                {
                    "internalType": "address",
                    "name": "account",
                    "type": "address"
                }
            ],
            "name": "earned",
            "outputs": [
                {
                    "internalType": "uint256",
                    "name": "unlockedVestedTokenAmount",
                    "type": "uint256"
                },
                {
                    "internalType": "uint256",
                    "name": "claimableRewardAmount",
                    "type": "uint256"
                }
            ],
            "stateMutability": "view",
            "type": "function"
        },
        {
            "inputs": [
                {
                    "internalType": "uint256",
                    "name": "amount",
                    "type": "uint256"
                }
            ],
            "name": "stake",
            "outputs": [],
            "stateMutability": "nonpayable",
            "type": "function"
        },
        {
            "inputs": [],
            "name": "claim",
            "outputs": [],
            "stateMutability": "nonpayable",
            "type": "function"
        }
    ],
    "bytecode": "0x60806040526001805460ff191690553480156200001b57600080fd5b5060405162001ef638038062001ef68339810160408190526200003e9162000294565b6001600055600480546001600160a01b03199081166001600160a01b0389811691909117909255600580549091169187169190911790556200009583670de0b6b3a764000062000114602090811b62000e6a17901c565b600755620000b3846201518062000114602090811b62000e6a17901c565b600655620000ce828462000166602090811b62000ead17901c565b600c5560088190556040805180820190915260078152665661756c74563160c81b602082015262000108906001600160e01b036200019c16565b505050505050620003db565b600082620001255750600062000160565b828202828482816200013357fe5b04146200015d5760405162461bcd60e51b8152600401620001549062000359565b60405180910390fd5b90505b92915050565b60008082116200018a5760405162461bcd60e51b8152600401620001549062000322565b8183816200019457fe5b049392505050565b60015460ff1615620001c25760405162461bcd60e51b815260040162000154906200039a565b620001d6816001600160e01b03620001e516565b506001805460ff191681179055565b6040518060800160405280604f815260200162001ea7604f913980516020918201208251838301206040805180820190915260018152603160f81b930192909252907fc89efdaa54c0f20c7adf612882df0950f5a951637e0307cdcb4c672f298b8bc6306200025c6001600160e01b036200029016565b60405162000272959493929190602001620002f6565b60408051601f19818403018152919052805160209091012060025550565b4690565b60008060008060008060c08789031215620002ad578182fd5b8651620002ba81620003c2565b6020880151909650620002cd81620003c2565b6040880151606089015160808a015160a0909a0151989b929a5090989097909650945092505050565b948552602085019390935260408401919091526001600160a01b03166060830152608082015260a00190565b6020808252601a908201527f536166654d6174683a206469766973696f6e206279207a65726f000000000000604082015260600190565b60208082526021908201527f536166654d6174683a206d756c7469706c69636174696f6e206f766572666c6f6040820152607760f81b606082015260800190565b6020808252600e908201526d185b1c9958591e481a5b9a5d195960921b604082015260600190565b6001600160a01b0381168114620003d857600080fd5b50565b611abc80620003eb6000396000f3fe6080604052600436106101085760003560e01c806370a0823111610095578063a694fc3a11610064578063a694fc3a1461027d578063d43eb23d1461029d578063dc7e676c146102cf578063e81a5c73146102fc578063f7c618c11461031157610108565b806370a082311461021e5780637313ee5a1461023e5780637d882097146102535780639df03a531461026857610108565b806320379ee5116100dc57806320379ee51461019b5780632d0335ab146101b05780633408e470146101d05780634e71d92d146101e5578063703bafd5146101fc57610108565b80628cc2621461010d5780630c53c51c146101445780630f7e59701461016457806318160ddd14610179575b600080fd5b34801561011957600080fd5b5061012d61012836600461135c565b610326565b60405161013b9291906119e1565b60405180910390f35b610157610152366004611377565b61051e565b60405161013b9190611678565b34801561017057600080fd5b506101576106b8565b34801561018557600080fd5b5061018e6106d5565b60405161013b919061162d565b3480156101a757600080fd5b5061018e6106db565b3480156101bc57600080fd5b5061018e6101cb36600461135c565b6106e1565b3480156101dc57600080fd5b5061018e6106fc565b3480156101f157600080fd5b506101fa610700565b005b34801561020857600080fd5b50610211610aaa565b60405161013b919061168b565b34801561022a57600080fd5b5061018e61023936600461135c565b610ab9565b34801561024a57600080fd5b5061018e610ad4565b34801561025f57600080fd5b5061018e610ada565b34801561027457600080fd5b5061018e610ae0565b34801561028957600080fd5b506101fa610298366004611491565b610ae6565b3480156102a957600080fd5b506102bd6102b8366004611447565b610d53565b60405161013b969594939291906119ef565b3480156102db57600080fd5b506102ef6102ea36600461135c565b610da4565b60405161013b91906115b5565b34801561030857600080fd5b5061018e610e55565b34801561031d57600080fd5b50610211610e5b565b6001600160a01b038116600090815260096020908152604080832080548251818502810185019093528083528493606093929190859084015b828210156103cd57838290600052602060002090600602016040518060c001604052908160008201548152602001600182015481526020016002820154815260200160038201548152602001600482015481526020016005820154815250508152602001906001019061035f565b50929350600092508291508190505b8351811015610513578381815181106103f157fe5b602002602001015160a0015184828151811061040957fe5b6020026020010151600001511161041f5761050b565b600084828151811061042d57fe5b6020026020010151604001514211610445574261045e565b84828151811061045157fe5b6020026020010151604001515b9050600061048c86848151811061047157fe5b60200260200101516060015183610edf90919063ffffffff16565b905060006104cc6006546104c0848a88815181106104a657fe5b602002602001015160000151610e6a90919063ffffffff16565b9063ffffffff610ead16565b90506104de858263ffffffff610f0716565b94506105056104f8600c5483610e6a90919063ffffffff16565b879063ffffffff610f0716565b95505050505b6001016103dc565b509350915050915091565b60606105286112d4565b50604080516060810182526001600160a01b038816600081815260036020908152908490205483528201529081018690526105668782878787610f2c565b61058b5760405162461bcd60e51b8152600401610582906118e8565b60405180910390fd5b6001600160a01b0387166000908152600360205260409020546105b590600163ffffffff610f0716565b6001600160a01b0388166000908152600360205260409081902091909155517f5845892132946850460bff5a0083f71031bc5bf9aadcd40f1de79423eac9b10b9061060590899033908a90611543565b60405180910390a160006060306001600160a01b0316888a60405160200161062e9291906114f1565b60408051601f1981840301815290829052610648916114d5565b6000604051808303816000865af19150503d8060008114610685576040519150601f19603f3d011682016040523d82523d6000602084013e61068a565b606091505b5091509150816106ac5760405162461bcd60e51b81526004016105829061169f565b98975050505050505050565b604051806040016040528060018152602001603160f81b81525081565b600a5490565b60025490565b6001600160a01b031660009081526003602052604090205490565b4690565b600260005414156107235760405162461bcd60e51b8152600401610582906119aa565b60026000908155338152600d602052604090205415610aa3573360009081526009602052604081209080805b8354811015610a215783818154811061076457fe5b90600052602060002090600602016005015484828154811061078257fe5b9060005260206000209060060201600001541161079e57610a19565b60008482815481106107ac57fe5b90600052602060002090600602016002015442116107ca57426107e9565b8482815481106107d657fe5b9060005260206000209060060201600201545b9050600061081d8684815481106107fc57fe5b90600052602060002090600602016003015483610edf90919063ffffffff16565b9050600086848154811061082d57fe5b906000526020600020906006020160020154831461087d576108786006546104c0848a888154811061085b57fe5b60009182526020909120600690910201549063ffffffff610e6a16565b6108c7565b6108c787858154811061088c57fe5b9060005260206000209060060201600501548886815481106108aa57fe5b60009182526020909120600690910201549063ffffffff610edf16565b90506108d9858263ffffffff610f0716565b94506108f36104f8600c5483610e6a90919063ffffffff16565b95506109258188868154811061090557fe5b906000526020600020906006020160050154610f0790919063ffffffff16565b87858154811061093157fe5b90600052602060002090600602016005018190555061098a61095e600c5483610e6a90919063ffffffff16565b88868154811061096a57fe5b906000526020600020906006020160040154610f0790919063ffffffff16565b87858154811061099657fe5b6000918252602090912060046006909202010155600a546109bd908263ffffffff610edf16565b600a55336000908152600d60205260409020546109e0908263ffffffff610edf16565b336000908152600d602052604090205586548390889086908110610a0057fe5b9060005260206000209060060201600301819055505050505b60010161074f565b50600454610a3f906001600160a01b0316338363ffffffff610fd216565b600554610a5c906001600160a01b0316338463ffffffff610fd216565b336001600160a01b03167f987d620f307ff6b94d58743cb7a7509f24071586a77759b77c2d4e29f75a2f9a8284604051610a979291906119e1565b60405180910390a25050505b6001600055565b6004546001600160a01b031681565b6001600160a01b03166000908152600d602052604090205490565b60065481565b600b5490565b60085481565b60026000541415610b095760405162461bcd60e51b8152600401610582906119aa565b6002600055600854421015610b305760405162461bcd60e51b8152600401610582906117f4565b60008111610b505760405162461bcd60e51b8152600401610582906116d6565b600754600b54610b66908363ffffffff610f0716565b1115610b845760405162461bcd60e51b815260040161058290611735565b600a54610b97908263ffffffff610f0716565b600a55600b54610bad908263ffffffff610f0716565b600b55610be681600d6000610bc061102d565b6001600160a01b031681526020810191909152604001600020549063ffffffff610f0716565b600d6000610bf261102d565b6001600160a01b03168152602081019190915260400160002055610c31610c1761102d565b6004546001600160a01b031690308463ffffffff61108b16565b600060096000610c3f61102d565b6001600160a01b03166001600160a01b031681526020019081526020016000209050610c696112fe565b6040518060c00160405280848152602001428152602001610c9560065442610f0790919063ffffffff16565b815242602080830191909152600060408084018290526060938401829052865460018181018955888452928490208651600690920201908155928501519183019190915583015160028201559082015160038201556080820151600482015560a08201516005909101559050610d0961102d565b6001600160a01b03167f9e71bc8eea02a63969f509818f2dafb9254532904319f9dbda79b67bd34a5f3d84604051610d41919061162d565b60405180910390a25050600160005550565b60096020528160005260406000208181548110610d6c57fe5b600091825260209091206006909102018054600182015460028301546003840154600485015460059095015493965091945092909186565b6001600160a01b0381166000908152600960209081526040808320805482518185028101850190935280835260609492939192909184015b82821015610e4a57838290600052602060002090600602016040518060c0016040529081600082015481526020016001820154815260200160028201548152602001600382015481526020016004820154815260200160058201548152505081526020019060010190610ddc565b505050509050919050565b60075481565b6005546001600160a01b031681565b600082610e7957506000610ea7565b82820282848281610e8657fe5b0414610ea45760405162461bcd60e51b8152600401610582906118a7565b90505b92915050565b6000808211610ece5760405162461bcd60e51b81526004016105829061182b565b818381610ed757fe5b049392505050565b600082821115610f015760405162461bcd60e51b815260040161058290611777565b50900390565b600082820183811015610ea45760405162461bcd60e51b8152600401610582906116fe565b60006001600160a01b038616610f545760405162461bcd60e51b815260040161058290611862565b6001610f67610f62876110b2565b611110565b83868660405160008152602001604052604051610f87949392919061165a565b6020604051602081039080840390855afa158015610fa9573d6000803e3d6000fd5b505050602060405103516001600160a01b0316866001600160a01b031614905095945050505050565b6110288363a9059cbb60e01b8484604051602401610ff192919061159c565b60408051601f198184030181529190526020810180516001600160e01b03166001600160e01b03199093169290921790915261112c565b505050565b6000333014156110855760606000368080601f0160208091040260200160405190810160405280939291908181526020018383808284376000920191909152505050503601516001600160a01b031691506110889050565b50335b90565b6110ac846323b872dd60e01b858585604051602401610ff193929190611578565b50505050565b6000604051806080016040528060438152602001611a4460439139805160209182012083518483015160408087015180519086012090516110f39501611636565b604051602081830303815290604052805190602001209050919050565b600061111a6106db565b826040516020016110f3929190611528565b6060611181826040518060400160405280602081526020017f5361666545524332303a206c6f772d6c6576656c2063616c6c206661696c6564815250856001600160a01b03166111bb9092919063ffffffff16565b805190915015611028578080602001905181019061119f9190611471565b6110285760405162461bcd60e51b815260040161058290611960565b60606111ca84846000856111d4565b90505b9392505050565b6060824710156111f65760405162461bcd60e51b8152600401610582906117ae565b6111ff85611295565b61121b5760405162461bcd60e51b815260040161058290611929565b60006060866001600160a01b0316858760405161123891906114d5565b60006040518083038185875af1925050503d8060008114611275576040519150601f19603f3d011682016040523d82523d6000602084013e61127a565b606091505b509150915061128a82828661129b565b979650505050505050565b3b151590565b606083156112aa5750816111cd565b8251156112ba5782518084602001fd5b8160405162461bcd60e51b81526004016105829190611678565b60405180606001604052806000815260200160006001600160a01b03168152602001606081525090565b6040518060c001604052806000815260200160008152602001600081526020016000815260200160008152602001600081525090565b80356001600160a01b0381168114610ea757600080fd5b803560ff81168114610ea757600080fd5b60006020828403121561136d578081fd5b6111cd8383611334565b600080600080600060a0868803121561138e578081fd5b6113988787611334565b945060208087013567ffffffffffffffff808211156113b5578384fd5b8189018a601f8201126113c6578485fd5b80359250818311156113d6578485fd5b604051601f8401601f19168101850183811182821017156113f5578687fd5b60405283815281840185018c101561140b578586fd5b838583018683013792830190930184905250945050604086013592506060860135915061143b876080880161134b565b90509295509295909350565b60008060408385031215611459578182fd5b6114638484611334565b946020939093013593505050565b600060208284031215611482578081fd5b81518015158114610ea4578182fd5b6000602082840312156114a2578081fd5b5035919050565b600081518084526114c1816020860160208601611a17565b601f01601f19169290920160200192915050565b600082516114e7818460208701611a17565b9190910192915050565b60008351611503818460208801611a17565b60609390931b6bffffffffffffffffffffffff19169190920190815260140192915050565b61190160f01b81526002810192909252602282015260420190565b6001600160a01b0384811682528316602082015260606040820181905260009061156f908301846114a9565b95945050505050565b6001600160a01b039384168152919092166020820152604081019190915260600190565b6001600160a01b03929092168252602082015260400190565b602080825282518282018190526000919060409081850190868401855b828110156116205781518051855286810151878601528581015186860152606080820151908601526080808201519086015260a0908101519085015260c090930192908501906001016115d2565b5091979650505050505050565b90815260200190565b93845260208401929092526001600160a01b03166040830152606082015260800190565b93845260ff9290921660208401526040830152606082015260800190565b6000602082526111cd60208301846114a9565b6001600160a01b0391909116815260200190565b6020808252601c908201527f46756e6374696f6e2063616c6c206e6f74207375636365737366756c00000000604082015260600190565b6020808252600e908201526d043616e6e6f74207374616b6520360941b604082015260600190565b6020808252601b908201527f536166654d6174683a206164646974696f6e206f766572666c6f770000000000604082015260600190565b60208082526022908201527f5661756c743a7374616b653a3a207661756c74206c696d697420657863656564604082015261195960f21b606082015260800190565b6020808252601e908201527f536166654d6174683a207375627472616374696f6e206f766572666c6f770000604082015260600190565b60208082526026908201527f416464726573733a20696e73756666696369656e742062616c616e636520666f6040820152651c8818d85b1b60d21b606082015260800190565b60208082526019908201527f5661756c743a7374616b653a3a206e6f74207374617274656400000000000000604082015260600190565b6020808252601a908201527f536166654d6174683a206469766973696f6e206279207a65726f000000000000604082015260600190565b60208082526025908201527f4e61746976654d6574615472616e73616374696f6e3a20494e56414c49445f5360408201526424a3a722a960d91b606082015260800190565b60208082526021908201527f536166654d6174683a206d756c7469706c69636174696f6e206f766572666c6f6040820152607760f81b606082015260800190565b60208082526021908201527f5369676e657220616e64207369676e617475726520646f206e6f74206d6174636040820152600d60fb1b606082015260800190565b6020808252601d908201527f416464726573733a2063616c6c20746f206e6f6e2d636f6e7472616374000000604082015260600190565b6020808252602a908201527f5361666545524332303a204552433230206f7065726174696f6e20646964206e6040820152691bdd081cdd58d8d9595960b21b606082015260800190565b6020808252601f908201527f5265656e7472616e637947756172643a207265656e7472616e742063616c6c00604082015260600190565b918252602082015260400190565b958652602086019490945260408501929092526060840152608083015260a082015260c00190565b60005b83811015611a32578181015183820152602001611a1a565b838111156110ac575050600091015256fe4d6574615472616e73616374696f6e2875696e74323536206e6f6e63652c616464726573732066726f6d2c62797465732066756e6374696f6e5369676e617475726529a2646970667358221220bff618750ec8480306da9cf7f1f7cd8cdd74a4736b9a82134bad9a05f3a50d7964736f6c634300060b0033454950373132446f6d61696e28737472696e67206e616d652c737472696e672076657273696f6e2c6164647265737320766572696679696e67436f6e74726163742c627974657333322073616c7429",
    "immutableReferences": {}
}