{
    "abi": [
        {
            "inputs": [
                {
                    "internalType": "address",
                    "name": "_vaultToken",
                    "type": "address"
                },
                {
                    "internalType": "address",
                    "name": "_rewardToken",
                    "type": "address"
                },
                {
                    "internalType": "uint256",
                    "name": "_vestingPeriod",
                    "type": "uint256"
                },
                {
                    "internalType": "uint256",
                    "name": "_interestRate",
                    "type": "uint256"
                },
                {
                    "internalType": "uint256",
                    "name": "_vaultLimit",
                    "type": "uint256"
                },
                {
                    "internalType": "uint256",
                    "name": "_rewardLimit",
                    "type": "uint256"
                }
            ],
            "stateMutability": "nonpayable",
            "type": "constructor"
        },
        {
            "anonymous": false,
            "inputs": [
                {
                    "indexed": true,
                    "internalType": "address",
                    "name": "user",
                    "type": "address"
                },
                {
                    "indexed": false,
                    "internalType": "uint256",
                    "name": "unlockedVestedToken",
                    "type": "uint256"
                },
                {
                    "indexed": false,
                    "internalType": "uint256",
                    "name": "reward",
                    "type": "uint256"
                }
            ],
            "name": "Claimed",
            "type": "event"
        },
        {
            "anonymous": false,
            "inputs": [
                {
                    "indexed": false,
                    "internalType": "address",
                    "name": "userAddress",
                    "type": "address"
                },
                {
                    "indexed": false,
                    "internalType": "address payable",
                    "name": "relayerAddress",
                    "type": "address"
                },
                {
                    "indexed": false,
                    "internalType": "bytes",
                    "name": "functionSignature",
                    "type": "bytes"
                }
            ],
            "name": "MetaTransactionExecuted",
            "type": "event"
        },
        {
            "anonymous": false,
            "inputs": [
                {
                    "indexed": true,
                    "internalType": "address",
                    "name": "user",
                    "type": "address"
                },
                {
                    "indexed": false,
                    "internalType": "uint256",
                    "name": "amount",
                    "type": "uint256"
                }
            ],
            "name": "Staked",
            "type": "event"
        },
        {
            "inputs": [],
            "name": "ERC712_VERSION",
            "outputs": [
                {
                    "internalType": "string",
                    "name": "",
                    "type": "string"
                }
            ],
            "stateMutability": "view",
            "type": "function"
        },
        {
            "inputs": [
                {
                    "internalType": "address",
                    "name": "account",
                    "type": "address"
                }
            ],
            "name": "balanceOf",
            "outputs": [
                {
                    "internalType": "uint256",
                    "name": "",
                    "type": "uint256"
                }
            ],
            "stateMutability": "view",
            "type": "function"
        },
        {
            "inputs": [],
            "name": "claim",
            "outputs": [],
            "stateMutability": "nonpayable",
            "type": "function"
        },
        {
            "inputs": [
                {
                    "internalType": "address",
                    "name": "account",
                    "type": "address"
                }
            ],
            "name": "earned",
            "outputs": [
                {
                    "internalType": "uint256",
                    "name": "unlockedVestedTokenAmount",
                    "type": "uint256"
                },
                {
                    "internalType": "uint256",
                    "name": "claimableRewardAmount",
                    "type": "uint256"
                }
            ],
            "stateMutability": "view",
            "type": "function"
        },
        {
            "inputs": [
                {
                    "internalType": "address",
                    "name": "userAddress",
                    "type": "address"
                },
                {
                    "internalType": "bytes",
                    "name": "functionSignature",
                    "type": "bytes"
                },
                {
                    "internalType": "bytes32",
                    "name": "sigR",
                    "type": "bytes32"
                },
                {
                    "internalType": "bytes32",
                    "name": "sigS",
                    "type": "bytes32"
                },
                {
                    "internalType": "uint8",
                    "name": "sigV",
                    "type": "uint8"
                }
            ],
            "name": "executeMetaTransaction",
            "outputs": [
                {
                    "internalType": "bytes",
                    "name": "",
                    "type": "bytes"
                }
            ],
            "stateMutability": "payable",
            "type": "function"
        },
        {
            "inputs": [],
            "name": "getChainId",
            "outputs": [
                {
                    "internalType": "uint256",
                    "name": "",
                    "type": "uint256"
                }
            ],
            "stateMutability": "pure",
            "type": "function"
        },
        {
            "inputs": [],
            "name": "getDomainSeperator",
            "outputs": [
                {
                    "internalType": "bytes32",
                    "name": "",
                    "type": "bytes32"
                }
            ],
            "stateMutability": "view",
            "type": "function"
        },
        {
            "inputs": [
                {
                    "internalType": "address",
                    "name": "user",
                    "type": "address"
                }
            ],
            "name": "getNonce",
            "outputs": [
                {
                    "internalType": "uint256",
                    "name": "nonce",
                    "type": "uint256"
                }
            ],
            "stateMutability": "view",
            "type": "function"
        },
        {
            "inputs": [
                {
                    "internalType": "address",
                    "name": "account",
                    "type": "address"
                }
            ],
            "name": "getUserVaultInfo",
            "outputs": [
                {
                    "components": [
                        {
                            "internalType": "uint256",
                            "name": "amount",
                            "type": "uint256"
                        },
                        {
                            "internalType": "uint256",
                            "name": "depositTime",
                            "type": "uint256"
                        },
                        {
                            "internalType": "uint256",
                            "name": "vestingPeriodEnds",
                            "type": "uint256"
                        },
                        {
                            "internalType": "uint256",
                            "name": "lastUpdated",
                            "type": "uint256"
                        },
                        {
                            "internalType": "uint256",
                            "name": "totalEarned",
                            "type": "uint256"
                        },
                        {
                            "internalType": "uint256",
                            "name": "totalUnlockedVestedAmount",
                            "type": "uint256"
                        }
                    ],
                    "internalType": "struct Vault.UserVault[]",
                    "name": "",
                    "type": "tuple[]"
                }
            ],
            "stateMutability": "view",
            "type": "function"
        },
        {
            "inputs": [],
            "name": "interestRate",
            "outputs": [
                {
                    "internalType": "uint256",
                    "name": "",
                    "type": "uint256"
                }
            ],
            "stateMutability": "view",
            "type": "function"
        },
        {
            "inputs": [],
            "name": "rewardToken",
            "outputs": [
                {
                    "internalType": "contract IERC20",
                    "name": "",
                    "type": "address"
                }
            ],
            "stateMutability": "view",
            "type": "function"
        },
        {
            "inputs": [
                {
                    "internalType": "uint256",
                    "name": "amount",
                    "type": "uint256"
                }
            ],
            "name": "stake",
            "outputs": [],
            "stateMutability": "nonpayable",
            "type": "function"
        },
        {
            "inputs": [],
            "name": "totalDeposits",
            "outputs": [
                {
                    "internalType": "uint256",
                    "name": "",
                    "type": "uint256"
                }
            ],
            "stateMutability": "view",
            "type": "function"
        },
        {
            "inputs": [],
            "name": "totalSupply",
            "outputs": [
                {
                    "internalType": "uint256",
                    "name": "",
                    "type": "uint256"
                }
            ],
            "stateMutability": "view",
            "type": "function"
        },
        {
            "inputs": [
                {
                    "internalType": "address",
                    "name": "",
                    "type": "address"
                },
                {
                    "internalType": "uint256",
                    "name": "",
                    "type": "uint256"
                }
            ],
            "name": "userVault",
            "outputs": [
                {
                    "internalType": "uint256",
                    "name": "amount",
                    "type": "uint256"
                },
                {
                    "internalType": "uint256",
                    "name": "depositTime",
                    "type": "uint256"
                },
                {
                    "internalType": "uint256",
                    "name": "vestingPeriodEnds",
                    "type": "uint256"
                },
                {
                    "internalType": "uint256",
                    "name": "lastUpdated",
                    "type": "uint256"
                },
                {
                    "internalType": "uint256",
                    "name": "totalEarned",
                    "type": "uint256"
                },
                {
                    "internalType": "uint256",
                    "name": "totalUnlockedVestedAmount",
                    "type": "uint256"
                }
            ],
            "stateMutability": "view",
            "type": "function"
        },
        {
            "inputs": [],
            "name": "vaultLimit",
            "outputs": [
                {
                    "internalType": "uint256",
                    "name": "",
                    "type": "uint256"
                }
            ],
            "stateMutability": "view",
            "type": "function"
        },
        {
            "inputs": [],
            "name": "vaultToken",
            "outputs": [
                {
                    "internalType": "contract IERC20",
                    "name": "",
                    "type": "address"
                }
            ],
            "stateMutability": "view",
            "type": "function"
        },
        {
            "inputs": [],
            "name": "vestingPeriod",
            "outputs": [
                {
                    "internalType": "uint256",
                    "name": "",
                    "type": "uint256"
                }
            ],
            "stateMutability": "view",
            "type": "function"
        }
    ],
    "bytecode": "60806040526001805460ff191690553480156200001b57600080fd5b5060405162001ec138038062001ec18339810160408190526200003e9162000294565b6001600055600480546001600160a01b03199081166001600160a01b0389811691909117909255600580549091169187169190911790556200009582670de0b6b3a764000062000114602090811b62000e6c17901c565b6007556008839055620000b8846201518062000114602090811b62000e6c17901c565b600655620000d3818362000166602090811b62000eaf17901c565b600c556040805180820190915260078152665661756c74563160c81b602082015262000108906001600160e01b036200019c16565b505050505050620003db565b600082620001255750600062000160565b828202828482816200013357fe5b04146200015d5760405162461bcd60e51b8152600401620001549062000359565b60405180910390fd5b90505b92915050565b60008082116200018a5760405162461bcd60e51b8152600401620001549062000322565b8183816200019457fe5b049392505050565b60015460ff1615620001c25760405162461bcd60e51b815260040162000154906200039a565b620001d6816001600160e01b03620001e516565b506001805460ff191681179055565b6040518060800160405280604f815260200162001e72604f913980516020918201208251838301206040805180820190915260018152603160f81b930192909252907fc89efdaa54c0f20c7adf612882df0950f5a951637e0307cdcb4c672f298b8bc6306200025c6001600160e01b036200029016565b60405162000272959493929190602001620002f6565b60408051601f19818403018152919052805160209091012060025550565b4690565b60008060008060008060c08789031215620002ad578182fd5b8651620002ba81620003c2565b6020880151909650620002cd81620003c2565b6040880151606089015160808a015160a0909a0151989b929a5090989097909650945092505050565b948552602085019390935260408401919091526001600160a01b03166060830152608082015260a00190565b6020808252601a908201527f536166654d6174683a206469766973696f6e206279207a65726f000000000000604082015260600190565b60208082526021908201527f536166654d6174683a206d756c7469706c69636174696f6e206f766572666c6f6040820152607760f81b606082015260800190565b6020808252600e908201526d185b1c9958591e481a5b9a5d195960921b604082015260600190565b6001600160a01b0381168114620003d857600080fd5b50565b611a8780620003eb6000396000f3fe6080604052600436106101085760003560e01c806370a0823111610095578063a694fc3a11610064578063a694fc3a1461027d578063d43eb23d1461029d578063dc7e676c146102cf578063e81a5c73146102fc578063f7c618c11461031157610108565b806370a082311461021e5780637313ee5a1461023e5780637c3a00fd146102535780637d8820971461026857610108565b806320379ee5116100dc57806320379ee51461019b5780632d0335ab146101b05780633408e470146101d05780634e71d92d146101e5578063703bafd5146101fc57610108565b80628cc2621461010d5780630c53c51c146101445780630f7e59701461016457806318160ddd14610179575b600080fd5b34801561011957600080fd5b5061012d61012836600461135e565b610326565b60405161013b9291906119ac565b60405180910390f35b610157610152366004611379565b610535565b60405161013b919061167a565b34801561017057600080fd5b506101576106cf565b34801561018557600080fd5b5061018e6106ec565b60405161013b919061162f565b3480156101a757600080fd5b5061018e6106f2565b3480156101bc57600080fd5b5061018e6101cb36600461135e565b6106f8565b3480156101dc57600080fd5b5061018e610713565b3480156101f157600080fd5b506101fa610717565b005b34801561020857600080fd5b50610211610ad1565b60405161013b919061168d565b34801561022a57600080fd5b5061018e61023936600461135e565b610ae0565b34801561024a57600080fd5b5061018e610afb565b34801561025f57600080fd5b5061018e610b01565b34801561027457600080fd5b5061018e610b07565b34801561028957600080fd5b506101fa610298366004611493565b610b0d565b3480156102a957600080fd5b506102bd6102b8366004611449565b610d55565b60405161013b969594939291906119ba565b3480156102db57600080fd5b506102ef6102ea36600461135e565b610da6565b60405161013b91906115b7565b34801561030857600080fd5b5061018e610e57565b34801561031d57600080fd5b50610211610e5d565b6001600160a01b038116600090815260096020908152604080832080548251818502810185019093528083528493606093929190859084015b828210156103cd57838290600052602060002090600602016040518060c001604052908160008201548152602001600182015481526020016002820154815260200160038201548152602001600482015481526020016005820154815250508152602001906001019061035f565b50929350600092508291508190505b835181101561052a578381815181106103f157fe5b602002602001015160a0015184828151811061040957fe5b6020026020010151600001511161041f57610522565b600084828151811061042d57fe5b6020026020010151604001514211610445574261045e565b84828151811061045157fe5b6020026020010151604001515b9050600061048c86848151811061047157fe5b60200260200101516060015183610ee190919063ffffffff16565b905060006104cc6006546104c0848a88815181106104a657fe5b602002602001015160000151610e6c90919063ffffffff16565b9063ffffffff610eaf16565b90506104de858263ffffffff610f0916565b945061051c61050f60646104c0600c5461050360085487610e6c90919063ffffffff16565b9063ffffffff610e6c16565b879063ffffffff610f0916565b95505050505b6001016103dc565b509350915050915091565b606061053f6112d6565b50604080516060810182526001600160a01b0388166000818152600360209081529084902054835282015290810186905261057d8782878787610f2e565b6105a25760405162461bcd60e51b8152600401610599906118b3565b60405180910390fd5b6001600160a01b0387166000908152600360205260409020546105cc90600163ffffffff610f0916565b6001600160a01b0388166000908152600360205260409081902091909155517f5845892132946850460bff5a0083f71031bc5bf9aadcd40f1de79423eac9b10b9061061c90899033908a90611545565b60405180910390a160006060306001600160a01b0316888a6040516020016106459291906114f3565b60408051601f198184030181529082905261065f916114d7565b6000604051808303816000865af19150503d806000811461069c576040519150601f19603f3d011682016040523d82523d6000602084013e6106a1565b606091505b5091509150816106c35760405162461bcd60e51b8152600401610599906116a1565b98975050505050505050565b604051806040016040528060018152602001603160f81b81525081565b600a5490565b60025490565b6001600160a01b031660009081526003602052604090205490565b4690565b6002600054141561073a5760405162461bcd60e51b815260040161059990611975565b60026000908155338152600d602052604090205415610aca573360009081526009602052604081209080805b8354811015610a485783818154811061077b57fe5b90600052602060002090600602016005015484828154811061079957fe5b906000526020600020906006020160000154116107b557610a40565b60008482815481106107c357fe5b90600052602060002090600602016002015442116107e15742610800565b8482815481106107ed57fe5b9060005260206000209060060201600201545b9050600061083486848154811061081357fe5b90600052602060002090600602016003015483610ee190919063ffffffff16565b9050600086848154811061084457fe5b90600052602060002090600602016002015483146108945761088f6006546104c0848a888154811061087257fe5b60009182526020909120600690910201549063ffffffff610e6c16565b6108de565b6108de8785815481106108a357fe5b9060005260206000209060060201600501548886815481106108c157fe5b60009182526020909120600690910201549063ffffffff610ee116565b90506108f0858263ffffffff610f0916565b945061091561050f60646104c0600c5461050360085487610e6c90919063ffffffff16565b95506109478188868154811061092757fe5b906000526020600020906006020160050154610f0990919063ffffffff16565b87858154811061095357fe5b9060005260206000209060060201600501819055506109b161098560646104c060085485610e6c90919063ffffffff16565b88868154811061099157fe5b906000526020600020906006020160040154610f0990919063ffffffff16565b8785815481106109bd57fe5b6000918252602090912060046006909202010155600a546109e4908263ffffffff610ee116565b600a55336000908152600d6020526040902054610a07908263ffffffff610ee116565b336000908152600d602052604090205586548390889086908110610a2757fe5b9060005260206000209060060201600301819055505050505b600101610766565b50600454610a66906001600160a01b0316338363ffffffff610fd416565b600554610a83906001600160a01b0316338463ffffffff610fd416565b336001600160a01b03167f987d620f307ff6b94d58743cb7a7509f24071586a77759b77c2d4e29f75a2f9a8284604051610abe9291906119ac565b60405180910390a25050505b6001600055565b6004546001600160a01b031681565b6001600160a01b03166000908152600d602052604090205490565b60065481565b60085481565b600b5490565b60026000541415610b305760405162461bcd60e51b815260040161059990611975565b600260005580610b525760405162461bcd60e51b8152600401610599906116d8565b600754600b54610b68908363ffffffff610f0916565b1115610b865760405162461bcd60e51b815260040161059990611737565b600a54610b99908263ffffffff610f0916565b600a55600b54610baf908263ffffffff610f0916565b600b55610be881600d6000610bc261102f565b6001600160a01b031681526020810191909152604001600020549063ffffffff610f0916565b600d6000610bf461102f565b6001600160a01b03168152602081019190915260400160002055610c33610c1961102f565b6004546001600160a01b031690308463ffffffff61108d16565b600060096000610c4161102f565b6001600160a01b03166001600160a01b031681526020019081526020016000209050610c6b611300565b6040518060c00160405280848152602001428152602001610c9760065442610f0990919063ffffffff16565b815242602080830191909152600060408084018290526060938401829052865460018181018955888452928490208651600690920201908155928501519183019190915583015160028201559082015160038201556080820151600482015560a08201516005909101559050610d0b61102f565b6001600160a01b03167f9e71bc8eea02a63969f509818f2dafb9254532904319f9dbda79b67bd34a5f3d84604051610d43919061162f565b60405180910390a25050600160005550565b60096020528160005260406000208181548110610d6e57fe5b600091825260209091206006909102018054600182015460028301546003840154600485015460059095015493965091945092909186565b6001600160a01b0381166000908152600960209081526040808320805482518185028101850190935280835260609492939192909184015b82821015610e4c57838290600052602060002090600602016040518060c0016040529081600082015481526020016001820154815260200160028201548152602001600382015481526020016004820154815260200160058201548152505081526020019060010190610dde565b505050509050919050565b60075481565b6005546001600160a01b031681565b600082610e7b57506000610ea9565b82820282848281610e8857fe5b0414610ea65760405162461bcd60e51b815260040161059990611872565b90505b92915050565b6000808211610ed05760405162461bcd60e51b8152600401610599906117f6565b818381610ed957fe5b049392505050565b600082821115610f035760405162461bcd60e51b815260040161059990611779565b50900390565b600082820183811015610ea65760405162461bcd60e51b815260040161059990611700565b60006001600160a01b038616610f565760405162461bcd60e51b81526004016105999061182d565b6001610f69610f64876110b4565b611112565b83868660405160008152602001604052604051610f89949392919061165c565b6020604051602081039080840390855afa158015610fab573d6000803e3d6000fd5b505050602060405103516001600160a01b0316866001600160a01b031614905095945050505050565b61102a8363a9059cbb60e01b8484604051602401610ff392919061159e565b60408051601f198184030181529190526020810180516001600160e01b03166001600160e01b03199093169290921790915261112e565b505050565b6000333014156110875760606000368080601f0160208091040260200160405190810160405280939291908181526020018383808284376000920191909152505050503601516001600160a01b0316915061108a9050565b50335b90565b6110ae846323b872dd60e01b858585604051602401610ff39392919061157a565b50505050565b6000604051806080016040528060438152602001611a0f60439139805160209182012083518483015160408087015180519086012090516110f59501611638565b604051602081830303815290604052805190602001209050919050565b600061111c6106f2565b826040516020016110f592919061152a565b6060611183826040518060400160405280602081526020017f5361666545524332303a206c6f772d6c6576656c2063616c6c206661696c6564815250856001600160a01b03166111bd9092919063ffffffff16565b80519091501561102a57808060200190518101906111a19190611473565b61102a5760405162461bcd60e51b81526004016105999061192b565b60606111cc84846000856111d6565b90505b9392505050565b6060824710156111f85760405162461bcd60e51b8152600401610599906117b0565b61120185611297565b61121d5760405162461bcd60e51b8152600401610599906118f4565b60006060866001600160a01b0316858760405161123a91906114d7565b60006040518083038185875af1925050503d8060008114611277576040519150601f19603f3d011682016040523d82523d6000602084013e61127c565b606091505b509150915061128c82828661129d565b979650505050505050565b3b151590565b606083156112ac5750816111cf565b8251156112bc5782518084602001fd5b8160405162461bcd60e51b8152600401610599919061167a565b60405180606001604052806000815260200160006001600160a01b03168152602001606081525090565b6040518060c001604052806000815260200160008152602001600081526020016000815260200160008152602001600081525090565b80356001600160a01b0381168114610ea957600080fd5b803560ff81168114610ea957600080fd5b60006020828403121561136f578081fd5b6111cf8383611336565b600080600080600060a08688031215611390578081fd5b61139a8787611336565b945060208087013567ffffffffffffffff808211156113b7578384fd5b8189018a601f8201126113c8578485fd5b80359250818311156113d8578485fd5b604051601f8401601f19168101850183811182821017156113f7578687fd5b60405283815281840185018c101561140d578586fd5b838583018683013792830190930184905250945050604086013592506060860135915061143d876080880161134d565b90509295509295909350565b6000806040838503121561145b578182fd5b6114658484611336565b946020939093013593505050565b600060208284031215611484578081fd5b81518015158114610ea6578182fd5b6000602082840312156114a4578081fd5b5035919050565b600081518084526114c38160208601602086016119e2565b601f01601f19169290920160200192915050565b600082516114e98184602087016119e2565b9190910192915050565b600083516115058184602088016119e2565b60609390931b6bffffffffffffffffffffffff19169190920190815260140192915050565b61190160f01b81526002810192909252602282015260420190565b6001600160a01b03848116825283166020820152606060408201819052600090611571908301846114ab565b95945050505050565b6001600160a01b039384168152919092166020820152604081019190915260600190565b6001600160a01b03929092168252602082015260400190565b602080825282518282018190526000919060409081850190868401855b828110156116225781518051855286810151878601528581015186860152606080820151908601526080808201519086015260a0908101519085015260c090930192908501906001016115d4565b5091979650505050505050565b90815260200190565b93845260208401929092526001600160a01b03166040830152606082015260800190565b93845260ff9290921660208401526040830152606082015260800190565b6000602082526111cf60208301846114ab565b6001600160a01b0391909116815260200190565b6020808252601c908201527f46756e6374696f6e2063616c6c206e6f74207375636365737366756c00000000604082015260600190565b6020808252600e908201526d043616e6e6f74207374616b6520360941b604082015260600190565b6020808252601b908201527f536166654d6174683a206164646974696f6e206f766572666c6f770000000000604082015260600190565b60208082526022908201527f5661756c743a7374616b653a3a207661756c74206c696d697420657863656564604082015261195960f21b606082015260800190565b6020808252601e908201527f536166654d6174683a207375627472616374696f6e206f766572666c6f770000604082015260600190565b60208082526026908201527f416464726573733a20696e73756666696369656e742062616c616e636520666f6040820152651c8818d85b1b60d21b606082015260800190565b6020808252601a908201527f536166654d6174683a206469766973696f6e206279207a65726f000000000000604082015260600190565b60208082526025908201527f4e61746976654d6574615472616e73616374696f6e3a20494e56414c49445f5360408201526424a3a722a960d91b606082015260800190565b60208082526021908201527f536166654d6174683a206d756c7469706c69636174696f6e206f766572666c6f6040820152607760f81b606082015260800190565b60208082526021908201527f5369676e657220616e64207369676e617475726520646f206e6f74206d6174636040820152600d60fb1b606082015260800190565b6020808252601d908201527f416464726573733a2063616c6c20746f206e6f6e2d636f6e7472616374000000604082015260600190565b6020808252602a908201527f5361666545524332303a204552433230206f7065726174696f6e20646964206e6040820152691bdd081cdd58d8d9595960b21b606082015260800190565b6020808252601f908201527f5265656e7472616e637947756172643a207265656e7472616e742063616c6c00604082015260600190565b918252602082015260400190565b958652602086019490945260408501929092526060840152608083015260a082015260c00190565b60005b838110156119fd5781810151838201526020016119e5565b838111156110ae575050600091015256fe4d6574615472616e73616374696f6e2875696e74323536206e6f6e63652c616464726573732066726f6d2c62797465732066756e6374696f6e5369676e617475726529a264697066735822122056ce00928c3797f7a081d18f3e7c01e3c8bcb5ee66ff7bca107fb92c52d4d29d64736f6c634300060b0033454950373132446f6d61696e28737472696e67206e616d652c737472696e672076657273696f6e2c6164647265737320766572696679696e67436f6e74726163742c627974657333322073616c7429"
}