{
    "abi": [
        {
            "inputs": [
                {
                    "internalType": "address",
                    "name": "_rewardsDistribution",
                    "type": "address"
                },
                {
                    "internalType": "address",
                    "name": "_rewardsToken",
                    "type": "address"
                },
                {
                    "internalType": "address",
                    "name": "_stakingToken",
                    "type": "address"
                },
                {
                    "internalType": "uint256",
                    "name": "_rewardsDuration",
                    "type": "uint256"
                },
                {
                    "internalType": "uint256",
                    "name": "_vesting",
                    "type": "uint256"
                },
                {
                    "internalType": "uint256",
                    "name": "_splits",
                    "type": "uint256"
                },
                {
                    "internalType": "uint256",
                    "name": "_claim",
                    "type": "uint256"
                }
            ],
            "stateMutability": "nonpayable",
            "type": "constructor"
        },
        {
            "anonymous": false,
            "inputs": [
                {
                    "indexed": false,
                    "internalType": "address",
                    "name": "userAddress",
                    "type": "address"
                },
                {
                    "indexed": false,
                    "internalType": "address payable",
                    "name": "relayerAddress",
                    "type": "address"
                },
                {
                    "indexed": false,
                    "internalType": "bytes",
                    "name": "functionSignature",
                    "type": "bytes"
                }
            ],
            "name": "MetaTransactionExecuted",
            "type": "event"
        },
        {
            "anonymous": false,
            "inputs": [
                {
                    "indexed": false,
                    "internalType": "uint256",
                    "name": "reward",
                    "type": "uint256"
                }
            ],
            "name": "RewardAdded",
            "type": "event"
        },
        {
            "anonymous": false,
            "inputs": [
                {
                    "indexed": true,
                    "internalType": "address",
                    "name": "user",
                    "type": "address"
                },
                {
                    "indexed": false,
                    "internalType": "uint256",
                    "name": "reward",
                    "type": "uint256"
                }
            ],
            "name": "RewardPaid",
            "type": "event"
        },
        {
            "anonymous": false,
            "inputs": [
                {
                    "indexed": true,
                    "internalType": "address",
                    "name": "user",
                    "type": "address"
                },
                {
                    "indexed": false,
                    "internalType": "uint256",
                    "name": "amount",
                    "type": "uint256"
                }
            ],
            "name": "Staked",
            "type": "event"
        },
        {
            "anonymous": false,
            "inputs": [
                {
                    "indexed": true,
                    "internalType": "address",
                    "name": "user",
                    "type": "address"
                },
                {
                    "indexed": false,
                    "internalType": "uint256",
                    "name": "amount",
                    "type": "uint256"
                }
            ],
            "name": "Withdrawn",
            "type": "event"
        },
        {
            "inputs": [],
            "name": "ERC712_VERSION",
            "outputs": [
                {
                    "internalType": "string",
                    "name": "",
                    "type": "string"
                }
            ],
            "stateMutability": "view",
            "type": "function"
        },
        {
            "inputs": [
                {
                    "internalType": "address",
                    "name": "account",
                    "type": "address"
                }
            ],
            "name": "balanceOf",
            "outputs": [
                {
                    "internalType": "uint256",
                    "name": "",
                    "type": "uint256"
                }
            ],
            "stateMutability": "view",
            "type": "function"
        },
        {
            "inputs": [],
            "name": "claim",
            "outputs": [
                {
                    "internalType": "uint256",
                    "name": "",
                    "type": "uint256"
                }
            ],
            "stateMutability": "view",
            "type": "function"
        },
        {
            "inputs": [
                {
                    "internalType": "address",
                    "name": "",
                    "type": "address"
                }
            ],
            "name": "claimedSplits",
            "outputs": [
                {
                    "internalType": "uint256",
                    "name": "",
                    "type": "uint256"
                }
            ],
            "stateMutability": "view",
            "type": "function"
        },
        {
            "inputs": [
                {
                    "internalType": "address",
                    "name": "account",
                    "type": "address"
                }
            ],
            "name": "earned",
            "outputs": [
                {
                    "internalType": "uint256",
                    "name": "",
                    "type": "uint256"
                }
            ],
            "stateMutability": "view",
            "type": "function"
        },
        {
            "inputs": [
                {
                    "internalType": "address",
                    "name": "userAddress",
                    "type": "address"
                },
                {
                    "internalType": "bytes",
                    "name": "functionSignature",
                    "type": "bytes"
                },
                {
                    "internalType": "bytes32",
                    "name": "sigR",
                    "type": "bytes32"
                },
                {
                    "internalType": "bytes32",
                    "name": "sigS",
                    "type": "bytes32"
                },
                {
                    "internalType": "uint8",
                    "name": "sigV",
                    "type": "uint8"
                }
            ],
            "name": "executeMetaTransaction",
            "outputs": [
                {
                    "internalType": "bytes",
                    "name": "",
                    "type": "bytes"
                }
            ],
            "stateMutability": "payable",
            "type": "function"
        },
        {
            "inputs": [],
            "name": "exit",
            "outputs": [],
            "stateMutability": "nonpayable",
            "type": "function"
        },
        {
            "inputs": [],
            "name": "getChainId",
            "outputs": [
                {
                    "internalType": "uint256",
                    "name": "",
                    "type": "uint256"
                }
            ],
            "stateMutability": "pure",
            "type": "function"
        },
        {
            "inputs": [],
            "name": "getDomainSeperator",
            "outputs": [
                {
                    "internalType": "bytes32",
                    "name": "",
                    "type": "bytes32"
                }
            ],
            "stateMutability": "view",
            "type": "function"
        },
        {
            "inputs": [
                {
                    "internalType": "address",
                    "name": "user",
                    "type": "address"
                }
            ],
            "name": "getNonce",
            "outputs": [
                {
                    "internalType": "uint256",
                    "name": "nonce",
                    "type": "uint256"
                }
            ],
            "stateMutability": "view",
            "type": "function"
        },
        {
            "inputs": [],
            "name": "getReward",
            "outputs": [],
            "stateMutability": "nonpayable",
            "type": "function"
        },
        {
            "inputs": [],
            "name": "getRewardForDuration",
            "outputs": [
                {
                    "internalType": "uint256",
                    "name": "",
                    "type": "uint256"
                }
            ],
            "stateMutability": "view",
            "type": "function"
        },
        {
            "inputs": [
                {
                    "internalType": "address",
                    "name": "",
                    "type": "address"
                }
            ],
            "name": "hasClaimed",
            "outputs": [
                {
                    "internalType": "bool",
                    "name": "",
                    "type": "bool"
                }
            ],
            "stateMutability": "view",
            "type": "function"
        },
        {
            "inputs": [],
            "name": "lastTimeRewardApplicable",
            "outputs": [
                {
                    "internalType": "uint256",
                    "name": "",
                    "type": "uint256"
                }
            ],
            "stateMutability": "view",
            "type": "function"
        },
        {
            "inputs": [],
            "name": "lastUpdateTime",
            "outputs": [
                {
                    "internalType": "uint256",
                    "name": "",
                    "type": "uint256"
                }
            ],
            "stateMutability": "view",
            "type": "function"
        },
        {
            "inputs": [
                {
                    "internalType": "uint256",
                    "name": "reward",
                    "type": "uint256"
                }
            ],
            "name": "notifyRewardAmount",
            "outputs": [],
            "stateMutability": "nonpayable",
            "type": "function"
        },
        {
            "inputs": [],
            "name": "periodFinish",
            "outputs": [
                {
                    "internalType": "uint256",
                    "name": "",
                    "type": "uint256"
                }
            ],
            "stateMutability": "view",
            "type": "function"
        },
        {
            "inputs": [
                {
                    "internalType": "address",
                    "name": "tokenAddress",
                    "type": "address"
                },
                {
                    "internalType": "address",
                    "name": "receiver",
                    "type": "address"
                }
            ],
            "name": "rescueFunds",
            "outputs": [],
            "stateMutability": "nonpayable",
            "type": "function"
        },
        {
            "inputs": [],
            "name": "rewardPerToken",
            "outputs": [
                {
                    "internalType": "uint256",
                    "name": "",
                    "type": "uint256"
                }
            ],
            "stateMutability": "view",
            "type": "function"
        },
        {
            "inputs": [],
            "name": "rewardPerTokenStored",
            "outputs": [
                {
                    "internalType": "uint256",
                    "name": "",
                    "type": "uint256"
                }
            ],
            "stateMutability": "view",
            "type": "function"
        },
        {
            "inputs": [],
            "name": "rewardRate",
            "outputs": [
                {
                    "internalType": "uint256",
                    "name": "",
                    "type": "uint256"
                }
            ],
            "stateMutability": "view",
            "type": "function"
        },
        {
            "inputs": [
                {
                    "internalType": "address",
                    "name": "",
                    "type": "address"
                }
            ],
            "name": "rewards",
            "outputs": [
                {
                    "internalType": "uint256",
                    "name": "",
                    "type": "uint256"
                }
            ],
            "stateMutability": "view",
            "type": "function"
        },
        {
            "inputs": [],
            "name": "rewardsDistribution",
            "outputs": [
                {
                    "internalType": "address",
                    "name": "",
                    "type": "address"
                }
            ],
            "stateMutability": "view",
            "type": "function"
        },
        {
            "inputs": [],
            "name": "rewardsDuration",
            "outputs": [
                {
                    "internalType": "uint256",
                    "name": "",
                    "type": "uint256"
                }
            ],
            "stateMutability": "view",
            "type": "function"
        },
        {
            "inputs": [],
            "name": "rewardsToken",
            "outputs": [
                {
                    "internalType": "contract IERC20",
                    "name": "",
                    "type": "address"
                }
            ],
            "stateMutability": "view",
            "type": "function"
        },
        {
            "inputs": [],
            "name": "splitWindow",
            "outputs": [
                {
                    "internalType": "uint256",
                    "name": "",
                    "type": "uint256"
                }
            ],
            "stateMutability": "view",
            "type": "function"
        },
        {
            "inputs": [],
            "name": "splits",
            "outputs": [
                {
                    "internalType": "uint256",
                    "name": "",
                    "type": "uint256"
                }
            ],
            "stateMutability": "view",
            "type": "function"
        },
        {
            "inputs": [
                {
                    "internalType": "uint256",
                    "name": "amount",
                    "type": "uint256"
                }
            ],
            "name": "stake",
            "outputs": [],
            "stateMutability": "nonpayable",
            "type": "function"
        },
        {
            "inputs": [
                {
                    "internalType": "uint256",
                    "name": "amount",
                    "type": "uint256"
                },
                {
                    "internalType": "uint256",
                    "name": "deadline",
                    "type": "uint256"
                },
                {
                    "internalType": "uint8",
                    "name": "v",
                    "type": "uint8"
                },
                {
                    "internalType": "bytes32",
                    "name": "r",
                    "type": "bytes32"
                },
                {
                    "internalType": "bytes32",
                    "name": "s",
                    "type": "bytes32"
                }
            ],
            "name": "stakeWithPermit",
            "outputs": [],
            "stateMutability": "nonpayable",
            "type": "function"
        },
        {
            "inputs": [],
            "name": "stakingToken",
            "outputs": [
                {
                    "internalType": "contract IERC20",
                    "name": "",
                    "type": "address"
                }
            ],
            "stateMutability": "view",
            "type": "function"
        },
        {
            "inputs": [
                {
                    "internalType": "address",
                    "name": "",
                    "type": "address"
                }
            ],
            "name": "totalEarnedReward",
            "outputs": [
                {
                    "internalType": "uint256",
                    "name": "",
                    "type": "uint256"
                }
            ],
            "stateMutability": "view",
            "type": "function"
        },
        {
            "inputs": [],
            "name": "totalSupply",
            "outputs": [
                {
                    "internalType": "uint256",
                    "name": "",
                    "type": "uint256"
                }
            ],
            "stateMutability": "view",
            "type": "function"
        },
        {
            "inputs": [
                {
                    "internalType": "address",
                    "name": "",
                    "type": "address"
                }
            ],
            "name": "totalVestedRewardForUser",
            "outputs": [
                {
                    "internalType": "uint256",
                    "name": "",
                    "type": "uint256"
                }
            ],
            "stateMutability": "view",
            "type": "function"
        },
        {
            "inputs": [
                {
                    "internalType": "address",
                    "name": "",
                    "type": "address"
                }
            ],
            "name": "userRewardPerTokenPaid",
            "outputs": [
                {
                    "internalType": "uint256",
                    "name": "",
                    "type": "uint256"
                }
            ],
            "stateMutability": "view",
            "type": "function"
        },
        {
            "inputs": [],
            "name": "vestingPeriod",
            "outputs": [
                {
                    "internalType": "uint256",
                    "name": "",
                    "type": "uint256"
                }
            ],
            "stateMutability": "view",
            "type": "function"
        },
        {
            "inputs": [
                {
                    "internalType": "uint256",
                    "name": "amount",
                    "type": "uint256"
                }
            ],
            "name": "withdraw",
            "outputs": [],
            "stateMutability": "nonpayable",
            "type": "function"
        }
    ],
    "bytecode": "60806040526002805460ff191690553480156200001b57600080fd5b50604051620027b2380380620027b2833981810160405260e08110156200004157600080fd5b50805160208083015160408401516060850151608086015160a087015160c09097015160018055600580546001600160a01b038088166001600160a01b0319928316179092556006805483881690831617905560008054928a16929091169190911790556009839055600a829055600b889055600c819055959693959294919390929091620000dd908490849062001b8c62000128821b17901c565b600d5560408051808201909152601081526f5374616b696e6752657761726473563160801b60208201526200011b906001600160e01b036200019116565b50505050505050620002cb565b60008082116200017f576040805162461bcd60e51b815260206004820152601a60248201527f536166654d6174683a206469766973696f6e206279207a65726f000000000000604482015290519081900360640190fd5b8183816200018957fe5b049392505050565b60025460ff1615620001db576040805162461bcd60e51b815260206004820152600e60248201526d185b1c9958591e481a5b9a5d195960921b604482015290519081900360640190fd5b620001ef816001600160e01b03620001ff16565b506002805460ff19166001179055565b6040518060800160405280604f815260200162002763604f913980516020918201208251838301206040805180820190915260018152603160f81b930192909252907fc89efdaa54c0f20c7adf612882df0950f5a951637e0307cdcb4c672f298b8bc630620002766001600160e01b03620002c716565b604080516020808201979097528082019590955260608501939093526001600160a01b03909116608084015260a0808401919091528151808403909101815260c09092019052805191012060035550565b4690565b61248880620002db6000396000f3fe60806040526004361061020e5760003560e01c806370a0823111610118578063afc3f0fe116100a0578063df136d651161006f578063df136d651461075b578063e79fef0714610770578063e9fad8ee146107a3578063ebe2b12b146107b8578063ecd9ba82146107cd5761020e565b8063afc3f0fe146106e9578063c8f33c911461071c578063cd3daf9d14610731578063d1af0c7d146107465761020e565b806373b2e80e116100e757806373b2e80e1461061b5780637b0a47ee1461066257806380faa57d146106775780638b8763471461068c578063a694fc3a146106bf5761020e565b806370a082311461058b57806371e94bee146105be57806372f702f3146105f15780637313ee5a146106065761020e565b80632e1a7d4d1161019b5780633c6b16ab1161016a5780633c6b16ab146104f15780633d18b9121461051b5780633fc6df6e146105305780634e71d92d146105615780636cbdec7d146105765761020e565b80632e1a7d4d146104885780633193a146146104b25780633408e470146104c7578063386a9525146104dc5761020e565b806318160ddd116101e257806318160ddd146103d95780631c1f78eb146103ee5780631ff9b6f21461040357806320379ee5146104405780632d0335ab146104555761020e565b80628cc262146102135780630700037d146102585780630c53c51c1461028b5780630f7e5970146103c4575b600080fd5b34801561021f57600080fd5b506102466004803603602081101561023657600080fd5b50356001600160a01b0316610812565b60408051918252519081900360200190f35b34801561026457600080fd5b506102466004803603602081101561027b57600080fd5b50356001600160a01b03166108a8565b61034f600480360360a08110156102a157600080fd5b6001600160a01b0382351691908101906040810160208201356401000000008111156102cc57600080fd5b8201836020820111156102de57600080fd5b8035906020019184600183028401116401000000008311171561030057600080fd5b91908080601f016020809104026020016040519081016040528093929190818152602001838380828437600092019190915250929550508235935050506020810135906040013560ff166108ba565b6040805160208082528351818301528351919283929083019185019080838360005b83811015610389578181015183820152602001610371565b50505050905090810190601f1680156103b65780820380516001836020036101000a031916815260200191505b509250505060405180910390f35b3480156103d057600080fd5b5061034f610bbd565b3480156103e557600080fd5b50610246610bda565b3480156103fa57600080fd5b50610246610be1565b34801561040f57600080fd5b5061043e6004803603604081101561042657600080fd5b506001600160a01b0381358116916020013516610bff565b005b34801561044c57600080fd5b50610246610d91565b34801561046157600080fd5b506102466004803603602081101561047857600080fd5b50356001600160a01b0316610d97565b34801561049457600080fd5b5061043e600480360360208110156104ab57600080fd5b5035610db2565b3480156104be57600080fd5b50610246610f8e565b3480156104d357600080fd5b50610246610f94565b3480156104e857600080fd5b50610246610f98565b3480156104fd57600080fd5b5061043e6004803603602081101561051457600080fd5b5035610f9e565b34801561052757600080fd5b5061043e6111ef565b34801561053c57600080fd5b506105456115dc565b604080516001600160a01b039092168252519081900360200190f35b34801561056d57600080fd5b506102466115eb565b34801561058257600080fd5b506102466115f1565b34801561059757600080fd5b50610246600480360360208110156105ae57600080fd5b50356001600160a01b03166115f7565b3480156105ca57600080fd5b50610246600480360360208110156105e157600080fd5b50356001600160a01b0316611612565b3480156105fd57600080fd5b50610545611624565b34801561061257600080fd5b50610246611633565b34801561062757600080fd5b5061064e6004803603602081101561063e57600080fd5b50356001600160a01b0316611639565b604080519115158252519081900360200190f35b34801561066e57600080fd5b5061024661164e565b34801561068357600080fd5b50610246611654565b34801561069857600080fd5b50610246600480360360208110156106af57600080fd5b50356001600160a01b0316611662565b3480156106cb57600080fd5b5061043e600480360360208110156106e257600080fd5b5035611674565b3480156106f557600080fd5b506102466004803603602081101561070c57600080fd5b50356001600160a01b031661184e565b34801561072857600080fd5b50610246611860565b34801561073d57600080fd5b50610246611866565b34801561075257600080fd5b506105456118c0565b34801561076757600080fd5b506102466118cf565b34801561077c57600080fd5b506102466004803603602081101561079357600080fd5b50356001600160a01b03166118d5565b3480156107af57600080fd5b5061043e6118e7565b3480156107c457600080fd5b5061024661192f565b3480156107d957600080fd5b5061043e600480360360a08110156107f057600080fd5b5080359060208101359060ff6040820135169060608101359060800135611935565b6001600160a01b03811660009081526011602090815260408083205460109092528220546108a2919061089690670de0b6b3a76400009061088a9061086590610859611866565b9063ffffffff611bf316565b6001600160a01b0388166000908152601760205260409020549063ffffffff611c5016565b9063ffffffff611b8c16565b9063ffffffff611cb016565b92915050565b60116020526000908152604090205481565b60606108c46122b1565b50604080516060810182526001600160a01b038816600081815260046020908152908490205483528201529081018690526109028782878787611d0a565b61093d5760405162461bcd60e51b81526004018080602001828103825260218152602001806123ab6021913960400191505060405180910390fd5b6001600160a01b03871660009081526004602052604090205461096790600163ffffffff611cb016565b6001600160a01b03881660008181526004602090815260408083209490945583519283523383820181905260609484018581528b51958501959095528a517f5845892132946850460bff5a0083f71031bc5bf9aadcd40f1de79423eac9b10b958d9592948d94919260808501928601918190849084905b838110156109f65781810151838201526020016109de565b50505050905090810190601f168015610a235780820380516001836020036101000a031916815260200191505b5094505050505060405180910390a160006060306001600160a01b0316888a6040516020018083805190602001908083835b60208310610a745780518252601f199092019160209182019101610a55565b6001836020036101000a038019825116818451168082178552505050505050905001826001600160a01b03166001600160a01b031660601b8152601401925050506040516020818303038152906040526040518082805190602001908083835b60208310610af35780518252601f199092019160209182019101610ad4565b6001836020036101000a0380198251168184511680821785525050505050509050019150506000604051808303816000865af19150503d8060008114610b55576040519150601f19603f3d011682016040523d82523d6000602084013e610b5a565b606091505b509150915081610bb1576040805162461bcd60e51b815260206004820152601c60248201527f46756e6374696f6e2063616c6c206e6f74207375636365737366756c00000000604482015290519081900360640190fd5b98975050505050505050565b604051806040016040528060018152602001603160f81b81525081565b6016545b90565b6000610bfa600954600854611c5090919063ffffffff16565b905090565b6000546001600160a01b03163314610c485760405162461bcd60e51b815260040180806020018281038252602a8152602001806123ff602a913960400191505060405180910390fd5b6006546001600160a01b0383811691161415610c955760405162461bcd60e51b81526004018080602001828103825260338152602001806123cc6033913960400191505060405180910390fd5b604080516370a0823160e01b815230600482015290516001600160a01b0384169163a9059cbb91849184916370a0823191602480820192602092909190829003018186803b158015610ce657600080fd5b505afa158015610cfa573d6000803e3d6000fd5b505050506040513d6020811015610d1057600080fd5b5051604080516001600160e01b031960e086901b1681526001600160a01b03909316600484015260248301919091525160448083019260209291908290030181600087803b158015610d6157600080fd5b505af1158015610d75573d6000803e3d6000fd5b505050506040513d6020811015610d8b57600080fd5b50505050565b60035490565b6001600160a01b031660009081526004602052604090205490565b60026001541415610df8576040805162461bcd60e51b815260206004820152601f60248201526000805160206122dc833981519152604482015290519081900360640190fd5b6002600155610e05611de7565b610e0d611866565b600f55610e18611654565b600e556001600160a01b03811615610e5f57610e3381610812565b6001600160a01b038216600090815260116020908152604080832093909355600f546010909152919020555b60008211610ea8576040805162461bcd60e51b8152602060048201526011602482015270043616e6e6f74207769746864726177203607c1b604482015290519081900360640190fd5b601654610ebb908363ffffffff611bf316565b601655610ef48260176000610ece611de7565b6001600160a01b031681526020810191909152604001600020549063ffffffff611bf316565b60176000610f00611de7565b6001600160a01b03168152602081019190915260400160002055610f3e610f25611de7565b6006546001600160a01b0316908463ffffffff611e4416565b610f46611de7565b6001600160a01b03167f7084f5476618d8e60b11ef0d7d3f06914655adb8793e28ff7f018d4c76d505d5836040518082815260200191505060405180910390a2505060018055565b600d5481565b4690565b60095481565b6000546001600160a01b03163314610fe75760405162461bcd60e51b815260040180806020018281038252602a8152602001806123ff602a913960400191505060405180910390fd5b6000610ff1611866565b600f55610ffc611654565b600e556001600160a01b038116156110435761101781610812565b6001600160a01b038216600090815260116020908152604080832093909355600f546010909152919020555b60075442106110685760095461106090839063ffffffff611b8c16565b6008556110b7565b60075460009061107e904263ffffffff611bf316565b9050600061109760085483611c5090919063ffffffff16565b6009549091506110b19061088a868463ffffffff611cb016565b60085550505b600554604080516370a0823160e01b815230600482015290516000926001600160a01b0316916370a08231916024808301926020929190829003018186803b15801561110257600080fd5b505afa158015611116573d6000803e3d6000fd5b505050506040513d602081101561112c57600080fd5b505160095490915061114590829063ffffffff611b8c16565b600854111561119b576040805162461bcd60e51b815260206004820152601860248201527f50726f76696465642072657761726420746f6f20686967680000000000000000604482015290519081900360640190fd5b42600e8190556009546111b4919063ffffffff611cb016565b6007556040805184815290517fde88a922e0d3b88b24e9623efeb464919c6bf9f66857a65e2bfcf2ce87a9433d9181900360200190a1505050565b60026001541415611235576040805162461bcd60e51b815260206004820152601f60248201526000805160206122dc833981519152604482015290519081900360640190fd5b6002600155611242611de7565b61124a611866565b600f55611255611654565b600e556001600160a01b0381161561129c5761127081610812565b6001600160a01b038216600090815260116020908152604080832093909355600f546010909152919020555b6007544210156112f3576040805162461bcd60e51b815260206004820152601760248201527f43616e6e6f7420636c61696d7320746f6b656e206e6f77000000000000000000604482015290519081900360640190fd5b60008060136000611302611de7565b6001600160a01b0316815260208101919091526040016000205490504281158015611353575060146000611334611de7565b6001600160a01b0316815260208101919091526040016000205460ff16155b1561143b5760116000611364611de7565b6001600160a01b03166001600160a01b031681526020019081526020016000205460126000611391611de7565b6001600160a01b03166001600160a01b03168152602001908152602001600020819055506114026113f5606461088a600c54601160006113cf611de7565b6001600160a01b031681526020810191909152604001600020549063ffffffff611c5016565b849063ffffffff611cb016565b92506114148360116000610ece611de7565b60156000611420611de7565b6001600160a01b031681526020810191909152604001600020555b600b548210156115d2576000611462600d5461088a60075485611bf390919063ffffffff16565b9050600b5481116114735780611477565b600b545b90506114b16114a4600b5461088a6114988786611bf390919063ffffffff16565b601560006113cf611de7565b859063ffffffff611cb016565b93508083146114e25780601360006114c7611de7565b6001600160a01b031681526020810191909152604001600020555b83156115d0576001601460006114f6611de7565b6001600160a01b03166001600160a01b0316815260200190815260200160002060006101000a81548160ff02191690831515021790555061153d8460116000610ece611de7565b60116000611549611de7565b6001600160a01b0316815260208101919091526040016000205561158761156e611de7565b6005546001600160a01b0316908663ffffffff611e4416565b61158f611de7565b6001600160a01b03167fe2403640ba68fed3a2f88b7557551d1993f84b99bb10ff833f0cf8db0c5e0486856040518082815260200191505060405180910390a25b505b5050600180555050565b6000546001600160a01b031681565b600c5481565b600b5481565b6001600160a01b031660009081526017602052604090205490565b60126020526000908152604090205481565b6006546001600160a01b031681565b600a5481565b60146020526000908152604090205460ff1681565b60085481565b6000610bfa42600754611e9b565b60106020526000908152604090205481565b600260015414156116ba576040805162461bcd60e51b815260206004820152601f60248201526000805160206122dc833981519152604482015290519081900360640190fd5b60026001556116c7611de7565b6116cf611866565b600f556116da611654565b600e556001600160a01b03811615611721576116f581610812565b6001600160a01b038216600090815260116020908152604080832093909355600f546010909152919020555b60008211611767576040805162461bcd60e51b815260206004820152600e60248201526d043616e6e6f74207374616b6520360941b604482015290519081900360640190fd5b60165461177a908363ffffffff611cb016565b6016556117b3826017600061178d611de7565b6001600160a01b031681526020810191909152604001600020549063ffffffff611cb016565b601760006117bf611de7565b6001600160a01b031681526020810191909152604001600020556117fe6117e4611de7565b6006546001600160a01b031690308563ffffffff611eb116565b611806611de7565b6001600160a01b03167f9e71bc8eea02a63969f509818f2dafb9254532904319f9dbda79b67bd34a5f3d836040518082815260200191505060405180910390a2505060018055565b60136020526000908152604090205481565b600e5481565b60006016546000141561187c5750600f54610bde565b610bfa6118b160165461088a670de0b6b3a76400006118a56008546118a5600e54610859611654565b9063ffffffff611c5016565b600f549063ffffffff611cb016565b6005546001600160a01b031681565b600f5481565b60156020526000908152604090205481565b61191c601760006118f6611de7565b6001600160a01b03166001600160a01b0316815260200190815260200160002054610db2565b600754421061192d5761192d6111ef565b565b60075481565b6002600154141561197b576040805162461bcd60e51b815260206004820152601f60248201526000805160206122dc833981519152604482015290519081900360640190fd5b6002600155611988611de7565b611990611866565b600f5561199b611654565b600e556001600160a01b038116156119e2576119b681610812565b6001600160a01b038216600090815260116020908152604080832093909355600f546010909152919020555b60008611611a28576040805162461bcd60e51b815260206004820152600e60248201526d043616e6e6f74207374616b6520360941b604482015290519081900360640190fd5b601654611a3b908763ffffffff611cb016565b601655611a4e866017600061178d611de7565b60176000611a5a611de7565b6001600160a01b0390811682526020820192909252604001600020919091556006541663d505accf611a8a611de7565b604080516001600160e01b031960e085901b1681526001600160a01b039092166004830152306024830152604482018a90526064820189905260ff8816608483015260a4820187905260c482018690525160e480830192600092919082900301818387803b158015611afb57600080fd5b505af1158015611b0f573d6000803e3d6000fd5b50505050611b38611b1e611de7565b6006546001600160a01b031690308963ffffffff611eb116565b611b40611de7565b6001600160a01b03167f9e71bc8eea02a63969f509818f2dafb9254532904319f9dbda79b67bd34a5f3d876040518082815260200191505060405180910390a250506001805550505050565b6000808211611be2576040805162461bcd60e51b815260206004820152601a60248201527f536166654d6174683a206469766973696f6e206279207a65726f000000000000604482015290519081900360640190fd5b818381611beb57fe5b049392505050565b600082821115611c4a576040805162461bcd60e51b815260206004820152601e60248201527f536166654d6174683a207375627472616374696f6e206f766572666c6f770000604482015290519081900360640190fd5b50900390565b600082611c5f575060006108a2565b82820282848281611c6c57fe5b0414611ca95760405162461bcd60e51b815260040180806020018281038252602181526020018061238a6021913960400191505060405180910390fd5b9392505050565b600082820183811015611ca9576040805162461bcd60e51b815260206004820152601b60248201527f536166654d6174683a206164646974696f6e206f766572666c6f770000000000604482015290519081900360640190fd5b60006001600160a01b038616611d515760405162461bcd60e51b81526004018080602001828103825260258152602001806123656025913960400191505060405180910390fd5b6001611d64611d5f87611f0b565b611f97565b83868660405160008152602001604052604051808581526020018460ff1660ff1681526020018381526020018281526020019450505050506020604051602081039080840390855afa158015611dbe573d6000803e3d6000fd5b505050602060405103516001600160a01b0316866001600160a01b031614905095945050505050565b600033301415611e3f5760606000368080601f0160208091040260200160405190810160405280939291908181526020018383808284376000920191909152505050503601516001600160a01b03169150610bde9050565b503390565b604080516001600160a01b038416602482015260448082018490528251808303909101815260649091019091526020810180516001600160e01b031663a9059cbb60e01b179052611e96908490611fe3565b505050565b6000818310611eaa5781611ca9565b5090919050565b604080516001600160a01b0380861660248301528416604482015260648082018490528251808303909101815260849091019091526020810180516001600160e01b03166323b872dd60e01b179052610d8b908590611fe3565b60006040518060800160405280604381526020016122fc60439139805190602001208260000151836020015184604001518051906020012060405160200180858152602001848152602001836001600160a01b03166001600160a01b03168152602001828152602001945050505050604051602081830303815290604052805190602001209050919050565b6000611fa1610d91565b82604051602001808061190160f01b81525060020183815260200182815260200192505050604051602081830303815290604052805190602001209050919050565b6060612038826040518060400160405280602081526020017f5361666545524332303a206c6f772d6c6576656c2063616c6c206661696c6564815250856001600160a01b03166120949092919063ffffffff16565b805190915015611e965780806020019051602081101561205757600080fd5b5051611e965760405162461bcd60e51b815260040180806020018281038252602a815260200180612429602a913960400191505060405180910390fd5b60606120a384846000856120ab565b949350505050565b6060824710156120ec5760405162461bcd60e51b815260040180806020018281038252602681526020018061233f6026913960400191505060405180910390fd5b6120f585612207565b612146576040805162461bcd60e51b815260206004820152601d60248201527f416464726573733a2063616c6c20746f206e6f6e2d636f6e7472616374000000604482015290519081900360640190fd5b60006060866001600160a01b031685876040518082805190602001908083835b602083106121855780518252601f199092019160209182019101612166565b6001836020036101000a03801982511681845116808217855250505050505090500191505060006040518083038185875af1925050503d80600081146121e7576040519150601f19603f3d011682016040523d82523d6000602084013e6121ec565b606091505b50915091506121fc82828661220d565b979650505050505050565b3b151590565b6060831561221c575081611ca9565b82511561222c5782518084602001fd5b8160405162461bcd60e51b81526004018080602001828103825283818151815260200191508051906020019080838360005b8381101561227657818101518382015260200161225e565b50505050905090810190601f1680156122a35780820380516001836020036101000a031916815260200191505b509250505060405180910390fd5b60405180606001604052806000815260200160006001600160a01b0316815260200160608152509056fe5265656e7472616e637947756172643a207265656e7472616e742063616c6c004d6574615472616e73616374696f6e2875696e74323536206e6f6e63652c616464726573732066726f6d2c62797465732066756e6374696f6e5369676e617475726529416464726573733a20696e73756666696369656e742062616c616e636520666f722063616c6c4e61746976654d6574615472616e73616374696f6e3a20494e56414c49445f5349474e4552536166654d6174683a206d756c7469706c69636174696f6e206f766572666c6f775369676e657220616e64207369676e617475726520646f206e6f74206d617463685374616b696e67526577617264733a20726573637565206f66207374616b696e6720746f6b656e206e6f7420616c6c6f77656443616c6c6572206973206e6f742052657761726473446973747269627574696f6e20636f6e74726163745361666545524332303a204552433230206f7065726174696f6e20646964206e6f742073756363656564a2646970667358221220b8f75c9b14a0d0e4467d005d9d77231e275cf1ac5817ae3f70c23631e933a3dc64736f6c634300060b0033454950373132446f6d61696e28737472696e67206e616d652c737472696e672076657273696f6e2c6164647265737320766572696679696e67436f6e74726163742c627974657333322073616c7429"
}