{
    "abi": [
        {
            "inputs": [
                {
                    "internalType": "address",
                    "name": "_rewardsToken",
                    "type": "address"
                },
                {
                    "internalType": "uint256",
                    "name": "_stakingRewardsGenesis",
                    "type": "uint256"
                }
            ],
            "stateMutability": "nonpayable",
            "type": "constructor"
        },
        {
            "anonymous": false,
            "inputs": [
                {
                    "indexed": true,
                    "internalType": "address",
                    "name": "previousOwner",
                    "type": "address"
                },
                {
                    "indexed": true,
                    "internalType": "address",
                    "name": "newOwner",
                    "type": "address"
                }
            ],
            "name": "OwnershipTransferred",
            "type": "event"
        },
        {
            "inputs": [
                {
                    "internalType": "address",
                    "name": "stakingToken",
                    "type": "address"
                },
                {
                    "internalType": "uint256",
                    "name": "rewardAmount",
                    "type": "uint256"
                }
            ],
            "name": "deploy",
            "outputs": [],
            "stateMutability": "nonpayable",
            "type": "function"
        },
        {
            "inputs": [
                {
                    "internalType": "address",
                    "name": "stakingToken",
                    "type": "address"
                }
            ],
            "name": "notifyRewardAmount",
            "outputs": [],
            "stateMutability": "nonpayable",
            "type": "function"
        },
        {
            "inputs": [],
            "name": "notifyRewardAmounts",
            "outputs": [],
            "stateMutability": "nonpayable",
            "type": "function"
        },
        {
            "inputs": [],
            "name": "owner",
            "outputs": [
                {
                    "internalType": "address",
                    "name": "",
                    "type": "address"
                }
            ],
            "stateMutability": "view",
            "type": "function"
        },
        {
            "inputs": [],
            "name": "renounceOwnership",
            "outputs": [],
            "stateMutability": "nonpayable",
            "type": "function"
        },
        {
            "inputs": [
                {
                    "internalType": "address",
                    "name": "tokenAddress",
                    "type": "address"
                }
            ],
            "name": "rescueFactoryFunds",
            "outputs": [],
            "stateMutability": "nonpayable",
            "type": "function"
        },
        {
            "inputs": [
                {
                    "internalType": "address",
                    "name": "stakingToken",
                    "type": "address"
                },
                {
                    "internalType": "address",
                    "name": "tokenAddress",
                    "type": "address"
                }
            ],
            "name": "rescueFunds",
            "outputs": [],
            "stateMutability": "nonpayable",
            "type": "function"
        },
        {
            "inputs": [],
            "name": "rewardsToken",
            "outputs": [
                {
                    "internalType": "address",
                    "name": "",
                    "type": "address"
                }
            ],
            "stateMutability": "view",
            "type": "function"
        },
        {
            "inputs": [],
            "name": "stakingRewardsGenesis",
            "outputs": [
                {
                    "internalType": "uint256",
                    "name": "",
                    "type": "uint256"
                }
            ],
            "stateMutability": "view",
            "type": "function"
        },
        {
            "inputs": [
                {
                    "internalType": "address",
                    "name": "",
                    "type": "address"
                }
            ],
            "name": "stakingRewardsInfoByStakingToken",
            "outputs": [
                {
                    "internalType": "address",
                    "name": "stakingRewards",
                    "type": "address"
                },
                {
                    "internalType": "uint256",
                    "name": "rewardAmount",
                    "type": "uint256"
                }
            ],
            "stateMutability": "view",
            "type": "function"
        },
        {
            "inputs": [
                {
                    "internalType": "uint256",
                    "name": "",
                    "type": "uint256"
                }
            ],
            "name": "stakingTokens",
            "outputs": [
                {
                    "internalType": "address",
                    "name": "",
                    "type": "address"
                }
            ],
            "stateMutability": "view",
            "type": "function"
        },
        {
            "inputs": [
                {
                    "internalType": "address",
                    "name": "newOwner",
                    "type": "address"
                }
            ],
            "name": "transferOwnership",
            "outputs": [],
            "stateMutability": "nonpayable",
            "type": "function"
        }
    ],
    "bytecode": "608060405234801561001057600080fd5b506040516130ff3803806130ff8339818101604052604081101561003357600080fd5b508051602090910151600061004f6001600160e01b0361010116565b600080546001600160a01b0319166001600160a01b0383169081178255604051929350917f8be0079c531659141344cd1fd0a4f28419497f9722a3daafe3b4186f6b6457e0908290a350428110156100d85760405162461bcd60e51b81526004018080602001828103825260348152602001806130cb6034913960400191505060405180910390fd5b600180546001600160a01b0319166001600160a01b039390931692909217909155600255610105565b3390565b612fb7806101146000396000f3fe60806040523480156200001157600080fd5b5060043610620000c45760003560e01c80638da5cb5b116200007b5780638da5cb5b14620001e6578063a0928c1114620001f0578063a441c332146200020c578063ae741d8d1462000235578063d1af0c7d146200023f578063f2fde38b146200024957620000c4565b80631ff9b6f214620000c9578063344e5e3414620000fc5780634956eaf014620001385780636cf8caf81462000167578063715018a614620001b357806381e1629814620001bd575b600080fd5b620000fa60048036036040811015620000e157600080fd5b506001600160a01b038135811691602001351662000272565b005b6200011c600480360360208110156200011457600080fd5b5035620003a7565b604080516001600160a01b039092168252519081900360200190f35b620000fa600480360360408110156200015057600080fd5b506001600160a01b038135169060200135620003cf565b62000190600480360360208110156200017f57600080fd5b50356001600160a01b031662000557565b604080516001600160a01b03909316835260208301919091528051918290030190f35b620000fa6200057c565b620000fa60048036036020811015620001d557600080fd5b50356001600160a01b03166200062e565b6200011c620007fa565b620001fa62000809565b60408051918252519081900360200190f35b620000fa600480360360208110156200022457600080fd5b50356001600160a01b03166200080f565b620000fa620009b4565b6200011c62000a3b565b620000fa600480360360208110156200026157600080fd5b50356001600160a01b031662000a4a565b6200027c62000b54565b6001600160a01b03166200028f620007fa565b6001600160a01b031614620002da576040805162461bcd60e51b8152602060048201819052602482015260008051602062002e78833981519152604482015290519081900360640190fd5b6001600160a01b0380831660009081526004602052604090208054909116620003355760405162461bcd60e51b815260040180806020018281038252603781526020018062002f4b6037913960400191505060405180910390fd5b805460408051630ffcdb7960e11b81526001600160a01b03858116600483015233602483015291519190921691631ff9b6f291604480830192600092919082900301818387803b1580156200038957600080fd5b505af11580156200039e573d6000803e3d6000fd5b50505050505050565b60038181548110620003b557fe5b6000918252602090912001546001600160a01b0316905081565b620003d962000b54565b6001600160a01b0316620003ec620007fa565b6001600160a01b03161462000437576040805162461bcd60e51b8152602060048201819052602482015260008051602062002e78833981519152604482015290519081900360640190fd5b6001600160a01b038083166000908152600460205260409020805490911615620004935760405162461bcd60e51b815260040180806020018281038252602f81526020018062002e49602f913960400191505060405180910390fd5b60015460405130916001600160a01b0316908590620004b29062000b58565b6001600160a01b03938416815291831660208301529091166040808301919091525190819003606001906000f080158015620004f2573d6000803e3d6000fd5b5081546001600160a01b03199081166001600160a01b039283161783556001928301939093556003805492830181556000527fc2575a0e9e593c00f959f8c92f12db2869c3395a3b0502d05e2516446f71f85b90910180549092169216919091179055565b600460205260009081526040902080546001909101546001600160a01b039091169082565b6200058662000b54565b6001600160a01b031662000599620007fa565b6001600160a01b031614620005e4576040805162461bcd60e51b8152602060048201819052602482015260008051602062002e78833981519152604482015290519081900360640190fd5b600080546040516001600160a01b03909116907f8be0079c531659141344cd1fd0a4f28419497f9722a3daafe3b4186f6b6457e0908390a3600080546001600160a01b0319169055565b600254421015620006715760405162461bcd60e51b815260040180806020018281038252603481526020018062002f176034913960400191505060405180910390fd5b6001600160a01b0380821660009081526004602052604090208054909116620006cc5760405162461bcd60e51b815260040180806020018281038252603781526020018062002f4b6037913960400191505060405180910390fd5b600181015415620007f65760018082018054600091829055915483546040805163a9059cbb60e01b81526001600160a01b039283166004820152602481018690529051919092169263a9059cbb92604480820193602093909283900390910190829087803b1580156200073e57600080fd5b505af115801562000753573d6000803e3d6000fd5b505050506040513d60208110156200076a57600080fd5b5051620007a95760405162461bcd60e51b815260040180806020018281038252603a81526020018062002edd603a913960400191505060405180910390fd5b815460408051633c6b16ab60e01b81526004810184905290516001600160a01b0390921691633c6b16ab9160248082019260009290919082900301818387803b1580156200038957600080fd5b5050565b6000546001600160a01b031690565b60025481565b6200081962000b54565b6001600160a01b03166200082c620007fa565b6001600160a01b03161462000877576040805162461bcd60e51b8152602060048201819052602482015260008051602062002e78833981519152604482015290519081900360640190fd5b604080516370a0823160e01b8152306004820152905182916000916001600160a01b038416916370a08231916024808301926020929190829003018186803b158015620008c357600080fd5b505afa158015620008d8573d6000803e3d6000fd5b505050506040513d6020811015620008ef57600080fd5b5051905080620009315760405162461bcd60e51b815260040180806020018281038252602281526020018062002e276022913960400191505060405180910390fd5b6040805163a9059cbb60e01b81523360048201526024810183905290516001600160a01b0384169163a9059cbb9160448083019260209291908290030181600087803b1580156200098157600080fd5b505af115801562000996573d6000803e3d6000fd5b505050506040513d6020811015620009ad57600080fd5b5050505050565b600354620009f45760405162461bcd60e51b815260040180806020018281038252604581526020018062002e986045913960600191505060405180910390fd5b60005b60035481101562000a385762000a2f6003828154811062000a1457fe5b6000918252602090912001546001600160a01b03166200062e565b600101620009f7565b50565b6001546001600160a01b031681565b62000a5462000b54565b6001600160a01b031662000a67620007fa565b6001600160a01b03161462000ab2576040805162461bcd60e51b8152602060048201819052602482015260008051602062002e78833981519152604482015290519081900360640190fd5b6001600160a01b03811662000af95760405162461bcd60e51b815260040180806020018281038252602681526020018062002e016026913960400191505060405180910390fd5b600080546040516001600160a01b03808516939216917f8be0079c531659141344cd1fd0a4f28419497f9722a3daafe3b4186f6b6457e091a3600080546001600160a01b0319166001600160a01b0392909216919091179055565b3390565b61229a8062000b678339019056fe60806040526002805460ff1916905560006007819055600855624f1a006009553480156200002c57600080fd5b506040516200229a3803806200229a833981810160405260608110156200005257600080fd5b50805160208083015160409384015160018055600580546001600160a01b038085166001600160a01b0319928316179092556006805483851690831617905560008054928716929091169190911790558451808601909552600c85526b42617369634661726d73563160a01b928501929092529192620000db906001600160e01b03620000e416565b5050506200021e565b60025460ff16156200012e576040805162461bcd60e51b815260206004820152600e60248201526d185b1c9958591e481a5b9a5d195960921b604482015290519081900360640190fd5b62000142816001600160e01b036200015216565b506002805460ff19166001179055565b6040518060800160405280604f81526020016200224b604f913980516020918201208251838301206040805180820190915260018152603160f81b930192909252907fc89efdaa54c0f20c7adf612882df0950f5a951637e0307cdcb4c672f298b8bc630620001c96001600160e01b036200021a16565b604080516020808201979097528082019590955260608501939093526001600160a01b03909116608084015260a0808401919091528151808403909101815260c09092019052805191012060035550565b4690565b61201d806200022e6000396000f3fe6080604052600436106101b65760003560e01c80633fc6df6e116100ec578063c8f33c911161008a578063df136d6511610064578063df136d6514610602578063e9fad8ee14610617578063ebe2b12b1461062c578063ecd9ba8214610641576101b6565b8063c8f33c91146105c3578063cd3daf9d146105d8578063d1af0c7d146105ed576101b6565b80637b0a47ee116100c65780637b0a47ee1461053c57806380faa57d146105515780638b87634714610566578063a694fc3a14610599576101b6565b80633fc6df6e146104c357806370a08231146104f457806372f702f314610527576101b6565b806320379ee5116101595780633408e470116101335780633408e4701461045a578063386a95251461046f5780633c6b16ab146104845780633d18b912146104ae576101b6565b806320379ee5146103e85780632d0335ab146103fd5780632e1a7d4d14610430576101b6565b80630f7e5970116101955780630f7e59701461036c57806318160ddd146103815780631c1f78eb146103965780631ff9b6f2146103ab576101b6565b80628cc262146101bb5780630700037d146102005780630c53c51c14610233575b600080fd5b3480156101c757600080fd5b506101ee600480360360208110156101de57600080fd5b50356001600160a01b0316610686565b60408051918252519081900360200190f35b34801561020c57600080fd5b506101ee6004803603602081101561022357600080fd5b50356001600160a01b031661071c565b6102f7600480360360a081101561024957600080fd5b6001600160a01b03823516919081019060408101602082013564010000000081111561027457600080fd5b82018360208201111561028657600080fd5b803590602001918460018302840111640100000000831117156102a857600080fd5b91908080601f016020809104026020016040519081016040528093929190818152602001838380828437600092019190915250929550508235935050506020810135906040013560ff1661072e565b6040805160208082528351818301528351919283929083019185019080838360005b83811015610331578181015183820152602001610319565b50505050905090810190601f16801561035e5780820380516001836020036101000a031916815260200191505b509250505060405180910390f35b34801561037857600080fd5b506102f7610a31565b34801561038d57600080fd5b506101ee610a4e565b3480156103a257600080fd5b506101ee610a55565b3480156103b757600080fd5b506103e6600480360360408110156103ce57600080fd5b506001600160a01b0381358116916020013516610a73565b005b3480156103f457600080fd5b506101ee610c05565b34801561040957600080fd5b506101ee6004803603602081101561042057600080fd5b50356001600160a01b0316610c0b565b34801561043c57600080fd5b506103e66004803603602081101561045357600080fd5b5035610c26565b34801561046657600080fd5b506101ee610e02565b34801561047b57600080fd5b506101ee610e06565b34801561049057600080fd5b506103e6600480360360208110156104a757600080fd5b5035610e0c565b3480156104ba57600080fd5b506103e661105d565b3480156104cf57600080fd5b506104d86111d7565b604080516001600160a01b039092168252519081900360200190f35b34801561050057600080fd5b506101ee6004803603602081101561051757600080fd5b50356001600160a01b03166111e6565b34801561053357600080fd5b506104d8611201565b34801561054857600080fd5b506101ee611210565b34801561055d57600080fd5b506101ee611216565b34801561057257600080fd5b506101ee6004803603602081101561058957600080fd5b50356001600160a01b0316611224565b3480156105a557600080fd5b506103e6600480360360208110156105bc57600080fd5b5035611236565b3480156105cf57600080fd5b506101ee611410565b3480156105e457600080fd5b506101ee611416565b3480156105f957600080fd5b506104d8611470565b34801561060e57600080fd5b506101ee61147f565b34801561062357600080fd5b506103e6611485565b34801561063857600080fd5b506101ee6114c4565b34801561064d57600080fd5b506103e6600480360360a081101561066457600080fd5b5080359060208101359060ff60408201351690606081013590608001356114ca565b6001600160a01b0381166000908152600d6020908152604080832054600c909252822054610716919061070a90670de0b6b3a7640000906106fe906106d9906106cd611416565b9063ffffffff61172116565b6001600160a01b0388166000908152600f60205260409020549063ffffffff61177e16565b9063ffffffff6117de16565b9063ffffffff61184516565b92915050565b600d6020526000908152604090205481565b6060610738611e46565b50604080516060810182526001600160a01b03881660008181526004602090815290849020548352820152908101869052610776878287878761189f565b6107b15760405162461bcd60e51b8152600401808060200182810382526021815260200180611f406021913960400191505060405180910390fd5b6001600160a01b0387166000908152600460205260409020546107db90600163ffffffff61184516565b6001600160a01b03881660008181526004602090815260408083209490945583519283523383820181905260609484018581528b51958501959095528a517f5845892132946850460bff5a0083f71031bc5bf9aadcd40f1de79423eac9b10b958d9592948d94919260808501928601918190849084905b8381101561086a578181015183820152602001610852565b50505050905090810190601f1680156108975780820380516001836020036101000a031916815260200191505b5094505050505060405180910390a160006060306001600160a01b0316888a6040516020018083805190602001908083835b602083106108e85780518252601f1990920191602091820191016108c9565b6001836020036101000a038019825116818451168082178552505050505050905001826001600160a01b03166001600160a01b031660601b8152601401925050506040516020818303038152906040526040518082805190602001908083835b602083106109675780518252601f199092019160209182019101610948565b6001836020036101000a0380198251168184511680821785525050505050509050019150506000604051808303816000865af19150503d80600081146109c9576040519150601f19603f3d011682016040523d82523d6000602084013e6109ce565b606091505b509150915081610a25576040805162461bcd60e51b815260206004820152601c60248201527f46756e6374696f6e2063616c6c206e6f74207375636365737366756c00000000604482015290519081900360640190fd5b98975050505050505050565b604051806040016040528060018152602001603160f81b81525081565b600e545b90565b6000610a6e60095460085461177e90919063ffffffff16565b905090565b6000546001600160a01b03163314610abc5760405162461bcd60e51b815260040180806020018281038252602a815260200180611f94602a913960400191505060405180910390fd5b6006546001600160a01b0383811691161415610b095760405162461bcd60e51b8152600401808060200182810382526033815260200180611f616033913960400191505060405180910390fd5b604080516370a0823160e01b815230600482015290516001600160a01b0384169163a9059cbb91849184916370a0823191602480820192602092909190829003018186803b158015610b5a57600080fd5b505afa158015610b6e573d6000803e3d6000fd5b505050506040513d6020811015610b8457600080fd5b5051604080516001600160e01b031960e086901b1681526001600160a01b03909316600484015260248301919091525160448083019260209291908290030181600087803b158015610bd557600080fd5b505af1158015610be9573d6000803e3d6000fd5b505050506040513d6020811015610bff57600080fd5b50505050565b60035490565b6001600160a01b031660009081526004602052604090205490565b60026001541415610c6c576040805162461bcd60e51b815260206004820152601f6024820152600080516020611e71833981519152604482015290519081900360640190fd5b6002600155610c7961197c565b610c81611416565b600b55610c8c611216565b600a556001600160a01b03811615610cd357610ca781610686565b6001600160a01b0382166000908152600d6020908152604080832093909355600b54600c909152919020555b60008211610d1c576040805162461bcd60e51b8152602060048201526011602482015270043616e6e6f74207769746864726177203607c1b604482015290519081900360640190fd5b600e54610d2f908363ffffffff61172116565b600e55610d6882600f6000610d4261197c565b6001600160a01b031681526020810191909152604001600020549063ffffffff61172116565b600f6000610d7461197c565b6001600160a01b03168152602081019190915260400160002055610db2610d9961197c565b6006546001600160a01b0316908463ffffffff6119d916565b610dba61197c565b6001600160a01b03167f7084f5476618d8e60b11ef0d7d3f06914655adb8793e28ff7f018d4c76d505d5836040518082815260200191505060405180910390a2505060018055565b4690565b60095481565b6000546001600160a01b03163314610e555760405162461bcd60e51b815260040180806020018281038252602a815260200180611f94602a913960400191505060405180910390fd5b6000610e5f611416565b600b55610e6a611216565b600a556001600160a01b03811615610eb157610e8581610686565b6001600160a01b0382166000908152600d6020908152604080832093909355600b54600c909152919020555b6007544210610ed657600954610ece90839063ffffffff6117de16565b600855610f25565b600754600090610eec904263ffffffff61172116565b90506000610f056008548361177e90919063ffffffff16565b600954909150610f1f906106fe868463ffffffff61184516565b60085550505b600554604080516370a0823160e01b815230600482015290516000926001600160a01b0316916370a08231916024808301926020929190829003018186803b158015610f7057600080fd5b505afa158015610f84573d6000803e3d6000fd5b505050506040513d6020811015610f9a57600080fd5b5051600954909150610fb390829063ffffffff6117de16565b6008541115611009576040805162461bcd60e51b815260206004820152601860248201527f50726f76696465642072657761726420746f6f20686967680000000000000000604482015290519081900360640190fd5b42600a819055600954611022919063ffffffff61184516565b6007556040805184815290517fde88a922e0d3b88b24e9623efeb464919c6bf9f66857a65e2bfcf2ce87a9433d9181900360200190a1505050565b600260015414156110a3576040805162461bcd60e51b815260206004820152601f6024820152600080516020611e71833981519152604482015290519081900360640190fd5b60026001556110b061197c565b6110b8611416565b600b556110c3611216565b600a556001600160a01b0381161561110a576110de81610686565b6001600160a01b0382166000908152600d6020908152604080832093909355600b54600c909152919020555b6000600d600061111861197c565b6001600160a01b03168152602081019190915260400160002054905080156111cf576000600d600061114861197c565b6001600160a01b0316815260208101919091526040016000205561118661116d61197c565b6005546001600160a01b0316908363ffffffff6119d916565b61118e61197c565b6001600160a01b03167fe2403640ba68fed3a2f88b7557551d1993f84b99bb10ff833f0cf8db0c5e0486826040518082815260200191505060405180910390a25b505060018055565b6000546001600160a01b031681565b6001600160a01b03166000908152600f602052604090205490565b6006546001600160a01b031681565b60085481565b6000610a6e42600754611a30565b600c6020526000908152604090205481565b6002600154141561127c576040805162461bcd60e51b815260206004820152601f6024820152600080516020611e71833981519152604482015290519081900360640190fd5b600260015561128961197c565b611291611416565b600b5561129c611216565b600a556001600160a01b038116156112e3576112b781610686565b6001600160a01b0382166000908152600d6020908152604080832093909355600b54600c909152919020555b60008211611329576040805162461bcd60e51b815260206004820152600e60248201526d043616e6e6f74207374616b6520360941b604482015290519081900360640190fd5b600e5461133c908363ffffffff61184516565b600e5561137582600f600061134f61197c565b6001600160a01b031681526020810191909152604001600020549063ffffffff61184516565b600f600061138161197c565b6001600160a01b031681526020810191909152604001600020556113c06113a661197c565b6006546001600160a01b031690308563ffffffff611a4616565b6113c861197c565b6001600160a01b03167f9e71bc8eea02a63969f509818f2dafb9254532904319f9dbda79b67bd34a5f3d836040518082815260200191505060405180910390a2505060018055565b600a5481565b6000600e546000141561142c5750600b54610a52565b610a6e611461600e546106fe670de0b6b3a7640000611455600854611455600a546106cd611216565b9063ffffffff61177e16565b600b549063ffffffff61184516565b6005546001600160a01b031681565b600b5481565b6114ba600f600061149461197c565b6001600160a01b03166001600160a01b0316815260200190815260200160002054610c26565b6114c261105d565b565b60075481565b60026001541415611510576040805162461bcd60e51b815260206004820152601f6024820152600080516020611e71833981519152604482015290519081900360640190fd5b600260015561151d61197c565b611525611416565b600b55611530611216565b600a556001600160a01b038116156115775761154b81610686565b6001600160a01b0382166000908152600d6020908152604080832093909355600b54600c909152919020555b600086116115bd576040805162461bcd60e51b815260206004820152600e60248201526d043616e6e6f74207374616b6520360941b604482015290519081900360640190fd5b600e546115d0908763ffffffff61184516565b600e556115e386600f600061134f61197c565b600f60006115ef61197c565b6001600160a01b0390811682526020820192909252604001600020919091556006541663d505accf61161f61197c565b604080516001600160e01b031960e085901b1681526001600160a01b039092166004830152306024830152604482018a90526064820189905260ff8816608483015260a4820187905260c482018690525160e480830192600092919082900301818387803b15801561169057600080fd5b505af11580156116a4573d6000803e3d6000fd5b505050506116cd6116b361197c565b6006546001600160a01b031690308963ffffffff611a4616565b6116d561197c565b6001600160a01b03167f9e71bc8eea02a63969f509818f2dafb9254532904319f9dbda79b67bd34a5f3d876040518082815260200191505060405180910390a250506001805550505050565b600082821115611778576040805162461bcd60e51b815260206004820152601e60248201527f536166654d6174683a207375627472616374696f6e206f766572666c6f770000604482015290519081900360640190fd5b50900390565b60008261178d57506000610716565b8282028284828161179a57fe5b04146117d75760405162461bcd60e51b8152600401808060200182810382526021815260200180611f1f6021913960400191505060405180910390fd5b9392505050565b6000808211611834576040805162461bcd60e51b815260206004820152601a60248201527f536166654d6174683a206469766973696f6e206279207a65726f000000000000604482015290519081900360640190fd5b81838161183d57fe5b049392505050565b6000828201838110156117d7576040805162461bcd60e51b815260206004820152601b60248201527f536166654d6174683a206164646974696f6e206f766572666c6f770000000000604482015290519081900360640190fd5b60006001600160a01b0386166118e65760405162461bcd60e51b8152600401808060200182810382526025815260200180611efa6025913960400191505060405180910390fd5b60016118f96118f487611aa0565b611b2c565b83868660405160008152602001604052604051808581526020018460ff1660ff1681526020018381526020018281526020019450505050506020604051602081039080840390855afa158015611953573d6000803e3d6000fd5b505050602060405103516001600160a01b0316866001600160a01b031614905095945050505050565b6000333014156119d45760606000368080601f0160208091040260200160405190810160405280939291908181526020018383808284376000920191909152505050503601516001600160a01b03169150610a529050565b503390565b604080516001600160a01b038416602482015260448082018490528251808303909101815260649091019091526020810180516001600160e01b031663a9059cbb60e01b179052611a2b908490611b78565b505050565b6000818310611a3f57816117d7565b5090919050565b604080516001600160a01b0380861660248301528416604482015260648082018490528251808303909101815260849091019091526020810180516001600160e01b03166323b872dd60e01b179052610bff908590611b78565b6000604051806080016040528060438152602001611e9160439139805190602001208260000151836020015184604001518051906020012060405160200180858152602001848152602001836001600160a01b03166001600160a01b03168152602001828152602001945050505050604051602081830303815290604052805190602001209050919050565b6000611b36610c05565b82604051602001808061190160f01b81525060020183815260200182815260200192505050604051602081830303815290604052805190602001209050919050565b6060611bcd826040518060400160405280602081526020017f5361666545524332303a206c6f772d6c6576656c2063616c6c206661696c6564815250856001600160a01b0316611c299092919063ffffffff16565b805190915015611a2b57808060200190516020811015611bec57600080fd5b5051611a2b5760405162461bcd60e51b815260040180806020018281038252602a815260200180611fbe602a913960400191505060405180910390fd5b6060611c388484600085611c40565b949350505050565b606082471015611c815760405162461bcd60e51b8152600401808060200182810382526026815260200180611ed46026913960400191505060405180910390fd5b611c8a85611d9c565b611cdb576040805162461bcd60e51b815260206004820152601d60248201527f416464726573733a2063616c6c20746f206e6f6e2d636f6e7472616374000000604482015290519081900360640190fd5b60006060866001600160a01b031685876040518082805190602001908083835b60208310611d1a5780518252601f199092019160209182019101611cfb565b6001836020036101000a03801982511681845116808217855250505050505090500191505060006040518083038185875af1925050503d8060008114611d7c576040519150601f19603f3d011682016040523d82523d6000602084013e611d81565b606091505b5091509150611d91828286611da2565b979650505050505050565b3b151590565b60608315611db15750816117d7565b825115611dc15782518084602001fd5b8160405162461bcd60e51b81526004018080602001828103825283818151815260200191508051906020019080838360005b83811015611e0b578181015183820152602001611df3565b50505050905090810190601f168015611e385780820380516001836020036101000a031916815260200191505b509250505060405180910390fd5b60405180606001604052806000815260200160006001600160a01b0316815260200160608152509056fe5265656e7472616e637947756172643a207265656e7472616e742063616c6c004d6574615472616e73616374696f6e2875696e74323536206e6f6e63652c616464726573732066726f6d2c62797465732066756e6374696f6e5369676e617475726529416464726573733a20696e73756666696369656e742062616c616e636520666f722063616c6c4e61746976654d6574615472616e73616374696f6e3a20494e56414c49445f5349474e4552536166654d6174683a206d756c7469706c69636174696f6e206f766572666c6f775369676e657220616e64207369676e617475726520646f206e6f74206d617463685374616b696e67526577617264733a20726573637565206f66207374616b696e6720746f6b656e206e6f7420616c6c6f77656443616c6c6572206973206e6f742052657761726473446973747269627574696f6e20636f6e74726163745361666545524332303a204552433230206f7065726174696f6e20646964206e6f742073756363656564a26469706673582212202eca4799c5d31a700b945841e5eaca1b2dd02b725483909705d4abbc24d861a164736f6c634300060b0033454950373132446f6d61696e28737472696e67206e616d652c737472696e672076657273696f6e2c6164647265737320766572696679696e67436f6e74726163742c627974657333322073616c74294f776e61626c653a206e6577206f776e657220697320746865207a65726f20616464726573734e6f2062616c616e636520666f7220676976656e20746f6b656e20616464726573735374616b696e6752657761726473466163746f72793a3a6465706c6f793a20616c7265616479206465706c6f7965644f776e61626c653a2063616c6c6572206973206e6f7420746865206f776e65725374616b696e6752657761726473466163746f72793a3a6e6f74696679526577617264416d6f756e74733a2063616c6c6564206265666f726520616e79206465706c6f79735374616b696e6752657761726473466163746f72793a3a6e6f74696679526577617264416d6f756e743a207472616e73666572206661696c65645374616b696e6752657761726473466163746f72793a3a6e6f74696679526577617264416d6f756e743a206e6f742072656164795374616b696e6752657761726473466163746f72793a3a6e6f74696679526577617264416d6f756e743a206e6f74206465706c6f796564a264697066735822122095d682eb860d2583dff6eb955855439b8e5b5b9ead1382e433aceb24ded7ce2964736f6c634300060b00335374616b696e6752657761726473466163746f72793a3a636f6e7374727563746f723a2067656e6573697320746f6f20736f6f6e"
}