{
    "abi": [
        {
            "inputs": [
                {
                    "internalType": "uint256",
                    "name": "_stakingRewardsGenesis",
                    "type": "uint256"
                }
            ],
            "stateMutability": "nonpayable",
            "type": "constructor"
        },
        {
            "anonymous": false,
            "inputs": [
                {
                    "indexed": true,
                    "internalType": "address",
                    "name": "previousOwner",
                    "type": "address"
                },
                {
                    "indexed": true,
                    "internalType": "address",
                    "name": "newOwner",
                    "type": "address"
                }
            ],
            "name": "OwnershipTransferred",
            "type": "event"
        },
        {
            "inputs": [
                {
                    "internalType": "address",
                    "name": "stakingToken",
                    "type": "address"
                },
                {
                    "internalType": "address[]",
                    "name": "rewardTokens",
                    "type": "address[]"
                },
                {
                    "internalType": "uint256[]",
                    "name": "rewardAmounts",
                    "type": "uint256[]"
                },
                {
                    "internalType": "bool",
                    "name": "update",
                    "type": "bool"
                }
            ],
            "name": "deploy",
            "outputs": [],
            "stateMutability": "nonpayable",
            "type": "function"
        },
        {
            "inputs": [
                {
                    "internalType": "address",
                    "name": "stakingToken",
                    "type": "address"
                }
            ],
            "name": "notifyRewardAmount",
            "outputs": [],
            "stateMutability": "nonpayable",
            "type": "function"
        },
        {
            "inputs": [],
            "name": "notifyRewardAmounts",
            "outputs": [],
            "stateMutability": "nonpayable",
            "type": "function"
        },
        {
            "inputs": [],
            "name": "owner",
            "outputs": [
                {
                    "internalType": "address",
                    "name": "",
                    "type": "address"
                }
            ],
            "stateMutability": "view",
            "type": "function"
        },
        {
            "inputs": [],
            "name": "renounceOwnership",
            "outputs": [],
            "stateMutability": "nonpayable",
            "type": "function"
        },
        {
            "inputs": [
                {
                    "internalType": "address",
                    "name": "tokenAddress",
                    "type": "address"
                }
            ],
            "name": "rescueFactoryFunds",
            "outputs": [],
            "stateMutability": "nonpayable",
            "type": "function"
        },
        {
            "inputs": [
                {
                    "internalType": "address",
                    "name": "stakingToken",
                    "type": "address"
                },
                {
                    "internalType": "address",
                    "name": "tokenAddress",
                    "type": "address"
                }
            ],
            "name": "rescueFunds",
            "outputs": [],
            "stateMutability": "nonpayable",
            "type": "function"
        },
        {
            "inputs": [
                {
                    "internalType": "address",
                    "name": "",
                    "type": "address"
                }
            ],
            "name": "rewardTokenQuantities",
            "outputs": [
                {
                    "internalType": "uint256",
                    "name": "",
                    "type": "uint256"
                }
            ],
            "stateMutability": "view",
            "type": "function"
        },
        {
            "inputs": [],
            "name": "stakingRewardsGenesis",
            "outputs": [
                {
                    "internalType": "uint256",
                    "name": "",
                    "type": "uint256"
                }
            ],
            "stateMutability": "view",
            "type": "function"
        },
        {
            "inputs": [
                {
                    "internalType": "address",
                    "name": "stakingToken",
                    "type": "address"
                }
            ],
            "name": "stakingRewardsInfo",
            "outputs": [
                {
                    "internalType": "address",
                    "name": "",
                    "type": "address"
                },
                {
                    "internalType": "address[]",
                    "name": "",
                    "type": "address[]"
                },
                {
                    "internalType": "uint256[]",
                    "name": "",
                    "type": "uint256[]"
                }
            ],
            "stateMutability": "view",
            "type": "function"
        },
        {
            "inputs": [
                {
                    "internalType": "address",
                    "name": "",
                    "type": "address"
                }
            ],
            "name": "stakingRewardsInfoByStakingToken",
            "outputs": [
                {
                    "internalType": "address",
                    "name": "stakingRewards",
                    "type": "address"
                }
            ],
            "stateMutability": "view",
            "type": "function"
        },
        {
            "inputs": [
                {
                    "internalType": "uint256",
                    "name": "",
                    "type": "uint256"
                }
            ],
            "name": "stakingTokens",
            "outputs": [
                {
                    "internalType": "address",
                    "name": "",
                    "type": "address"
                }
            ],
            "stateMutability": "view",
            "type": "function"
        },
        {
            "inputs": [
                {
                    "internalType": "address",
                    "name": "newOwner",
                    "type": "address"
                }
            ],
            "name": "transferOwnership",
            "outputs": [],
            "stateMutability": "nonpayable",
            "type": "function"
        }
    ],
    "bytecode": "608060405234801561001057600080fd5b506040516142913803806142918339818101604052602081101561003357600080fd5b505160006100486001600160e01b036100d916565b600080546001600160a01b0319166001600160a01b0383169081178255604051929350917f8be0079c531659141344cd1fd0a4f28419497f9722a3daafe3b4186f6b6457e0908290a350428110156100d15760405162461bcd60e51b815260040180806020018281038252603481526020018061425d6034913960400191505060405180910390fd5b6001556100dd565b3390565b614171806100ec6000396000f3fe60806040523480156200001157600080fd5b5060043610620000e25760003560e01c80637bedaa191162000099578063a0928c11116200006f578063a0928c111462000418578063a441c3321462000422578063ae741d8d146200044b578063f2fde38b146200045557620000e2565b80637bedaa1914620003aa57806381e1629814620003e55780638da5cb5b146200040e57620000e2565b80631ff9b6f214620000e7578063344e5e34146200011a578063490c996e14620001565780636985af3214620002985780636cf8caf81462000377578063715018a614620003a0575b600080fd5b6200011860048036036040811015620000ff57600080fd5b506001600160a01b03813581169160200135166200047e565b005b6200013a600480360360208110156200013257600080fd5b5035620005b3565b604080516001600160a01b039092168252519081900360200190f35b62000118600480360360808110156200016e57600080fd5b6001600160a01b0382351691908101906040810160208201356401000000008111156200019a57600080fd5b820183602082011115620001ad57600080fd5b80359060200191846020830284011164010000000083111715620001d057600080fd5b91908080602002602001604051908101604052809392919081815260200183836020028082843760009201919091525092959493602081019350359150506401000000008111156200022157600080fd5b8201836020820111156200023457600080fd5b803590602001918460208302840111640100000000831117156200025757600080fd5b9190808060200260200160405190810160405280939291908181526020018383602002808284376000920191909152509295505050503515159050620005db565b620002c160048036036020811015620002b057600080fd5b50356001600160a01b0316620008f9565b60405180846001600160a01b03166001600160a01b031681526020018060200180602001838103835285818151815260200191508051906020019060200280838360005b838110156200031f57818101518382015260200162000305565b50505050905001838103825284818151815260200191508051906020019060200280838360005b838110156200036057818101518382015260200162000346565b505050509050019550505050505060405180910390f35b6200013a600480360360208110156200038f57600080fd5b50356001600160a01b0316620009e9565b6200011862000a04565b620003d360048036036020811015620003c257600080fd5b50356001600160a01b031662000ab6565b60408051918252519081900360200190f35b6200011860048036036020811015620003fd57600080fd5b50356001600160a01b031662000ac8565b6200013a62000d41565b620003d362000d50565b62000118600480360360208110156200043a57600080fd5b50356001600160a01b031662000d56565b6200011862000efb565b62000118600480360360208110156200046d57600080fd5b50356001600160a01b031662000f82565b620004886200108c565b6001600160a01b03166200049b62000d41565b6001600160a01b031614620004e6576040805162461bcd60e51b8152602060048201819052602482015260008051602062003fe5833981519152604482015290519081900360640190fd5b6001600160a01b0380831660009081526003602052604090208054909116620005415760405162461bcd60e51b8152600401808060200182810382526037815260200180620041056037913960400191505060405180910390fd5b805460408051630ffcdb7960e11b81526001600160a01b03858116600483015233602483015291519190921691631ff9b6f291604480830192600092919082900301818387803b1580156200059557600080fd5b505af1158015620005aa573d6000803e3d6000fd5b50505050505050565b60028181548110620005c157fe5b6000918252602090912001546001600160a01b0316905081565b620005e56200108c565b6001600160a01b0316620005f862000d41565b6001600160a01b03161462000643576040805162461bcd60e51b8152602060048201819052602482015260008051602062003fe5833981519152604482015290519081900360640190fd5b6001600160a01b038085166000908152600360205260409020805490911615806200066b5750815b620006a85760405162461bcd60e51b815260040180806020018281038252602f81526020018062003fb6602f913960400191505060405180910390fd5b816200075957308486604051620006bf9062001090565b6001600160a01b038085168252821660408201526060602080830182815285519284019290925284516080840191868101910280838360005b8381101562000712578181015183820152602001620006f8565b50505050905001945050505050604051809103906000f0801580156200073c573d6000803e3d6000fd5b5081546001600160a01b0319166001600160a01b03919091161781555b60005b84518160ff161015620008a1576000848260ff16815181106200077b57fe5b602002602001015111620007c15760405162461bcd60e51b815260040180806020018281038252604d81526020018062004084604d913960600191505060405180910390fd5b81600101858260ff1681518110620007d557fe5b60209081029190910181015182546001810184556000938452919092200180546001600160a01b0319166001600160a01b0390921691909117905583516002830190859060ff84169081106200082757fe5b602090810291909101810151825460018101845560009384529190922001558351849060ff83169081106200085857fe5b602002602001015160046000878460ff16815181106200087457fe5b6020908102919091018101516001600160a01b03168252810191909152604001600020556001016200075c565b5050600280546001810182556000919091527f405787fa12a823e0f2b7631cc41b3ba8828b3321ca811111fa75cd3aa3bb5ace0180546001600160a01b0319166001600160a01b039590951694909417909355505050565b6001600160a01b0380821660009081526003602090815260408083208054600182018054845181870281018701909552808552959660609687969495939091169391926002860192909184918301828280156200098057602002820191906000526020600020905b81546001600160a01b0316815260019091019060200180831162000961575b5050505050915080805480602002602001604051908101604052809291908181526020018280548015620009d457602002820191906000526020600020905b815481526020019060010190808311620009bf575b50505050509050935093509350509193909250565b6003602052600090815260409020546001600160a01b031681565b62000a0e6200108c565b6001600160a01b031662000a2162000d41565b6001600160a01b03161462000a6c576040805162461bcd60e51b8152602060048201819052602482015260008051602062003fe5833981519152604482015290519081900360640190fd5b600080546040516001600160a01b03909116907f8be0079c531659141344cd1fd0a4f28419497f9722a3daafe3b4186f6b6457e0908390a3600080546001600160a01b0319169055565b60046020526000908152604090205481565b60015442101562000b0b5760405162461bcd60e51b8152600401808060200182810382526034815260200180620040d16034913960400191505060405180910390fd5b6001600160a01b038082166000908152600360205260409020805490911662000b665760405162461bcd60e51b8152600401808060200182810382526037815260200180620041056037913960400191505060405180910390fd5b60005b600182015481101562000d3c57600082600201828154811062000b8857fe5b90600052602060002001549050600081111562000d3257600083600201838154811062000bb157fe5b906000526020600020018190555082600101828154811062000bcf57fe5b600091825260208083209091015485546040805163a9059cbb60e01b81526001600160a01b039283166004820152602481018790529051919092169363a9059cbb93604480850194919392918390030190829087803b15801562000c3257600080fd5b505af115801562000c47573d6000803e3d6000fd5b505050506040513d602081101562000c5e57600080fd5b505162000c9d5760405162461bcd60e51b815260040180806020018281038252603a8152602001806200404a603a913960400191505060405180910390fd5b82546001840180546001600160a01b039092169163b66503cf91908590811062000cc357fe5b6000918252602082200154604080516001600160e01b031960e086901b1681526001600160a01b03909216600483015260248201869052516044808301939282900301818387803b15801562000d1857600080fd5b505af115801562000d2d573d6000803e3d6000fd5b505050505b5060010162000b69565b505050565b6000546001600160a01b031690565b60015481565b62000d606200108c565b6001600160a01b031662000d7362000d41565b6001600160a01b03161462000dbe576040805162461bcd60e51b8152602060048201819052602482015260008051602062003fe5833981519152604482015290519081900360640190fd5b604080516370a0823160e01b8152306004820152905182916000916001600160a01b038416916370a08231916024808301926020929190829003018186803b15801562000e0a57600080fd5b505afa15801562000e1f573d6000803e3d6000fd5b505050506040513d602081101562000e3657600080fd5b505190508062000e785760405162461bcd60e51b815260040180806020018281038252602281526020018062003f946022913960400191505060405180910390fd5b6040805163a9059cbb60e01b81523360048201526024810183905290516001600160a01b0384169163a9059cbb9160448083019260209291908290030181600087803b15801562000ec857600080fd5b505af115801562000edd573d6000803e3d6000fd5b505050506040513d602081101562000ef457600080fd5b5050505050565b60025462000f3b5760405162461bcd60e51b8152600401808060200182810382526045815260200180620040056045913960600191505060405180910390fd5b60005b60025481101562000f7f5762000f766002828154811062000f5b57fe5b6000918252602090912001546001600160a01b031662000ac8565b60010162000f3e565b50565b62000f8c6200108c565b6001600160a01b031662000f9f62000d41565b6001600160a01b03161462000fea576040805162461bcd60e51b8152602060048201819052602482015260008051602062003fe5833981519152604482015290519081900360640190fd5b6001600160a01b038116620010315760405162461bcd60e51b815260040180806020018281038252602681526020018062003f6e6026913960400191505060405180910390fd5b600080546040516001600160a01b03808516939216917f8be0079c531659141344cd1fd0a4f28419497f9722a3daafe3b4186f6b6457e091a3600080546001600160a01b0319166001600160a01b0392909216919091179055565b3390565b612ecf806200109f8339019056fe60806040526002805460ff19169055600060065562278d006007553480156200002757600080fd5b5060405162002ecf38038062002ecf833981810160405260608110156200004d57600080fd5b8151602083018051604051929492938301929190846401000000008211156200007557600080fd5b9083019060208201858111156200008b57600080fd5b8251866020820283011164010000000082111715620000a957600080fd5b82525081516020918201928201910280838360005b83811015620000d8578181015183820152602001620000be565b505050509190910160405250602090810151600180558451909350620001059250600b91850190620002b0565b50600580546001600160a01b038084166001600160a01b031992831617909255600080549286169290911691909117905560408051808201909152600b81526a4475616c4661726d73563160a81b60208201526200016c906001600160e01b036200017516565b50505062000341565b60025460ff1615620001bf576040805162461bcd60e51b815260206004820152600e60248201526d185b1c9958591e481a5b9a5d195960921b604482015290519081900360640190fd5b620001d3816001600160e01b03620001e316565b506002805460ff19166001179055565b6040518060800160405280604f815260200162002e80604f913980516020918201208251838301206040805180820190915260018152603160f81b930192909252907fc89efdaa54c0f20c7adf612882df0950f5a951637e0307cdcb4c672f298b8bc6306200025a6001600160e01b03620002ab16565b604080516020808201979097528082019590955260608501939093526001600160a01b03909116608084015260a0808401919091528151808403909101815260c09092019052805191012060035550565b465b90565b82805482825590600052602060002090810192821562000308579160200282015b828111156200030857825182546001600160a01b0319166001600160a01b03909116178255602090920191600190910190620002d1565b50620003169291506200031a565b5090565b620002ad91905b80821115620003165780546001600160a01b031916815560010162000321565b612b2f80620003516000396000f3fe6080604052600436106101cd5760003560e01c806372f702f3116100f7578063c61c631011610095578063e9ffcb1b11610064578063e9ffcb1b14610772578063ebe2b12b146107a5578063ecd9ba82146107ba578063f1229777146107ff576101cd565b8063c61c63101461065f578063df136d651461070d578063e70b9e2714610722578063e9fad8ee1461075d576101cd565b8063a4f880f2116100d1578063a4f880f214610596578063a694fc3a146105c9578063b66503cf146105f3578063bcd110141461062c576101cd565b806372f702f3146105425780637bb7bed11461055757806380faa57d14610581576101cd565b80632d0335ab1161016f5780633d18b9121161013e5780633d18b9121461048e5780633fc6df6e146104a35780637035ab98146104d457806370a082311461050f576101cd565b80632d0335ab146104075780632e1a7d4d1461043a5780633408e47014610464578063386a952514610479576101cd565b80631ff9b6f2116101ab5780631ff9b6f21461034757806320379ee514610384578063211dc32d14610399578063292eee84146103d4576101cd565b80630c53c51c146101d25780630f7e59701461030b57806318160ddd14610320575b600080fd5b610296600480360360a08110156101e857600080fd5b6001600160a01b03823516919081019060408101602082013564010000000081111561021357600080fd5b82018360208201111561022557600080fd5b8035906020019184600183028401116401000000008311171561024757600080fd5b91908080601f016020809104026020016040519081016040528093929190818152602001838380828437600092019190915250929550508235935050506020810135906040013560ff16610832565b6040805160208082528351818301528351919283929083019185019080838360005b838110156102d05781810151838201526020016102b8565b50505050905090810190601f1680156102fd5780820380516001836020036101000a031916815260200191505b509250505060405180910390f35b34801561031757600080fd5b50610296610b35565b34801561032c57600080fd5b50610335610b52565b60408051918252519081900360200190f35b34801561035357600080fd5b506103826004803603604081101561036a57600080fd5b506001600160a01b0381358116916020013516610b58565b005b34801561039057600080fd5b50610335610cea565b3480156103a557600080fd5b50610335600480360360408110156103bc57600080fd5b506001600160a01b0381358116916020013516610cf0565b3480156103e057600080fd5b50610335600480360360208110156103f757600080fd5b50356001600160a01b0316610da3565b34801561041357600080fd5b506103356004803603602081101561042a57600080fd5b50356001600160a01b0316610db5565b34801561044657600080fd5b506103826004803603602081101561045d57600080fd5b5035610dd0565b34801561047057600080fd5b50610335611111565b34801561048557600080fd5b50610335611115565b34801561049a57600080fd5b5061038261111b565b3480156104af57600080fd5b506104b8611467565b604080516001600160a01b039092168252519081900360200190f35b3480156104e057600080fd5b50610335600480360360408110156104f757600080fd5b506001600160a01b0381358116916020013516611476565b34801561051b57600080fd5b506103356004803603602081101561053257600080fd5b50356001600160a01b0316611493565b34801561054e57600080fd5b506104b86114b2565b34801561056357600080fd5b506104b86004803603602081101561057a57600080fd5b50356114c1565b34801561058d57600080fd5b506103356114e8565b3480156105a257600080fd5b50610335600480360360208110156105b957600080fd5b50356001600160a01b03166114fb565b3480156105d557600080fd5b50610382600480360360208110156105ec57600080fd5b503561150d565b3480156105ff57600080fd5b506103826004803603604081101561061657600080fd5b506001600160a01b03813516906020013561187f565b34801561063857600080fd5b506103356004803603602081101561064f57600080fd5b50356001600160a01b0316611c40565b34801561066b57600080fd5b50610674611c6e565b604051808060200180602001838103835285818151815260200191508051906020019060200280838360005b838110156106b85781810151838201526020016106a0565b50505050905001838103825284818151815260200191508051906020019060200280838360005b838110156106f75781810151838201526020016106df565b5050505090500194505050505060405180910390f35b34801561071957600080fd5b50610335611d89565b34801561072e57600080fd5b506103356004803603604081101561074557600080fd5b506001600160a01b0381358116916020013516611d8f565b34801561076957600080fd5b50610382611dac565b34801561077e57600080fd5b506103356004803603602081101561079557600080fd5b50356001600160a01b0316611deb565b3480156107b157600080fd5b50610335611dfd565b3480156107c657600080fd5b50610382600480360360a08110156107dd57600080fd5b5080359060208101359060ff6040820135169060608101359060800135611e03565b34801561080b57600080fd5b506103356004803603602081101561082257600080fd5b50356001600160a01b031661218b565b606061083c612958565b50604080516060810182526001600160a01b0388166000818152600460209081529084902054835282015290810186905261087a8782878787612237565b6108b55760405162461bcd60e51b8152600401808060200182810382526021815260200180612a526021913960400191505060405180910390fd5b6001600160a01b0387166000908152600460205260409020546108df90600163ffffffff61231416565b6001600160a01b03881660008181526004602090815260408083209490945583519283523383820181905260609484018581528b51958501959095528a517f5845892132946850460bff5a0083f71031bc5bf9aadcd40f1de79423eac9b10b958d9592948d94919260808501928601918190849084905b8381101561096e578181015183820152602001610956565b50505050905090810190601f16801561099b5780820380516001836020036101000a031916815260200191505b5094505050505060405180910390a160006060306001600160a01b0316888a6040516020018083805190602001908083835b602083106109ec5780518252601f1990920191602091820191016109cd565b6001836020036101000a038019825116818451168082178552505050505050905001826001600160a01b03166001600160a01b031660601b8152601401925050506040516020818303038152906040526040518082805190602001908083835b60208310610a6b5780518252601f199092019160209182019101610a4c565b6001836020036101000a0380198251168184511680821785525050505050509050019150506000604051808303816000865af19150503d8060008114610acd576040519150601f19603f3d011682016040523d82523d6000602084013e610ad2565b606091505b509150915081610b29576040805162461bcd60e51b815260206004820152601c60248201527f46756e6374696f6e2063616c6c206e6f74207375636365737366756c00000000604482015290519081900360640190fd5b98975050505050505050565b604051806040016040528060018152602001603160f81b81525081565b60095490565b6000546001600160a01b03163314610ba15760405162461bcd60e51b815260040180806020018281038252602a815260200180612aa6602a913960400191505060405180910390fd5b6005546001600160a01b0383811691161415610bee5760405162461bcd60e51b8152600401808060200182810382526033815260200180612a736033913960400191505060405180910390fd5b604080516370a0823160e01b815230600482015290516001600160a01b0384169163a9059cbb91849184916370a0823191602480820192602092909190829003018186803b158015610c3f57600080fd5b505afa158015610c53573d6000803e3d6000fd5b505050506040513d6020811015610c6957600080fd5b5051604080516001600160e01b031960e086901b1681526001600160a01b03909316600484015260248301919091525160448083019260209291908290030181600087803b158015610cba57600080fd5b505af1158015610cce573d6000803e3d6000fd5b505050506040513d6020811015610ce457600080fd5b50505050565b60035490565b6001600160a01b038083166000818152601160209081526040808320948616808452948252808320549383526010825280832094835293905291822054610d9a9190610d8e90670de0b6b3a764000090610d8290610d5d90610d518961218b565b9063ffffffff61236e16565b6001600160a01b0389166000908152600e60205260409020549063ffffffff6123cb16565b9063ffffffff61242416565b9063ffffffff61231416565b90505b92915050565b600d6020526000908152604090205481565b6001600160a01b031660009081526004602052604090205490565b60026001541415610e16576040805162461bcd60e51b815260206004820152601f6024820152600080516020612983833981519152604482015290519081900360640190fd5b6002600155610e2361248b565b60005b600b54811015610fe157610e5a600b8281548110610e4057fe5b6000918252602090912001546001600160a01b031661218b565b600c6000600b8481548110610e6b57fe5b60009182526020808320909101546001600160a01b03168352820192909252604001902055610e986114e8565b600f6000600b8481548110610ea957fe5b60009182526020808320909101546001600160a01b039081168452908301939093526040909101902091909155821615610fd957610f0882600b8381548110610eee57fe5b6000918252602090912001546001600160a01b0316610cf0565b6001600160a01b0383166000908152601160205260408120600b805491929185908110610f3157fe5b60009182526020808320909101546001600160a01b03168352820192909252604001812091909155600b8054600c92919084908110610f6c57fe5b60009182526020808320909101546001600160a01b039081168452838201949094526040928301822054938616825260109052908120600b805491929185908110610fb357fe5b60009182526020808320909101546001600160a01b031683528201929092526040019020555b600101610e26565b506000821161102b576040805162461bcd60e51b8152602060048201526011602482015270043616e6e6f74207769746864726177203607c1b604482015290519081900360640190fd5b60095461103e908363ffffffff61236e16565b60095561107782600e600061105161248b565b6001600160a01b031681526020810191909152604001600020549063ffffffff61236e16565b600e600061108361248b565b6001600160a01b031681526020810191909152604001600020556110c16110a861248b565b6005546001600160a01b0316908463ffffffff6124e916565b6110c961248b565b6001600160a01b03167f7084f5476618d8e60b11ef0d7d3f06914655adb8793e28ff7f018d4c76d505d5836040518082815260200191505060405180910390a2505060018055565b4690565b60075481565b60026001541415611161576040805162461bcd60e51b815260206004820152601f6024820152600080516020612983833981519152604482015290519081900360640190fd5b600260015561116e61248b565b60005b600b548110156112f85761118b600b8281548110610e4057fe5b600c6000600b848154811061119c57fe5b60009182526020808320909101546001600160a01b031683528201929092526040019020556111c96114e8565b600f6000600b84815481106111da57fe5b60009182526020808320909101546001600160a01b0390811684529083019390935260409091019020919091558216156112f05761121f82600b8381548110610eee57fe5b6001600160a01b0383166000908152601160205260408120600b80549192918590811061124857fe5b60009182526020808320909101546001600160a01b03168352820192909252604001812091909155600b8054600c9291908490811061128357fe5b60009182526020808320909101546001600160a01b039081168452838201949094526040928301822054938616825260109052908120600b8054919291859081106112ca57fe5b60009182526020808320909101546001600160a01b031683528201929092526040019020555b600101611171565b5060005b600b5481101561145f5760006011600061131461248b565b6001600160a01b03166001600160a01b031681526020019081526020016000206000600b848154811061134357fe5b60009182526020808320909101546001600160a01b03168352820192909252604001902054905080156114565760006011600061137e61248b565b6001600160a01b03166001600160a01b031681526020019081526020016000206000600b85815481106113ad57fe5b60009182526020808320909101546001600160a01b0316835282019290925260400190205561140d6113dd61248b565b82600b85815481106113eb57fe5b6000918252602090912001546001600160a01b0316919063ffffffff6124e916565b61141561248b565b6001600160a01b03167fe2403640ba68fed3a2f88b7557551d1993f84b99bb10ff833f0cf8db0c5e0486826040518082815260200191505060405180910390a25b506001016112fc565b505060018055565b6000546001600160a01b031681565b601060209081526000928352604080842090915290825290205481565b6001600160a01b0381166000908152600e60205260409020545b919050565b6005546001600160a01b031681565b600b81815481106114ce57fe5b6000918252602090912001546001600160a01b0316905081565b60006114f642600654612540565b905090565b600c6020526000908152604090205481565b60026001541415611553576040805162461bcd60e51b815260206004820152601f6024820152600080516020612983833981519152604482015290519081900360640190fd5b600260015561156061248b565b60005b600b548110156116ea5761157d600b8281548110610e4057fe5b600c6000600b848154811061158e57fe5b60009182526020808320909101546001600160a01b031683528201929092526040019020556115bb6114e8565b600f6000600b84815481106115cc57fe5b60009182526020808320909101546001600160a01b0390811684529083019390935260409091019020919091558216156116e25761161182600b8381548110610eee57fe5b6001600160a01b0383166000908152601160205260408120600b80549192918590811061163a57fe5b60009182526020808320909101546001600160a01b03168352820192909252604001812091909155600b8054600c9291908490811061167557fe5b60009182526020808320909101546001600160a01b039081168452838201949094526040928301822054938616825260109052908120600b8054919291859081106116bc57fe5b60009182526020808320909101546001600160a01b031683528201929092526040019020555b600101611563565b5060008211611731576040805162461bcd60e51b815260206004820152600e60248201526d043616e6e6f74207374616b6520360941b604482015290519081900360640190fd5b600954611744908363ffffffff61231416565b600955600e600061175361248b565b6001600160a01b031681526020810191909152604001600020546117ae57600a61177b61248b565b81546001810183556000928352602090922090910180546001600160a01b0319166001600160a01b039092169190911790555b6117e482600e60006117be61248b565b6001600160a01b031681526020810191909152604001600020549063ffffffff61231416565b600e60006117f061248b565b6001600160a01b0316815260208101919091526040016000205561182f61181561248b565b6005546001600160a01b031690308563ffffffff61255616565b61183761248b565b6001600160a01b03167f9e71bc8eea02a63969f509818f2dafb9254532904319f9dbda79b67bd34a5f3d836040518082815260200191505060405180910390a2505060018055565b6000546001600160a01b031633146118c85760405162461bcd60e51b815260040180806020018281038252602a815260200180612aa6602a913960400191505060405180910390fd5b6000805b600b54811015611a53576118e6600b8281548110610e4057fe5b600c6000600b84815481106118f757fe5b60009182526020808320909101546001600160a01b031683528201929092526040019020556119246114e8565b600f6000600b848154811061193557fe5b60009182526020808320909101546001600160a01b039081168452908301939093526040909101902091909155821615611a4b5761197a82600b8381548110610eee57fe5b6001600160a01b0383166000908152601160205260408120600b8054919291859081106119a357fe5b60009182526020808320909101546001600160a01b03168352820192909252604001812091909155600b8054600c929190849081106119de57fe5b60009182526020808320909101546001600160a01b039081168452838201949094526040928301822054938616825260109052908120600b805491929185908110611a2557fe5b60009182526020808320909101546001600160a01b031683528201929092526040019020555b6001016118cc565b506001600160a01b0383166000908152600d60205260409020546006544210611aa957600754611a8a90849063ffffffff61242416565b9050611aa16007544261231490919063ffffffff16565b600655611aee565b600654600090611abf904263ffffffff61236e16565b90506000611ad3828463ffffffff6123cb16565b9050611ae982610d82878463ffffffff61231416565b925050505b604080516370a0823160e01b815230600482015290516000916001600160a01b038716916370a0823191602480820192602092909190829003018186803b158015611b3857600080fd5b505afa158015611b4c573d6000803e3d6000fd5b505050506040513d6020811015611b6257600080fd5b5051600654909150611b8b90611b7e904263ffffffff61236e16565b829063ffffffff61242416565b821115611bdf576040805162461bcd60e51b815260206004820152601860248201527f50726f76696465642072657761726420746f6f20686967680000000000000000604482015290519081900360640190fd5b6001600160a01b0385166000908152600f60209081526040808320429055600d825291829020849055815186815291517fde88a922e0d3b88b24e9623efeb464919c6bf9f66857a65e2bfcf2ce87a9433d9281900390910190a15050505050565b6007546001600160a01b0382166000908152600d60205260408120549091610d9d919063ffffffff6123cb16565b600a546060908190818167ffffffffffffffff81118015611c8e57600080fd5b50604051908082528060200260200182016040528015611cb8578160200160208202803683370190505b50905060005b600a54811015611d1f57600e6000600a8381548110611cd957fe5b60009182526020808320909101546001600160a01b031683528201929092526040019020548251839083908110611d0c57fe5b6020908102919091010152600101611cbe565b50600a8181805480602002602001604051908101604052809291908181526020018280548015611d7857602002820191906000526020600020905b81546001600160a01b03168152600190910190602001808311611d5a575b505050505091509350935050509091565b60085481565b601160209081526000928352604080842090915290825290205481565b611de1600e6000611dbb61248b565b6001600160a01b03166001600160a01b0316815260200190815260200160002054610dd0565b611de961111b565b565b600f6020526000908152604090205481565b60065481565b60026001541415611e49576040805162461bcd60e51b815260206004820152601f6024820152600080516020612983833981519152604482015290519081900360640190fd5b6002600155611e5661248b565b60005b600b54811015611fe057611e73600b8281548110610e4057fe5b600c6000600b8481548110611e8457fe5b60009182526020808320909101546001600160a01b03168352820192909252604001902055611eb16114e8565b600f6000600b8481548110611ec257fe5b60009182526020808320909101546001600160a01b039081168452908301939093526040909101902091909155821615611fd857611f0782600b8381548110610eee57fe5b6001600160a01b0383166000908152601160205260408120600b805491929185908110611f3057fe5b60009182526020808320909101546001600160a01b03168352820192909252604001812091909155600b8054600c92919084908110611f6b57fe5b60009182526020808320909101546001600160a01b039081168452838201949094526040928301822054938616825260109052908120600b805491929185908110611fb257fe5b60009182526020808320909101546001600160a01b031683528201929092526040019020555b600101611e59565b5060008611612027576040805162461bcd60e51b815260206004820152600e60248201526d043616e6e6f74207374616b6520360941b604482015290519081900360640190fd5b60095461203a908763ffffffff61231416565b60095561204d86600e60006117be61248b565b600e600061205961248b565b6001600160a01b0390811682526020820192909252604001600020919091556005541663d505accf61208961248b565b604080516001600160e01b031960e085901b1681526001600160a01b039092166004830152306024830152604482018a90526064820189905260ff8816608483015260a4820187905260c482018690525160e480830192600092919082900301818387803b1580156120fa57600080fd5b505af115801561210e573d6000803e3d6000fd5b5050505061213761211d61248b565b6005546001600160a01b031690308963ffffffff61255616565b61213f61248b565b6001600160a01b03167f9e71bc8eea02a63969f509818f2dafb9254532904319f9dbda79b67bd34a5f3d876040518082815260200191505060405180910390a250506001805550505050565b6000600954600014156121b757506001600160a01b0381166000908152600c60205260409020546114ad565b6009546001600160a01b0383166000908152600d6020908152604080832054600f90925290912054610d9d92612212929091610d8291670de0b6b3a76400009161220691908290610d516114e8565b9063ffffffff6123cb16565b6001600160a01b0384166000908152600c60205260409020549063ffffffff61231416565b60006001600160a01b03861661227e5760405162461bcd60e51b8152600401808060200182810382526025815260200180612a0c6025913960400191505060405180910390fd5b600161229161228c876125b0565b61263c565b83868660405160008152602001604052604051808581526020018460ff1660ff1681526020018381526020018281526020019450505050506020604051602081039080840390855afa1580156122eb573d6000803e3d6000fd5b505050602060405103516001600160a01b0316866001600160a01b031614905095945050505050565b600082820183811015610d9a576040805162461bcd60e51b815260206004820152601b60248201527f536166654d6174683a206164646974696f6e206f766572666c6f770000000000604482015290519081900360640190fd5b6000828211156123c5576040805162461bcd60e51b815260206004820152601e60248201527f536166654d6174683a207375627472616374696f6e206f766572666c6f770000604482015290519081900360640190fd5b50900390565b6000826123da57506000610d9d565b828202828482816123e757fe5b0414610d9a5760405162461bcd60e51b8152600401808060200182810382526021815260200180612a316021913960400191505060405180910390fd5b600080821161247a576040805162461bcd60e51b815260206004820152601a60248201527f536166654d6174683a206469766973696f6e206279207a65726f000000000000604482015290519081900360640190fd5b81838161248357fe5b049392505050565b6000333014156124e35760606000368080601f0160208091040260200160405190810160405280939291908181526020018383808284376000920191909152505050503601516001600160a01b031691506124e69050565b50335b90565b604080516001600160a01b038416602482015260448082018490528251808303909101815260649091019091526020810180516001600160e01b031663a9059cbb60e01b17905261253b908490612688565b505050565b600081831061254f5781610d9a565b5090919050565b604080516001600160a01b0380861660248301528416604482015260648082018490528251808303909101815260849091019091526020810180516001600160e01b03166323b872dd60e01b179052610ce4908590612688565b60006040518060800160405280604381526020016129a360439139805190602001208260000151836020015184604001518051906020012060405160200180858152602001848152602001836001600160a01b03166001600160a01b03168152602001828152602001945050505050604051602081830303815290604052805190602001209050919050565b6000612646610cea565b82604051602001808061190160f01b81525060020183815260200182815260200192505050604051602081830303815290604052805190602001209050919050565b60606126dd826040518060400160405280602081526020017f5361666545524332303a206c6f772d6c6576656c2063616c6c206661696c6564815250856001600160a01b03166127399092919063ffffffff16565b80519091501561253b578080602001905160208110156126fc57600080fd5b505161253b5760405162461bcd60e51b815260040180806020018281038252602a815260200180612ad0602a913960400191505060405180910390fd5b60606127488484600085612752565b90505b9392505050565b6060824710156127935760405162461bcd60e51b81526004018080602001828103825260268152602001806129e66026913960400191505060405180910390fd5b61279c856128ae565b6127ed576040805162461bcd60e51b815260206004820152601d60248201527f416464726573733a2063616c6c20746f206e6f6e2d636f6e7472616374000000604482015290519081900360640190fd5b60006060866001600160a01b031685876040518082805190602001908083835b6020831061282c5780518252601f19909201916020918201910161280d565b6001836020036101000a03801982511681845116808217855250505050505090500191505060006040518083038185875af1925050503d806000811461288e576040519150601f19603f3d011682016040523d82523d6000602084013e612893565b606091505b50915091506128a38282866128b4565b979650505050505050565b3b151590565b606083156128c357508161274b565b8251156128d35782518084602001fd5b8160405162461bcd60e51b81526004018080602001828103825283818151815260200191508051906020019080838360005b8381101561291d578181015183820152602001612905565b50505050905090810190601f16801561294a5780820380516001836020036101000a031916815260200191505b509250505060405180910390fd5b60405180606001604052806000815260200160006001600160a01b0316815260200160608152509056fe5265656e7472616e637947756172643a207265656e7472616e742063616c6c004d6574615472616e73616374696f6e2875696e74323536206e6f6e63652c616464726573732066726f6d2c62797465732066756e6374696f6e5369676e617475726529416464726573733a20696e73756666696369656e742062616c616e636520666f722063616c6c4e61746976654d6574615472616e73616374696f6e3a20494e56414c49445f5349474e4552536166654d6174683a206d756c7469706c69636174696f6e206f766572666c6f775369676e657220616e64207369676e617475726520646f206e6f74206d617463685374616b696e67526577617264733a20726573637565206f66207374616b696e6720746f6b656e206e6f7420616c6c6f77656443616c6c6572206973206e6f742052657761726473446973747269627574696f6e20636f6e74726163745361666545524332303a204552433230206f7065726174696f6e20646964206e6f742073756363656564a2646970667358221220621791586341de32b33b1903e84171e5a6c04310b6a8da622debbc185b15621764736f6c634300060b0033454950373132446f6d61696e28737472696e67206e616d652c737472696e672076657273696f6e2c6164647265737320766572696679696e67436f6e74726163742c627974657333322073616c74294f776e61626c653a206e6577206f776e657220697320746865207a65726f20616464726573734e6f2062616c616e636520666f7220676976656e20746f6b656e20616464726573735374616b696e6752657761726473466163746f72793a3a6465706c6f793a20616c7265616479206465706c6f7965644f776e61626c653a2063616c6c6572206973206e6f7420746865206f776e65725374616b696e6752657761726473466163746f72793a3a6e6f74696679526577617264416d6f756e74733a2063616c6c6564206265666f726520616e79206465706c6f79735374616b696e6752657761726473466163746f72793a3a6e6f74696679526577617264416d6f756e743a207472616e73666572206661696c65645374616b696e6752657761726473466163746f72793a3a616464526577617264546f6b656e3a2072657761726420616d6f756e742073686f756c642062652067726561746572207468616e20305374616b696e6752657761726473466163746f72793a3a6e6f74696679526577617264416d6f756e743a206e6f742072656164795374616b696e6752657761726473466163746f72793a3a6e6f74696679526577617264416d6f756e743a206e6f74206465706c6f796564a2646970667358221220ee4f73c4f9eae81bd3ec2578695ba45e4fdf86a99cac559d1a0fd85deef0442d64736f6c634300060b00335374616b696e6752657761726473466163746f72793a3a636f6e7374727563746f723a2067656e6573697320746f6f20736f6f6e"
}