{
    "abi": [
        {
            "inputs": [
                {
                    "internalType": "address",
                    "name": "_rewardsDistribution",
                    "type": "address"
                },
                {
                    "internalType": "address",
                    "name": "_rewardsToken",
                    "type": "address"
                },
                {
                    "internalType": "address",
                    "name": "_stakingToken",
                    "type": "address"
                },
                {
                    "internalType": "uint256",
                    "name": "_rewardsDuration",
                    "type": "uint256"
                },
                {
                    "internalType": "uint256",
                    "name": "_vesting",
                    "type": "uint256"
                },
                {
                    "internalType": "uint256",
                    "name": "_splits",
                    "type": "uint256"
                },
                {
                    "internalType": "uint256",
                    "name": "_claim",
                    "type": "uint256"
                }
            ],
            "stateMutability": "nonpayable",
            "type": "constructor"
        },
        {
            "anonymous": false,
            "inputs": [
                {
                    "indexed": false,
                    "internalType": "address",
                    "name": "userAddress",
                    "type": "address"
                },
                {
                    "indexed": false,
                    "internalType": "address payable",
                    "name": "relayerAddress",
                    "type": "address"
                },
                {
                    "indexed": false,
                    "internalType": "bytes",
                    "name": "functionSignature",
                    "type": "bytes"
                }
            ],
            "name": "MetaTransactionExecuted",
            "type": "event"
        },
        {
            "anonymous": false,
            "inputs": [
                {
                    "indexed": false,
                    "internalType": "uint256",
                    "name": "reward",
                    "type": "uint256"
                }
            ],
            "name": "RewardAdded",
            "type": "event"
        },
        {
            "anonymous": false,
            "inputs": [
                {
                    "indexed": true,
                    "internalType": "address",
                    "name": "user",
                    "type": "address"
                },
                {
                    "indexed": false,
                    "internalType": "uint256",
                    "name": "reward",
                    "type": "uint256"
                }
            ],
            "name": "RewardPaid",
            "type": "event"
        },
        {
            "anonymous": false,
            "inputs": [
                {
                    "indexed": true,
                    "internalType": "address",
                    "name": "user",
                    "type": "address"
                },
                {
                    "indexed": false,
                    "internalType": "uint256",
                    "name": "amount",
                    "type": "uint256"
                }
            ],
            "name": "Staked",
            "type": "event"
        },
        {
            "anonymous": false,
            "inputs": [
                {
                    "indexed": true,
                    "internalType": "address",
                    "name": "user",
                    "type": "address"
                },
                {
                    "indexed": false,
                    "internalType": "uint256",
                    "name": "amount",
                    "type": "uint256"
                }
            ],
            "name": "Withdrawn",
            "type": "event"
        },
        {
            "inputs": [],
            "name": "ERC712_VERSION",
            "outputs": [
                {
                    "internalType": "string",
                    "name": "",
                    "type": "string"
                }
            ],
            "stateMutability": "view",
            "type": "function"
        },
        {
            "inputs": [
                {
                    "internalType": "address",
                    "name": "account",
                    "type": "address"
                }
            ],
            "name": "balanceOf",
            "outputs": [
                {
                    "internalType": "uint256",
                    "name": "",
                    "type": "uint256"
                }
            ],
            "stateMutability": "view",
            "type": "function"
        },
        {
            "inputs": [],
            "name": "claim",
            "outputs": [
                {
                    "internalType": "uint256",
                    "name": "",
                    "type": "uint256"
                }
            ],
            "stateMutability": "view",
            "type": "function"
        },
        {
            "inputs": [
                {
                    "internalType": "address",
                    "name": "",
                    "type": "address"
                }
            ],
            "name": "claimedSplits",
            "outputs": [
                {
                    "internalType": "uint256",
                    "name": "",
                    "type": "uint256"
                }
            ],
            "stateMutability": "view",
            "type": "function"
        },
        {
            "inputs": [
                {
                    "internalType": "address",
                    "name": "account",
                    "type": "address"
                }
            ],
            "name": "earned",
            "outputs": [
                {
                    "internalType": "uint256",
                    "name": "",
                    "type": "uint256"
                }
            ],
            "stateMutability": "view",
            "type": "function"
        },
        {
            "inputs": [
                {
                    "internalType": "address",
                    "name": "userAddress",
                    "type": "address"
                },
                {
                    "internalType": "bytes",
                    "name": "functionSignature",
                    "type": "bytes"
                },
                {
                    "internalType": "bytes32",
                    "name": "sigR",
                    "type": "bytes32"
                },
                {
                    "internalType": "bytes32",
                    "name": "sigS",
                    "type": "bytes32"
                },
                {
                    "internalType": "uint8",
                    "name": "sigV",
                    "type": "uint8"
                }
            ],
            "name": "executeMetaTransaction",
            "outputs": [
                {
                    "internalType": "bytes",
                    "name": "",
                    "type": "bytes"
                }
            ],
            "stateMutability": "payable",
            "type": "function"
        },
        {
            "inputs": [],
            "name": "exit",
            "outputs": [],
            "stateMutability": "nonpayable",
            "type": "function"
        },
        {
            "inputs": [],
            "name": "getChainId",
            "outputs": [
                {
                    "internalType": "uint256",
                    "name": "",
                    "type": "uint256"
                }
            ],
            "stateMutability": "pure",
            "type": "function"
        },
        {
            "inputs": [],
            "name": "getDomainSeperator",
            "outputs": [
                {
                    "internalType": "bytes32",
                    "name": "",
                    "type": "bytes32"
                }
            ],
            "stateMutability": "view",
            "type": "function"
        },
        {
            "inputs": [
                {
                    "internalType": "address",
                    "name": "user",
                    "type": "address"
                }
            ],
            "name": "getNonce",
            "outputs": [
                {
                    "internalType": "uint256",
                    "name": "nonce",
                    "type": "uint256"
                }
            ],
            "stateMutability": "view",
            "type": "function"
        },
        {
            "inputs": [],
            "name": "getReward",
            "outputs": [],
            "stateMutability": "nonpayable",
            "type": "function"
        },
        {
            "inputs": [],
            "name": "getRewardForDuration",
            "outputs": [
                {
                    "internalType": "uint256",
                    "name": "",
                    "type": "uint256"
                }
            ],
            "stateMutability": "view",
            "type": "function"
        },
        {
            "inputs": [
                {
                    "internalType": "address",
                    "name": "",
                    "type": "address"
                }
            ],
            "name": "hasClaimed",
            "outputs": [
                {
                    "internalType": "bool",
                    "name": "",
                    "type": "bool"
                }
            ],
            "stateMutability": "view",
            "type": "function"
        },
        {
            "inputs": [],
            "name": "lastTimeRewardApplicable",
            "outputs": [
                {
                    "internalType": "uint256",
                    "name": "",
                    "type": "uint256"
                }
            ],
            "stateMutability": "view",
            "type": "function"
        },
        {
            "inputs": [],
            "name": "lastUpdateTime",
            "outputs": [
                {
                    "internalType": "uint256",
                    "name": "",
                    "type": "uint256"
                }
            ],
            "stateMutability": "view",
            "type": "function"
        },
        {
            "inputs": [
                {
                    "internalType": "uint256",
                    "name": "reward",
                    "type": "uint256"
                }
            ],
            "name": "notifyRewardAmount",
            "outputs": [],
            "stateMutability": "nonpayable",
            "type": "function"
        },
        {
            "inputs": [],
            "name": "periodFinish",
            "outputs": [
                {
                    "internalType": "uint256",
                    "name": "",
                    "type": "uint256"
                }
            ],
            "stateMutability": "view",
            "type": "function"
        },
        {
            "inputs": [
                {
                    "internalType": "address",
                    "name": "tokenAddress",
                    "type": "address"
                },
                {
                    "internalType": "address",
                    "name": "receiver",
                    "type": "address"
                }
            ],
            "name": "rescueFunds",
            "outputs": [],
            "stateMutability": "nonpayable",
            "type": "function"
        },
        {
            "inputs": [],
            "name": "rewardPerToken",
            "outputs": [
                {
                    "internalType": "uint256",
                    "name": "",
                    "type": "uint256"
                }
            ],
            "stateMutability": "view",
            "type": "function"
        },
        {
            "inputs": [],
            "name": "rewardPerTokenStored",
            "outputs": [
                {
                    "internalType": "uint256",
                    "name": "",
                    "type": "uint256"
                }
            ],
            "stateMutability": "view",
            "type": "function"
        },
        {
            "inputs": [],
            "name": "rewardRate",
            "outputs": [
                {
                    "internalType": "uint256",
                    "name": "",
                    "type": "uint256"
                }
            ],
            "stateMutability": "view",
            "type": "function"
        },
        {
            "inputs": [
                {
                    "internalType": "address",
                    "name": "",
                    "type": "address"
                }
            ],
            "name": "rewards",
            "outputs": [
                {
                    "internalType": "uint256",
                    "name": "",
                    "type": "uint256"
                }
            ],
            "stateMutability": "view",
            "type": "function"
        },
        {
            "inputs": [],
            "name": "rewardsDistribution",
            "outputs": [
                {
                    "internalType": "address",
                    "name": "",
                    "type": "address"
                }
            ],
            "stateMutability": "view",
            "type": "function"
        },
        {
            "inputs": [],
            "name": "rewardsDuration",
            "outputs": [
                {
                    "internalType": "uint256",
                    "name": "",
                    "type": "uint256"
                }
            ],
            "stateMutability": "view",
            "type": "function"
        },
        {
            "inputs": [],
            "name": "rewardsToken",
            "outputs": [
                {
                    "internalType": "contract IERC20",
                    "name": "",
                    "type": "address"
                }
            ],
            "stateMutability": "view",
            "type": "function"
        },
        {
            "inputs": [],
            "name": "splitWindow",
            "outputs": [
                {
                    "internalType": "uint256",
                    "name": "",
                    "type": "uint256"
                }
            ],
            "stateMutability": "view",
            "type": "function"
        },
        {
            "inputs": [],
            "name": "splits",
            "outputs": [
                {
                    "internalType": "uint256",
                    "name": "",
                    "type": "uint256"
                }
            ],
            "stateMutability": "view",
            "type": "function"
        },
        {
            "inputs": [
                {
                    "internalType": "uint256",
                    "name": "amount",
                    "type": "uint256"
                }
            ],
            "name": "stake",
            "outputs": [],
            "stateMutability": "nonpayable",
            "type": "function"
        },
        {
            "inputs": [
                {
                    "internalType": "uint256",
                    "name": "amount",
                    "type": "uint256"
                },
                {
                    "internalType": "uint256",
                    "name": "deadline",
                    "type": "uint256"
                },
                {
                    "internalType": "uint8",
                    "name": "v",
                    "type": "uint8"
                },
                {
                    "internalType": "bytes32",
                    "name": "r",
                    "type": "bytes32"
                },
                {
                    "internalType": "bytes32",
                    "name": "s",
                    "type": "bytes32"
                }
            ],
            "name": "stakeWithPermit",
            "outputs": [],
            "stateMutability": "nonpayable",
            "type": "function"
        },
        {
            "inputs": [],
            "name": "stakingToken",
            "outputs": [
                {
                    "internalType": "contract IERC20",
                    "name": "",
                    "type": "address"
                }
            ],
            "stateMutability": "view",
            "type": "function"
        },
        {
            "inputs": [],
            "name": "totalSupply",
            "outputs": [
                {
                    "internalType": "uint256",
                    "name": "",
                    "type": "uint256"
                }
            ],
            "stateMutability": "view",
            "type": "function"
        },
        {
            "inputs": [
                {
                    "internalType": "address",
                    "name": "",
                    "type": "address"
                }
            ],
            "name": "totalVestedRewardForUser",
            "outputs": [
                {
                    "internalType": "uint256",
                    "name": "",
                    "type": "uint256"
                }
            ],
            "stateMutability": "view",
            "type": "function"
        },
        {
            "inputs": [
                {
                    "internalType": "address",
                    "name": "",
                    "type": "address"
                }
            ],
            "name": "userRewardPerTokenPaid",
            "outputs": [
                {
                    "internalType": "uint256",
                    "name": "",
                    "type": "uint256"
                }
            ],
            "stateMutability": "view",
            "type": "function"
        },
        {
            "inputs": [],
            "name": "vestingPeriod",
            "outputs": [
                {
                    "internalType": "uint256",
                    "name": "",
                    "type": "uint256"
                }
            ],
            "stateMutability": "view",
            "type": "function"
        },
        {
            "inputs": [
                {
                    "internalType": "uint256",
                    "name": "amount",
                    "type": "uint256"
                }
            ],
            "name": "withdraw",
            "outputs": [],
            "stateMutability": "nonpayable",
            "type": "function"
        }
    ],
    "bytecode": "60806040526002805460ff191690553480156200001b57600080fd5b506040516200270538038062002705833981810160405260e08110156200004157600080fd5b50805160208083015160408401516060850151608086015160a087015160c09097015160018055600580546001600160a01b038088166001600160a01b0319928316179092556006805483881690831617905560008054928a16929091169190911790556009839055600a829055600b889055600c819055959693959294919390929091620000dd908490849062001adf62000128821b17901c565b600d5560408051808201909152601081526f5374616b696e6752657761726473563160801b60208201526200011b906001600160e01b036200019116565b50505050505050620002cb565b60008082116200017f576040805162461bcd60e51b815260206004820152601a60248201527f536166654d6174683a206469766973696f6e206279207a65726f000000000000604482015290519081900360640190fd5b8183816200018957fe5b049392505050565b60025460ff1615620001db576040805162461bcd60e51b815260206004820152600e60248201526d185b1c9958591e481a5b9a5d195960921b604482015290519081900360640190fd5b620001ef816001600160e01b03620001ff16565b506002805460ff19166001179055565b6040518060800160405280604f8152602001620026b6604f913980516020918201208251838301206040805180820190915260018152603160f81b930192909252907fc89efdaa54c0f20c7adf612882df0950f5a951637e0307cdcb4c672f298b8bc630620002766001600160e01b03620002c716565b604080516020808201979097528082019590955260608501939093526001600160a01b03909116608084015260a0808401919091528151808403909101815260c09092019052805191012060035550565b4690565b6123db80620002db6000396000f3fe6080604052600436106102035760003560e01c80636cbdec7d11610118578063afc3f0fe116100a0578063df136d651161006f578063df136d651461071d578063e79fef0714610732578063e9fad8ee14610765578063ebe2b12b1461077a578063ecd9ba821461078f57610203565b8063afc3f0fe146106ab578063c8f33c91146106de578063cd3daf9d146106f3578063d1af0c7d1461070857610203565b806373b2e80e116100e757806373b2e80e146105dd5780637b0a47ee1461062457806380faa57d146106395780638b8763471461064e578063a694fc3a1461068157610203565b80636cbdec7d1461056b57806370a082311461058057806372f702f3146105b35780637313ee5a146105c857610203565b80632d0335ab1161019b578063386a95251161016a578063386a9525146104d15780633c6b16ab146104e65780633d18b912146105105780633fc6df6e146105255780634e71d92d1461055657610203565b80632d0335ab1461044a5780632e1a7d4d1461047d5780633193a146146104a75780633408e470146104bc57610203565b806318160ddd116101d757806318160ddd146103ce5780631c1f78eb146103e35780631ff9b6f2146103f857806320379ee51461043557610203565b80628cc262146102085780630700037d1461024d5780630c53c51c146102805780630f7e5970146103b9575b600080fd5b34801561021457600080fd5b5061023b6004803603602081101561022b57600080fd5b50356001600160a01b03166107d4565b60408051918252519081900360200190f35b34801561025957600080fd5b5061023b6004803603602081101561027057600080fd5b50356001600160a01b031661086a565b610344600480360360a081101561029657600080fd5b6001600160a01b0382351691908101906040810160208201356401000000008111156102c157600080fd5b8201836020820111156102d357600080fd5b803590602001918460018302840111640100000000831117156102f557600080fd5b91908080601f016020809104026020016040519081016040528093929190818152602001838380828437600092019190915250929550508235935050506020810135906040013560ff1661087c565b6040805160208082528351818301528351919283929083019185019080838360005b8381101561037e578181015183820152602001610366565b50505050905090810190601f1680156103ab5780820380516001836020036101000a031916815260200191505b509250505060405180910390f35b3480156103c557600080fd5b50610344610b7f565b3480156103da57600080fd5b5061023b610b9c565b3480156103ef57600080fd5b5061023b610ba3565b34801561040457600080fd5b506104336004803603604081101561041b57600080fd5b506001600160a01b0381358116916020013516610bc1565b005b34801561044157600080fd5b5061023b610d53565b34801561045657600080fd5b5061023b6004803603602081101561046d57600080fd5b50356001600160a01b0316610d59565b34801561048957600080fd5b50610433600480360360208110156104a057600080fd5b5035610d74565b3480156104b357600080fd5b5061023b610f50565b3480156104c857600080fd5b5061023b610f56565b3480156104dd57600080fd5b5061023b610f5a565b3480156104f257600080fd5b506104336004803603602081101561050957600080fd5b5035610f60565b34801561051c57600080fd5b506104336111b1565b34801561053157600080fd5b5061053a611541565b604080516001600160a01b039092168252519081900360200190f35b34801561056257600080fd5b5061023b611550565b34801561057757600080fd5b5061023b611556565b34801561058c57600080fd5b5061023b600480360360208110156105a357600080fd5b50356001600160a01b031661155c565b3480156105bf57600080fd5b5061053a611577565b3480156105d457600080fd5b5061023b611586565b3480156105e957600080fd5b506106106004803603602081101561060057600080fd5b50356001600160a01b031661158c565b604080519115158252519081900360200190f35b34801561063057600080fd5b5061023b6115a1565b34801561064557600080fd5b5061023b6115a7565b34801561065a57600080fd5b5061023b6004803603602081101561067157600080fd5b50356001600160a01b03166115b5565b34801561068d57600080fd5b50610433600480360360208110156106a457600080fd5b50356115c7565b3480156106b757600080fd5b5061023b600480360360208110156106ce57600080fd5b50356001600160a01b03166117a1565b3480156106ea57600080fd5b5061023b6117b3565b3480156106ff57600080fd5b5061023b6117b9565b34801561071457600080fd5b5061053a611813565b34801561072957600080fd5b5061023b611822565b34801561073e57600080fd5b5061023b6004803603602081101561075557600080fd5b50356001600160a01b0316611828565b34801561077157600080fd5b5061043361183a565b34801561078657600080fd5b5061023b611882565b34801561079b57600080fd5b50610433600480360360a08110156107b257600080fd5b5080359060208101359060ff6040820135169060608101359060800135611888565b6001600160a01b0381166000908152601160209081526040808320546010909252822054610864919061085890670de0b6b3a76400009061084c906108279061081b6117b9565b9063ffffffff611b4616565b6001600160a01b0388166000908152601660205260409020549063ffffffff611ba316565b9063ffffffff611adf16565b9063ffffffff611c0316565b92915050565b60116020526000908152604090205481565b6060610886612204565b50604080516060810182526001600160a01b038816600081815260046020908152908490205483528201529081018690526108c48782878787611c5d565b6108ff5760405162461bcd60e51b81526004018080602001828103825260218152602001806122fe6021913960400191505060405180910390fd5b6001600160a01b03871660009081526004602052604090205461092990600163ffffffff611c0316565b6001600160a01b03881660008181526004602090815260408083209490945583519283523383820181905260609484018581528b51958501959095528a517f5845892132946850460bff5a0083f71031bc5bf9aadcd40f1de79423eac9b10b958d9592948d94919260808501928601918190849084905b838110156109b85781810151838201526020016109a0565b50505050905090810190601f1680156109e55780820380516001836020036101000a031916815260200191505b5094505050505060405180910390a160006060306001600160a01b0316888a6040516020018083805190602001908083835b60208310610a365780518252601f199092019160209182019101610a17565b6001836020036101000a038019825116818451168082178552505050505050905001826001600160a01b03166001600160a01b031660601b8152601401925050506040516020818303038152906040526040518082805190602001908083835b60208310610ab55780518252601f199092019160209182019101610a96565b6001836020036101000a0380198251168184511680821785525050505050509050019150506000604051808303816000865af19150503d8060008114610b17576040519150601f19603f3d011682016040523d82523d6000602084013e610b1c565b606091505b509150915081610b73576040805162461bcd60e51b815260206004820152601c60248201527f46756e6374696f6e2063616c6c206e6f74207375636365737366756c00000000604482015290519081900360640190fd5b98975050505050505050565b604051806040016040528060018152602001603160f81b81525081565b6015545b90565b6000610bbc600954600854611ba390919063ffffffff16565b905090565b6000546001600160a01b03163314610c0a5760405162461bcd60e51b815260040180806020018281038252602a815260200180612352602a913960400191505060405180910390fd5b6006546001600160a01b0383811691161415610c575760405162461bcd60e51b815260040180806020018281038252603381526020018061231f6033913960400191505060405180910390fd5b604080516370a0823160e01b815230600482015290516001600160a01b0384169163a9059cbb91849184916370a0823191602480820192602092909190829003018186803b158015610ca857600080fd5b505afa158015610cbc573d6000803e3d6000fd5b505050506040513d6020811015610cd257600080fd5b5051604080516001600160e01b031960e086901b1681526001600160a01b03909316600484015260248301919091525160448083019260209291908290030181600087803b158015610d2357600080fd5b505af1158015610d37573d6000803e3d6000fd5b505050506040513d6020811015610d4d57600080fd5b50505050565b60035490565b6001600160a01b031660009081526004602052604090205490565b60026001541415610dba576040805162461bcd60e51b815260206004820152601f602482015260008051602061222f833981519152604482015290519081900360640190fd5b6002600155610dc7611d3a565b610dcf6117b9565b600f55610dda6115a7565b600e556001600160a01b03811615610e2157610df5816107d4565b6001600160a01b038216600090815260116020908152604080832093909355600f546010909152919020555b60008211610e6a576040805162461bcd60e51b8152602060048201526011602482015270043616e6e6f74207769746864726177203607c1b604482015290519081900360640190fd5b601554610e7d908363ffffffff611b4616565b601555610eb68260166000610e90611d3a565b6001600160a01b031681526020810191909152604001600020549063ffffffff611b4616565b60166000610ec2611d3a565b6001600160a01b03168152602081019190915260400160002055610f00610ee7611d3a565b6006546001600160a01b0316908463ffffffff611d9716565b610f08611d3a565b6001600160a01b03167f7084f5476618d8e60b11ef0d7d3f06914655adb8793e28ff7f018d4c76d505d5836040518082815260200191505060405180910390a2505060018055565b600d5481565b4690565b60095481565b6000546001600160a01b03163314610fa95760405162461bcd60e51b815260040180806020018281038252602a815260200180612352602a913960400191505060405180910390fd5b6000610fb36117b9565b600f55610fbe6115a7565b600e556001600160a01b0381161561100557610fd9816107d4565b6001600160a01b038216600090815260116020908152604080832093909355600f546010909152919020555b600754421061102a5760095461102290839063ffffffff611adf16565b600855611079565b600754600090611040904263ffffffff611b4616565b9050600061105960085483611ba390919063ffffffff16565b6009549091506110739061084c868463ffffffff611c0316565b60085550505b600554604080516370a0823160e01b815230600482015290516000926001600160a01b0316916370a08231916024808301926020929190829003018186803b1580156110c457600080fd5b505afa1580156110d8573d6000803e3d6000fd5b505050506040513d60208110156110ee57600080fd5b505160095490915061110790829063ffffffff611adf16565b600854111561115d576040805162461bcd60e51b815260206004820152601860248201527f50726f76696465642072657761726420746f6f20686967680000000000000000604482015290519081900360640190fd5b42600e819055600954611176919063ffffffff611c0316565b6007556040805184815290517fde88a922e0d3b88b24e9623efeb464919c6bf9f66857a65e2bfcf2ce87a9433d9181900360200190a1505050565b600260015414156111f7576040805162461bcd60e51b815260206004820152601f602482015260008051602061222f833981519152604482015290519081900360640190fd5b6002600155611204611d3a565b61120c6117b9565b600f556112176115a7565b600e556001600160a01b0381161561125e57611232816107d4565b6001600160a01b038216600090815260116020908152604080832093909355600f546010909152919020555b6007544210156112b5576040805162461bcd60e51b815260206004820152601760248201527f43616e6e6f7420636c61696d7320746f6b656e206e6f77000000000000000000604482015290519081900360640190fd5b600080601260006112c4611d3a565b6001600160a01b03168152602081019190915260400160002054905042811580156113155750601360006112f6611d3a565b6001600160a01b0316815260208101919091526040016000205460ff16155b156113a05761136761135a606461084c600c5460116000611334611d3a565b6001600160a01b031681526020810191909152604001600020549063ffffffff611ba316565b849063ffffffff611c0316565b92506113798360116000610e90611d3a565b60146000611385611d3a565b6001600160a01b031681526020810191909152604001600020555b600b548210156115375760006113c7600d5461084c60075485611b4690919063ffffffff16565b9050600b5481116113d857806113dc565b600b545b9050611416611409600b5461084c6113fd8786611b4690919063ffffffff16565b60146000611334611d3a565b859063ffffffff611c0316565b935080831461144757806012600061142c611d3a565b6001600160a01b031681526020810191909152604001600020555b83156115355760016013600061145b611d3a565b6001600160a01b03166001600160a01b0316815260200190815260200160002060006101000a81548160ff0219169083151502179055506114a28460116000610e90611d3a565b601160006114ae611d3a565b6001600160a01b031681526020810191909152604001600020556114ec6114d3611d3a565b6005546001600160a01b0316908663ffffffff611d9716565b6114f4611d3a565b6001600160a01b03167fe2403640ba68fed3a2f88b7557551d1993f84b99bb10ff833f0cf8db0c5e0486856040518082815260200191505060405180910390a25b505b5050600180555050565b6000546001600160a01b031681565b600c5481565b600b5481565b6001600160a01b031660009081526016602052604090205490565b6006546001600160a01b031681565b600a5481565b60136020526000908152604090205460ff1681565b60085481565b6000610bbc42600754611dee565b60106020526000908152604090205481565b6002600154141561160d576040805162461bcd60e51b815260206004820152601f602482015260008051602061222f833981519152604482015290519081900360640190fd5b600260015561161a611d3a565b6116226117b9565b600f5561162d6115a7565b600e556001600160a01b0381161561167457611648816107d4565b6001600160a01b038216600090815260116020908152604080832093909355600f546010909152919020555b600082116116ba576040805162461bcd60e51b815260206004820152600e60248201526d043616e6e6f74207374616b6520360941b604482015290519081900360640190fd5b6015546116cd908363ffffffff611c0316565b60155561170682601660006116e0611d3a565b6001600160a01b031681526020810191909152604001600020549063ffffffff611c0316565b60166000611712611d3a565b6001600160a01b03168152602081019190915260400160002055611751611737611d3a565b6006546001600160a01b031690308563ffffffff611e0416565b611759611d3a565b6001600160a01b03167f9e71bc8eea02a63969f509818f2dafb9254532904319f9dbda79b67bd34a5f3d836040518082815260200191505060405180910390a2505060018055565b60126020526000908152604090205481565b600e5481565b6000601554600014156117cf5750600f54610ba0565b610bbc61180460155461084c670de0b6b3a76400006117f86008546117f8600e5461081b6115a7565b9063ffffffff611ba316565b600f549063ffffffff611c0316565b6005546001600160a01b031681565b600f5481565b60146020526000908152604090205481565b61186f60166000611849611d3a565b6001600160a01b03166001600160a01b0316815260200190815260200160002054610d74565b6007544210611880576118806111b1565b565b60075481565b600260015414156118ce576040805162461bcd60e51b815260206004820152601f602482015260008051602061222f833981519152604482015290519081900360640190fd5b60026001556118db611d3a565b6118e36117b9565b600f556118ee6115a7565b600e556001600160a01b0381161561193557611909816107d4565b6001600160a01b038216600090815260116020908152604080832093909355600f546010909152919020555b6000861161197b576040805162461bcd60e51b815260206004820152600e60248201526d043616e6e6f74207374616b6520360941b604482015290519081900360640190fd5b60155461198e908763ffffffff611c0316565b6015556119a186601660006116e0611d3a565b601660006119ad611d3a565b6001600160a01b0390811682526020820192909252604001600020919091556006541663d505accf6119dd611d3a565b604080516001600160e01b031960e085901b1681526001600160a01b039092166004830152306024830152604482018a90526064820189905260ff8816608483015260a4820187905260c482018690525160e480830192600092919082900301818387803b158015611a4e57600080fd5b505af1158015611a62573d6000803e3d6000fd5b50505050611a8b611a71611d3a565b6006546001600160a01b031690308963ffffffff611e0416565b611a93611d3a565b6001600160a01b03167f9e71bc8eea02a63969f509818f2dafb9254532904319f9dbda79b67bd34a5f3d876040518082815260200191505060405180910390a250506001805550505050565b6000808211611b35576040805162461bcd60e51b815260206004820152601a60248201527f536166654d6174683a206469766973696f6e206279207a65726f000000000000604482015290519081900360640190fd5b818381611b3e57fe5b049392505050565b600082821115611b9d576040805162461bcd60e51b815260206004820152601e60248201527f536166654d6174683a207375627472616374696f6e206f766572666c6f770000604482015290519081900360640190fd5b50900390565b600082611bb257506000610864565b82820282848281611bbf57fe5b0414611bfc5760405162461bcd60e51b81526004018080602001828103825260218152602001806122dd6021913960400191505060405180910390fd5b9392505050565b600082820183811015611bfc576040805162461bcd60e51b815260206004820152601b60248201527f536166654d6174683a206164646974696f6e206f766572666c6f770000000000604482015290519081900360640190fd5b60006001600160a01b038616611ca45760405162461bcd60e51b81526004018080602001828103825260258152602001806122b86025913960400191505060405180910390fd5b6001611cb7611cb287611e5e565b611eea565b83868660405160008152602001604052604051808581526020018460ff1660ff1681526020018381526020018281526020019450505050506020604051602081039080840390855afa158015611d11573d6000803e3d6000fd5b505050602060405103516001600160a01b0316866001600160a01b031614905095945050505050565b600033301415611d925760606000368080601f0160208091040260200160405190810160405280939291908181526020018383808284376000920191909152505050503601516001600160a01b03169150610ba09050565b503390565b604080516001600160a01b038416602482015260448082018490528251808303909101815260649091019091526020810180516001600160e01b031663a9059cbb60e01b179052611de9908490611f36565b505050565b6000818310611dfd5781611bfc565b5090919050565b604080516001600160a01b0380861660248301528416604482015260648082018490528251808303909101815260849091019091526020810180516001600160e01b03166323b872dd60e01b179052610d4d908590611f36565b600060405180608001604052806043815260200161224f60439139805190602001208260000151836020015184604001518051906020012060405160200180858152602001848152602001836001600160a01b03166001600160a01b03168152602001828152602001945050505050604051602081830303815290604052805190602001209050919050565b6000611ef4610d53565b82604051602001808061190160f01b81525060020183815260200182815260200192505050604051602081830303815290604052805190602001209050919050565b6060611f8b826040518060400160405280602081526020017f5361666545524332303a206c6f772d6c6576656c2063616c6c206661696c6564815250856001600160a01b0316611fe79092919063ffffffff16565b805190915015611de957808060200190516020811015611faa57600080fd5b5051611de95760405162461bcd60e51b815260040180806020018281038252602a81526020018061237c602a913960400191505060405180910390fd5b6060611ff68484600085611ffe565b949350505050565b60608247101561203f5760405162461bcd60e51b81526004018080602001828103825260268152602001806122926026913960400191505060405180910390fd5b6120488561215a565b612099576040805162461bcd60e51b815260206004820152601d60248201527f416464726573733a2063616c6c20746f206e6f6e2d636f6e7472616374000000604482015290519081900360640190fd5b60006060866001600160a01b031685876040518082805190602001908083835b602083106120d85780518252601f1990920191602091820191016120b9565b6001836020036101000a03801982511681845116808217855250505050505090500191505060006040518083038185875af1925050503d806000811461213a576040519150601f19603f3d011682016040523d82523d6000602084013e61213f565b606091505b509150915061214f828286612160565b979650505050505050565b3b151590565b6060831561216f575081611bfc565b82511561217f5782518084602001fd5b8160405162461bcd60e51b81526004018080602001828103825283818151815260200191508051906020019080838360005b838110156121c95781810151838201526020016121b1565b50505050905090810190601f1680156121f65780820380516001836020036101000a031916815260200191505b509250505060405180910390fd5b60405180606001604052806000815260200160006001600160a01b0316815260200160608152509056fe5265656e7472616e637947756172643a207265656e7472616e742063616c6c004d6574615472616e73616374696f6e2875696e74323536206e6f6e63652c616464726573732066726f6d2c62797465732066756e6374696f6e5369676e617475726529416464726573733a20696e73756666696369656e742062616c616e636520666f722063616c6c4e61746976654d6574615472616e73616374696f6e3a20494e56414c49445f5349474e4552536166654d6174683a206d756c7469706c69636174696f6e206f766572666c6f775369676e657220616e64207369676e617475726520646f206e6f74206d617463685374616b696e67526577617264733a20726573637565206f66207374616b696e6720746f6b656e206e6f7420616c6c6f77656443616c6c6572206973206e6f742052657761726473446973747269627574696f6e20636f6e74726163745361666545524332303a204552433230206f7065726174696f6e20646964206e6f742073756363656564a2646970667358221220caf5c7b4dde161ea02bba94cc5a37ce67eb4819e4aced4e0ea48d37b1d6af6f764736f6c634300060b0033454950373132446f6d61696e28737472696e67206e616d652c737472696e672076657273696f6e2c6164647265737320766572696679696e67436f6e74726163742c627974657333322073616c7429"
}