{
    "abi": [
        {
            "inputs": [
                {
                    "internalType": "address",
                    "name": "_rewardsDistribution",
                    "type": "address"
                },
                {
                    "internalType": "address[]",
                    "name": "_rewardTokens",
                    "type": "address[]"
                },
                {
                    "internalType": "address",
                    "name": "_stakingToken",
                    "type": "address"
                }
            ],
            "stateMutability": "nonpayable",
            "type": "constructor"
        },
        {
            "anonymous": false,
            "inputs": [
                {
                    "indexed": false,
                    "internalType": "address",
                    "name": "userAddress",
                    "type": "address"
                },
                {
                    "indexed": false,
                    "internalType": "address payable",
                    "name": "relayerAddress",
                    "type": "address"
                },
                {
                    "indexed": false,
                    "internalType": "bytes",
                    "name": "functionSignature",
                    "type": "bytes"
                }
            ],
            "name": "MetaTransactionExecuted",
            "type": "event"
        },
        {
            "anonymous": false,
            "inputs": [
                {
                    "indexed": false,
                    "internalType": "uint256",
                    "name": "reward",
                    "type": "uint256"
                }
            ],
            "name": "RewardAdded",
            "type": "event"
        },
        {
            "anonymous": false,
            "inputs": [
                {
                    "indexed": true,
                    "internalType": "address",
                    "name": "user",
                    "type": "address"
                },
                {
                    "indexed": false,
                    "internalType": "uint256",
                    "name": "reward",
                    "type": "uint256"
                }
            ],
            "name": "RewardPaid",
            "type": "event"
        },
        {
            "anonymous": false,
            "inputs": [
                {
                    "indexed": true,
                    "internalType": "address",
                    "name": "user",
                    "type": "address"
                },
                {
                    "indexed": false,
                    "internalType": "uint256",
                    "name": "amount",
                    "type": "uint256"
                }
            ],
            "name": "Staked",
            "type": "event"
        },
        {
            "anonymous": false,
            "inputs": [
                {
                    "indexed": true,
                    "internalType": "address",
                    "name": "user",
                    "type": "address"
                },
                {
                    "indexed": false,
                    "internalType": "uint256",
                    "name": "amount",
                    "type": "uint256"
                }
            ],
            "name": "Withdrawn",
            "type": "event"
        },
        {
            "inputs": [],
            "name": "ERC712_VERSION",
            "outputs": [
                {
                    "internalType": "string",
                    "name": "",
                    "type": "string"
                }
            ],
            "stateMutability": "view",
            "type": "function"
        },
        {
            "inputs": [
                {
                    "internalType": "address",
                    "name": "account",
                    "type": "address"
                }
            ],
            "name": "balanceOf",
            "outputs": [
                {
                    "internalType": "uint256",
                    "name": "",
                    "type": "uint256"
                }
            ],
            "stateMutability": "view",
            "type": "function"
        },
        {
            "inputs": [
                {
                    "internalType": "address",
                    "name": "account",
                    "type": "address"
                }
            ],
            "name": "bothTokensEarned",
            "outputs": [
                {
                    "internalType": "address[]",
                    "name": "",
                    "type": "address[]"
                },
                {
                    "internalType": "uint256[]",
                    "name": "",
                    "type": "uint256[]"
                }
            ],
            "stateMutability": "view",
            "type": "function"
        },
        {
            "inputs": [],
            "name": "bothTokensRewardRate",
            "outputs": [
                {
                    "internalType": "address[]",
                    "name": "",
                    "type": "address[]"
                },
                {
                    "internalType": "uint256[]",
                    "name": "",
                    "type": "uint256[]"
                }
            ],
            "stateMutability": "view",
            "type": "function"
        },
        {
            "inputs": [
                {
                    "internalType": "address",
                    "name": "account",
                    "type": "address"
                },
                {
                    "internalType": "address",
                    "name": "rewardToken",
                    "type": "address"
                }
            ],
            "name": "earned",
            "outputs": [
                {
                    "internalType": "uint256",
                    "name": "",
                    "type": "uint256"
                }
            ],
            "stateMutability": "view",
            "type": "function"
        },
        {
            "inputs": [
                {
                    "internalType": "address",
                    "name": "userAddress",
                    "type": "address"
                },
                {
                    "internalType": "bytes",
                    "name": "functionSignature",
                    "type": "bytes"
                },
                {
                    "internalType": "bytes32",
                    "name": "sigR",
                    "type": "bytes32"
                },
                {
                    "internalType": "bytes32",
                    "name": "sigS",
                    "type": "bytes32"
                },
                {
                    "internalType": "uint8",
                    "name": "sigV",
                    "type": "uint8"
                }
            ],
            "name": "executeMetaTransaction",
            "outputs": [
                {
                    "internalType": "bytes",
                    "name": "",
                    "type": "bytes"
                }
            ],
            "stateMutability": "payable",
            "type": "function"
        },
        {
            "inputs": [],
            "name": "exit",
            "outputs": [],
            "stateMutability": "nonpayable",
            "type": "function"
        },
        {
            "inputs": [],
            "name": "getChainId",
            "outputs": [
                {
                    "internalType": "uint256",
                    "name": "",
                    "type": "uint256"
                }
            ],
            "stateMutability": "pure",
            "type": "function"
        },
        {
            "inputs": [],
            "name": "getDomainSeperator",
            "outputs": [
                {
                    "internalType": "bytes32",
                    "name": "",
                    "type": "bytes32"
                }
            ],
            "stateMutability": "view",
            "type": "function"
        },
        {
            "inputs": [
                {
                    "internalType": "address",
                    "name": "user",
                    "type": "address"
                }
            ],
            "name": "getNonce",
            "outputs": [
                {
                    "internalType": "uint256",
                    "name": "nonce",
                    "type": "uint256"
                }
            ],
            "stateMutability": "view",
            "type": "function"
        },
        {
            "inputs": [],
            "name": "getReward",
            "outputs": [],
            "stateMutability": "nonpayable",
            "type": "function"
        },
        {
            "inputs": [
                {
                    "internalType": "address",
                    "name": "rewardToken",
                    "type": "address"
                }
            ],
            "name": "getRewardForDuration",
            "outputs": [
                {
                    "internalType": "uint256",
                    "name": "",
                    "type": "uint256"
                }
            ],
            "stateMutability": "view",
            "type": "function"
        },
        {
            "inputs": [],
            "name": "lastTimeRewardApplicable",
            "outputs": [
                {
                    "internalType": "uint256",
                    "name": "",
                    "type": "uint256"
                }
            ],
            "stateMutability": "view",
            "type": "function"
        },
        {
            "inputs": [
                {
                    "internalType": "address",
                    "name": "rewardToken",
                    "type": "address"
                },
                {
                    "internalType": "uint256",
                    "name": "reward",
                    "type": "uint256"
                }
            ],
            "name": "notifyRewardAmount",
            "outputs": [],
            "stateMutability": "nonpayable",
            "type": "function"
        },
        {
            "inputs": [],
            "name": "periodFinish",
            "outputs": [
                {
                    "internalType": "uint256",
                    "name": "",
                    "type": "uint256"
                }
            ],
            "stateMutability": "view",
            "type": "function"
        },
        {
            "inputs": [
                {
                    "internalType": "address",
                    "name": "tokenAddress",
                    "type": "address"
                },
                {
                    "internalType": "address",
                    "name": "receiver",
                    "type": "address"
                }
            ],
            "name": "rescueFunds",
            "outputs": [],
            "stateMutability": "nonpayable",
            "type": "function"
        },
        {
            "inputs": [
                {
                    "internalType": "address",
                    "name": "",
                    "type": "address"
                }
            ],
            "name": "rewardLastUpdatedTime",
            "outputs": [
                {
                    "internalType": "uint256",
                    "name": "",
                    "type": "uint256"
                }
            ],
            "stateMutability": "view",
            "type": "function"
        },
        {
            "inputs": [
                {
                    "internalType": "address",
                    "name": "rewardToken",
                    "type": "address"
                }
            ],
            "name": "rewardPerToken",
            "outputs": [
                {
                    "internalType": "uint256",
                    "name": "",
                    "type": "uint256"
                }
            ],
            "stateMutability": "view",
            "type": "function"
        },
        {
            "inputs": [],
            "name": "rewardPerTokenStored",
            "outputs": [
                {
                    "internalType": "uint256",
                    "name": "",
                    "type": "uint256"
                }
            ],
            "stateMutability": "view",
            "type": "function"
        },
        {
            "inputs": [
                {
                    "internalType": "uint256",
                    "name": "",
                    "type": "uint256"
                }
            ],
            "name": "rewardTokens",
            "outputs": [
                {
                    "internalType": "address",
                    "name": "",
                    "type": "address"
                }
            ],
            "stateMutability": "view",
            "type": "function"
        },
        {
            "inputs": [
                {
                    "internalType": "address",
                    "name": "",
                    "type": "address"
                },
                {
                    "internalType": "address",
                    "name": "",
                    "type": "address"
                }
            ],
            "name": "rewards",
            "outputs": [
                {
                    "internalType": "uint256",
                    "name": "",
                    "type": "uint256"
                }
            ],
            "stateMutability": "view",
            "type": "function"
        },
        {
            "inputs": [],
            "name": "rewardsDistribution",
            "outputs": [
                {
                    "internalType": "address",
                    "name": "",
                    "type": "address"
                }
            ],
            "stateMutability": "view",
            "type": "function"
        },
        {
            "inputs": [],
            "name": "rewardsDuration",
            "outputs": [
                {
                    "internalType": "uint256",
                    "name": "",
                    "type": "uint256"
                }
            ],
            "stateMutability": "view",
            "type": "function"
        },
        {
            "inputs": [
                {
                    "internalType": "address",
                    "name": "",
                    "type": "address"
                }
            ],
            "name": "rewardsPerTokenMap",
            "outputs": [
                {
                    "internalType": "uint256",
                    "name": "",
                    "type": "uint256"
                }
            ],
            "stateMutability": "view",
            "type": "function"
        },
        {
            "inputs": [
                {
                    "internalType": "uint256",
                    "name": "amount",
                    "type": "uint256"
                }
            ],
            "name": "stake",
            "outputs": [],
            "stateMutability": "nonpayable",
            "type": "function"
        },
        {
            "inputs": [
                {
                    "internalType": "uint256",
                    "name": "amount",
                    "type": "uint256"
                },
                {
                    "internalType": "uint256",
                    "name": "deadline",
                    "type": "uint256"
                },
                {
                    "internalType": "uint8",
                    "name": "v",
                    "type": "uint8"
                },
                {
                    "internalType": "bytes32",
                    "name": "r",
                    "type": "bytes32"
                },
                {
                    "internalType": "bytes32",
                    "name": "s",
                    "type": "bytes32"
                }
            ],
            "name": "stakeWithPermit",
            "outputs": [],
            "stateMutability": "nonpayable",
            "type": "function"
        },
        {
            "inputs": [],
            "name": "stakerBalances",
            "outputs": [
                {
                    "internalType": "address[]",
                    "name": "",
                    "type": "address[]"
                },
                {
                    "internalType": "uint256[]",
                    "name": "",
                    "type": "uint256[]"
                }
            ],
            "stateMutability": "view",
            "type": "function"
        },
        {
            "inputs": [],
            "name": "stakingToken",
            "outputs": [
                {
                    "internalType": "contract IERC20",
                    "name": "",
                    "type": "address"
                }
            ],
            "stateMutability": "view",
            "type": "function"
        },
        {
            "inputs": [
                {
                    "internalType": "address",
                    "name": "",
                    "type": "address"
                }
            ],
            "name": "tokenRewardRate",
            "outputs": [
                {
                    "internalType": "uint256",
                    "name": "",
                    "type": "uint256"
                }
            ],
            "stateMutability": "view",
            "type": "function"
        },
        {
            "inputs": [],
            "name": "totalSupply",
            "outputs": [
                {
                    "internalType": "uint256",
                    "name": "",
                    "type": "uint256"
                }
            ],
            "stateMutability": "view",
            "type": "function"
        },
        {
            "inputs": [
                {
                    "internalType": "address",
                    "name": "",
                    "type": "address"
                },
                {
                    "internalType": "address",
                    "name": "",
                    "type": "address"
                }
            ],
            "name": "userRewardPerTokenPaid",
            "outputs": [
                {
                    "internalType": "uint256",
                    "name": "",
                    "type": "uint256"
                }
            ],
            "stateMutability": "view",
            "type": "function"
        },
        {
            "inputs": [
                {
                    "internalType": "uint256",
                    "name": "amount",
                    "type": "uint256"
                }
            ],
            "name": "withdraw",
            "outputs": [],
            "stateMutability": "nonpayable",
            "type": "function"
        }
    ],
    "bytecode": "60806040526002805460ff19169055600060065562278d006007553480156200002757600080fd5b506040516200313738038062003137833981810160405260608110156200004d57600080fd5b8151602083018051604051929492938301929190846401000000008211156200007557600080fd5b9083019060208201858111156200008b57600080fd5b8251866020820283011164010000000082111715620000a957600080fd5b82525081516020918201928201910280838360005b83811015620000d8578181015183820152602001620000be565b505050509190910160405250602090810151600180558451909350620001059250600b91850190620002b0565b50600580546001600160a01b038084166001600160a01b031992831617909255600080549286169290911691909117905560408051808201909152600b81526a4475616c4661726d73563160a81b60208201526200016c906001600160e01b036200017516565b50505062000341565b60025460ff1615620001bf576040805162461bcd60e51b815260206004820152600e60248201526d185b1c9958591e481a5b9a5d195960921b604482015290519081900360640190fd5b620001d3816001600160e01b03620001e316565b506002805460ff19166001179055565b6040518060800160405280604f8152602001620030e8604f913980516020918201208251838301206040805180820190915260018152603160f81b930192909252907fc89efdaa54c0f20c7adf612882df0950f5a951637e0307cdcb4c672f298b8bc6306200025a6001600160e01b03620002ab16565b604080516020808201979097528082019590955260608501939093526001600160a01b03909116608084015260a0808401919091528151808403909101815260c09092019052805191012060035550565b465b90565b82805482825590600052602060002090810192821562000308579160200282015b828111156200030857825182546001600160a01b0319166001600160a01b03909116178255602090920191600190910190620002d1565b50620003169291506200031a565b5090565b620002ad91905b80821115620003165780546001600160a01b031916815560010162000321565b612d9780620003516000396000f3fe6080604052600436106101e35760003560e01c806372f702f311610102578063df136d6511610095578063ebe2b12b11610064578063ebe2b12b146107ee578063ecd9ba8214610803578063f122977714610848578063f3832f721461087b576101e3565b8063df136d6514610756578063e70b9e271461076b578063e9fad8ee146107a6578063e9ffcb1b146107bb576101e3565b8063a694fc3a116100d1578063a694fc3a146106ab578063b66503cf146106d5578063bcd110141461070e578063c61c631014610741576101e3565b806372f702f3146106245780637bb7bed11461063957806380faa57d14610663578063a4f880f214610678576101e3565b80632e1a7d4d1161017a5780633fc6df6e116101495780633fc6df6e146104b957806345d8448d146104ea5780637035ab98146105b657806370a08231146105f1576101e3565b80632e1a7d4d146104505780633408e4701461047a578063386a95251461048f5780633d18b912146104a4576101e3565b806320379ee5116101b657806320379ee51461039a578063211dc32d146103af578063292eee84146103ea5780632d0335ab1461041d576101e3565b80630c53c51c146101e85780630f7e59701461032157806318160ddd146103365780631ff9b6f21461035d575b600080fd5b6102ac600480360360a08110156101fe57600080fd5b6001600160a01b03823516919081019060408101602082013564010000000081111561022957600080fd5b82018360208201111561023b57600080fd5b8035906020019184600183028401116401000000008311171561025d57600080fd5b91908080601f016020809104026020016040519081016040528093929190818152602001838380828437600092019190915250929550508235935050506020810135906040013560ff16610890565b6040805160208082528351818301528351919283929083019185019080838360005b838110156102e65781810151838201526020016102ce565b50505050905090810190601f1680156103135780820380516001836020036101000a031916815260200191505b509250505060405180910390f35b34801561032d57600080fd5b506102ac610b93565b34801561034257600080fd5b5061034b610bb0565b60408051918252519081900360200190f35b34801561036957600080fd5b506103986004803603604081101561038057600080fd5b506001600160a01b0381358116916020013516610bb6565b005b3480156103a657600080fd5b5061034b610d48565b3480156103bb57600080fd5b5061034b600480360360408110156103d257600080fd5b506001600160a01b0381358116916020013516610d4e565b3480156103f657600080fd5b5061034b6004803603602081101561040d57600080fd5b50356001600160a01b0316610e01565b34801561042957600080fd5b5061034b6004803603602081101561044057600080fd5b50356001600160a01b0316610e13565b34801561045c57600080fd5b506103986004803603602081101561047357600080fd5b5035610e2e565b34801561048657600080fd5b5061034b61116f565b34801561049b57600080fd5b5061034b611173565b3480156104b057600080fd5b50610398611179565b3480156104c557600080fd5b506104ce6114c5565b604080516001600160a01b039092168252519081900360200190f35b3480156104f657600080fd5b5061051d6004803603602081101561050d57600080fd5b50356001600160a01b03166114d4565b604051808060200180602001838103835285818151815260200191508051906020019060200280838360005b83811015610561578181015183820152602001610549565b50505050905001838103825284818151815260200191508051906020019060200280838360005b838110156105a0578181015183820152602001610588565b5050505090500194505050505060405180910390f35b3480156105c257600080fd5b5061034b600480360360408110156105d957600080fd5b506001600160a01b03813581169160200135166115c7565b3480156105fd57600080fd5b5061034b6004803603602081101561061457600080fd5b50356001600160a01b03166115e4565b34801561063057600080fd5b506104ce611603565b34801561064557600080fd5b506104ce6004803603602081101561065c57600080fd5b5035611612565b34801561066f57600080fd5b5061034b611639565b34801561068457600080fd5b5061034b6004803603602081101561069b57600080fd5b50356001600160a01b031661164c565b3480156106b757600080fd5b50610398600480360360208110156106ce57600080fd5b503561165e565b3480156106e157600080fd5b50610398600480360360408110156106f857600080fd5b506001600160a01b0381351690602001356119d0565b34801561071a57600080fd5b5061034b6004803603602081101561073157600080fd5b50356001600160a01b0316611d91565b34801561074d57600080fd5b5061051d611dbf565b34801561076257600080fd5b5061034b611eda565b34801561077757600080fd5b5061034b6004803603604081101561078e57600080fd5b506001600160a01b0381358116916020013516611ee0565b3480156107b257600080fd5b50610398611efd565b3480156107c757600080fd5b5061034b600480360360208110156107de57600080fd5b50356001600160a01b0316611f3c565b3480156107fa57600080fd5b5061034b611f4e565b34801561080f57600080fd5b50610398600480360360a081101561082657600080fd5b5080359060208101359060ff6040820135169060608101359060800135611f54565b34801561085457600080fd5b5061034b6004803603602081101561086b57600080fd5b50356001600160a01b03166122dc565b34801561088757600080fd5b5061051d612388565b606061089a612bc0565b50604080516060810182526001600160a01b038816600081815260046020908152908490205483528201529081018690526108d8878287878761249f565b6109135760405162461bcd60e51b8152600401808060200182810382526021815260200180612cba6021913960400191505060405180910390fd5b6001600160a01b03871660009081526004602052604090205461093d90600163ffffffff61257c16565b6001600160a01b03881660008181526004602090815260408083209490945583519283523383820181905260609484018581528b51958501959095528a517f5845892132946850460bff5a0083f71031bc5bf9aadcd40f1de79423eac9b10b958d9592948d94919260808501928601918190849084905b838110156109cc5781810151838201526020016109b4565b50505050905090810190601f1680156109f95780820380516001836020036101000a031916815260200191505b5094505050505060405180910390a160006060306001600160a01b0316888a6040516020018083805190602001908083835b60208310610a4a5780518252601f199092019160209182019101610a2b565b6001836020036101000a038019825116818451168082178552505050505050905001826001600160a01b03166001600160a01b031660601b8152601401925050506040516020818303038152906040526040518082805190602001908083835b60208310610ac95780518252601f199092019160209182019101610aaa565b6001836020036101000a0380198251168184511680821785525050505050509050019150506000604051808303816000865af19150503d8060008114610b2b576040519150601f19603f3d011682016040523d82523d6000602084013e610b30565b606091505b509150915081610b87576040805162461bcd60e51b815260206004820152601c60248201527f46756e6374696f6e2063616c6c206e6f74207375636365737366756c00000000604482015290519081900360640190fd5b98975050505050505050565b604051806040016040528060018152602001603160f81b81525081565b60095490565b6000546001600160a01b03163314610bff5760405162461bcd60e51b815260040180806020018281038252602a815260200180612d0e602a913960400191505060405180910390fd5b6005546001600160a01b0383811691161415610c4c5760405162461bcd60e51b8152600401808060200182810382526033815260200180612cdb6033913960400191505060405180910390fd5b604080516370a0823160e01b815230600482015290516001600160a01b0384169163a9059cbb91849184916370a0823191602480820192602092909190829003018186803b158015610c9d57600080fd5b505afa158015610cb1573d6000803e3d6000fd5b505050506040513d6020811015610cc757600080fd5b5051604080516001600160e01b031960e086901b1681526001600160a01b03909316600484015260248301919091525160448083019260209291908290030181600087803b158015610d1857600080fd5b505af1158015610d2c573d6000803e3d6000fd5b505050506040513d6020811015610d4257600080fd5b50505050565b60035490565b6001600160a01b038083166000818152601160209081526040808320948616808452948252808320549383526010825280832094835293905291822054610df89190610dec90670de0b6b3a764000090610de090610dbb90610daf896122dc565b9063ffffffff6125d616565b6001600160a01b0389166000908152600e60205260409020549063ffffffff61263316565b9063ffffffff61268c16565b9063ffffffff61257c16565b90505b92915050565b600d6020526000908152604090205481565b6001600160a01b031660009081526004602052604090205490565b60026001541415610e74576040805162461bcd60e51b815260206004820152601f6024820152600080516020612beb833981519152604482015290519081900360640190fd5b6002600155610e816126f3565b60005b600b5481101561103f57610eb8600b8281548110610e9e57fe5b6000918252602090912001546001600160a01b03166122dc565b600c6000600b8481548110610ec957fe5b60009182526020808320909101546001600160a01b03168352820192909252604001902055610ef6611639565b600f6000600b8481548110610f0757fe5b60009182526020808320909101546001600160a01b03908116845290830193909352604090910190209190915582161561103757610f6682600b8381548110610f4c57fe5b6000918252602090912001546001600160a01b0316610d4e565b6001600160a01b0383166000908152601160205260408120600b805491929185908110610f8f57fe5b60009182526020808320909101546001600160a01b03168352820192909252604001812091909155600b8054600c92919084908110610fca57fe5b60009182526020808320909101546001600160a01b039081168452838201949094526040928301822054938616825260109052908120600b80549192918590811061101157fe5b60009182526020808320909101546001600160a01b031683528201929092526040019020555b600101610e84565b5060008211611089576040805162461bcd60e51b8152602060048201526011602482015270043616e6e6f74207769746864726177203607c1b604482015290519081900360640190fd5b60095461109c908363ffffffff6125d616565b6009556110d582600e60006110af6126f3565b6001600160a01b031681526020810191909152604001600020549063ffffffff6125d616565b600e60006110e16126f3565b6001600160a01b0316815260208101919091526040016000205561111f6111066126f3565b6005546001600160a01b0316908463ffffffff61275116565b6111276126f3565b6001600160a01b03167f7084f5476618d8e60b11ef0d7d3f06914655adb8793e28ff7f018d4c76d505d5836040518082815260200191505060405180910390a2505060018055565b4690565b60075481565b600260015414156111bf576040805162461bcd60e51b815260206004820152601f6024820152600080516020612beb833981519152604482015290519081900360640190fd5b60026001556111cc6126f3565b60005b600b54811015611356576111e9600b8281548110610e9e57fe5b600c6000600b84815481106111fa57fe5b60009182526020808320909101546001600160a01b03168352820192909252604001902055611227611639565b600f6000600b848154811061123857fe5b60009182526020808320909101546001600160a01b03908116845290830193909352604090910190209190915582161561134e5761127d82600b8381548110610f4c57fe5b6001600160a01b0383166000908152601160205260408120600b8054919291859081106112a657fe5b60009182526020808320909101546001600160a01b03168352820192909252604001812091909155600b8054600c929190849081106112e157fe5b60009182526020808320909101546001600160a01b039081168452838201949094526040928301822054938616825260109052908120600b80549192918590811061132857fe5b60009182526020808320909101546001600160a01b031683528201929092526040019020555b6001016111cf565b5060005b600b548110156114bd576000601160006113726126f3565b6001600160a01b03166001600160a01b031681526020019081526020016000206000600b84815481106113a157fe5b60009182526020808320909101546001600160a01b03168352820192909252604001902054905080156114b4576000601160006113dc6126f3565b6001600160a01b03166001600160a01b031681526020019081526020016000206000600b858154811061140b57fe5b60009182526020808320909101546001600160a01b0316835282019290925260400190205561146b61143b6126f3565b82600b858154811061144957fe5b6000918252602090912001546001600160a01b0316919063ffffffff61275116565b6114736126f3565b6001600160a01b03167fe2403640ba68fed3a2f88b7557551d1993f84b99bb10ff833f0cf8db0c5e0486826040518082815260200191505060405180910390a25b5060010161135a565b505060018055565b6000546001600160a01b031681565b600b546060908190818167ffffffffffffffff811180156114f457600080fd5b5060405190808252806020026020018201604052801561151e578160200160208202803683370190505b50905060005b8281101561155c5761153d86600b8381548110610f4c57fe5b82828151811061154957fe5b6020908102919091010152600101611524565b50600b81818054806020026020016040519081016040528092919081815260200182805480156115b557602002820191906000526020600020905b81546001600160a01b03168152600190910190602001808311611597575b50505050509150935093505050915091565b601060209081526000928352604080842090915290825290205481565b6001600160a01b0381166000908152600e60205260409020545b919050565b6005546001600160a01b031681565b600b818154811061161f57fe5b6000918252602090912001546001600160a01b0316905081565b6000611647426006546127a8565b905090565b600c6020526000908152604090205481565b600260015414156116a4576040805162461bcd60e51b815260206004820152601f6024820152600080516020612beb833981519152604482015290519081900360640190fd5b60026001556116b16126f3565b60005b600b5481101561183b576116ce600b8281548110610e9e57fe5b600c6000600b84815481106116df57fe5b60009182526020808320909101546001600160a01b0316835282019290925260400190205561170c611639565b600f6000600b848154811061171d57fe5b60009182526020808320909101546001600160a01b0390811684529083019390935260409091019020919091558216156118335761176282600b8381548110610f4c57fe5b6001600160a01b0383166000908152601160205260408120600b80549192918590811061178b57fe5b60009182526020808320909101546001600160a01b03168352820192909252604001812091909155600b8054600c929190849081106117c657fe5b60009182526020808320909101546001600160a01b039081168452838201949094526040928301822054938616825260109052908120600b80549192918590811061180d57fe5b60009182526020808320909101546001600160a01b031683528201929092526040019020555b6001016116b4565b5060008211611882576040805162461bcd60e51b815260206004820152600e60248201526d043616e6e6f74207374616b6520360941b604482015290519081900360640190fd5b600954611895908363ffffffff61257c16565b600955600e60006118a46126f3565b6001600160a01b031681526020810191909152604001600020546118ff57600a6118cc6126f3565b81546001810183556000928352602090922090910180546001600160a01b0319166001600160a01b039092169190911790555b61193582600e600061190f6126f3565b6001600160a01b031681526020810191909152604001600020549063ffffffff61257c16565b600e60006119416126f3565b6001600160a01b031681526020810191909152604001600020556119806119666126f3565b6005546001600160a01b031690308563ffffffff6127be16565b6119886126f3565b6001600160a01b03167f9e71bc8eea02a63969f509818f2dafb9254532904319f9dbda79b67bd34a5f3d836040518082815260200191505060405180910390a2505060018055565b6000546001600160a01b03163314611a195760405162461bcd60e51b815260040180806020018281038252602a815260200180612d0e602a913960400191505060405180910390fd5b6000805b600b54811015611ba457611a37600b8281548110610e9e57fe5b600c6000600b8481548110611a4857fe5b60009182526020808320909101546001600160a01b03168352820192909252604001902055611a75611639565b600f6000600b8481548110611a8657fe5b60009182526020808320909101546001600160a01b039081168452908301939093526040909101902091909155821615611b9c57611acb82600b8381548110610f4c57fe5b6001600160a01b0383166000908152601160205260408120600b805491929185908110611af457fe5b60009182526020808320909101546001600160a01b03168352820192909252604001812091909155600b8054600c92919084908110611b2f57fe5b60009182526020808320909101546001600160a01b039081168452838201949094526040928301822054938616825260109052908120600b805491929185908110611b7657fe5b60009182526020808320909101546001600160a01b031683528201929092526040019020555b600101611a1d565b506001600160a01b0383166000908152600d60205260409020546006544210611bfa57600754611bdb90849063ffffffff61268c16565b9050611bf26007544261257c90919063ffffffff16565b600655611c3f565b600654600090611c10904263ffffffff6125d616565b90506000611c24828463ffffffff61263316565b9050611c3a82610de0878463ffffffff61257c16565b925050505b604080516370a0823160e01b815230600482015290516000916001600160a01b038716916370a0823191602480820192602092909190829003018186803b158015611c8957600080fd5b505afa158015611c9d573d6000803e3d6000fd5b505050506040513d6020811015611cb357600080fd5b5051600654909150611cdc90611ccf904263ffffffff6125d616565b829063ffffffff61268c16565b821115611d30576040805162461bcd60e51b815260206004820152601860248201527f50726f76696465642072657761726420746f6f20686967680000000000000000604482015290519081900360640190fd5b6001600160a01b0385166000908152600f60209081526040808320429055600d825291829020849055815186815291517fde88a922e0d3b88b24e9623efeb464919c6bf9f66857a65e2bfcf2ce87a9433d9281900390910190a15050505050565b6007546001600160a01b0382166000908152600d60205260408120549091610dfb919063ffffffff61263316565b600a546060908190818167ffffffffffffffff81118015611ddf57600080fd5b50604051908082528060200260200182016040528015611e09578160200160208202803683370190505b50905060005b600a54811015611e7057600e6000600a8381548110611e2a57fe5b60009182526020808320909101546001600160a01b031683528201929092526040019020548251839083908110611e5d57fe5b6020908102919091010152600101611e0f565b50600a8181805480602002602001604051908101604052809291908181526020018280548015611ec957602002820191906000526020600020905b81546001600160a01b03168152600190910190602001808311611eab575b505050505091509350935050509091565b60085481565b601160209081526000928352604080842090915290825290205481565b611f32600e6000611f0c6126f3565b6001600160a01b03166001600160a01b0316815260200190815260200160002054610e2e565b611f3a611179565b565b600f6020526000908152604090205481565b60065481565b60026001541415611f9a576040805162461bcd60e51b815260206004820152601f6024820152600080516020612beb833981519152604482015290519081900360640190fd5b6002600155611fa76126f3565b60005b600b5481101561213157611fc4600b8281548110610e9e57fe5b600c6000600b8481548110611fd557fe5b60009182526020808320909101546001600160a01b03168352820192909252604001902055612002611639565b600f6000600b848154811061201357fe5b60009182526020808320909101546001600160a01b0390811684529083019390935260409091019020919091558216156121295761205882600b8381548110610f4c57fe5b6001600160a01b0383166000908152601160205260408120600b80549192918590811061208157fe5b60009182526020808320909101546001600160a01b03168352820192909252604001812091909155600b8054600c929190849081106120bc57fe5b60009182526020808320909101546001600160a01b039081168452838201949094526040928301822054938616825260109052908120600b80549192918590811061210357fe5b60009182526020808320909101546001600160a01b031683528201929092526040019020555b600101611faa565b5060008611612178576040805162461bcd60e51b815260206004820152600e60248201526d043616e6e6f74207374616b6520360941b604482015290519081900360640190fd5b60095461218b908763ffffffff61257c16565b60095561219e86600e600061190f6126f3565b600e60006121aa6126f3565b6001600160a01b0390811682526020820192909252604001600020919091556005541663d505accf6121da6126f3565b604080516001600160e01b031960e085901b1681526001600160a01b039092166004830152306024830152604482018a90526064820189905260ff8816608483015260a4820187905260c482018690525160e480830192600092919082900301818387803b15801561224b57600080fd5b505af115801561225f573d6000803e3d6000fd5b5050505061228861226e6126f3565b6005546001600160a01b031690308963ffffffff6127be16565b6122906126f3565b6001600160a01b03167f9e71bc8eea02a63969f509818f2dafb9254532904319f9dbda79b67bd34a5f3d876040518082815260200191505060405180910390a250506001805550505050565b60006009546000141561230857506001600160a01b0381166000908152600c60205260409020546115fe565b6009546001600160a01b0383166000908152600d6020908152604080832054600f90925290912054610dfb92612363929091610de091670de0b6b3a76400009161235791908290610daf611639565b9063ffffffff61263316565b6001600160a01b0384166000908152600c60205260409020549063ffffffff61257c16565b600b546060908190818167ffffffffffffffff811180156123a857600080fd5b506040519080825280602002602001820160405280156123d2578160200160208202803683370190505b50905060005b8281101561243757600d6000600b83815481106123f157fe5b60009182526020808320909101546001600160a01b03168352820192909252604001902054825183908390811061242457fe5b60209081029190910101526001016123d8565b50600b8181805480602002602001604051908101604052809291908181526020018280548015611ec9576020028201919060005260206000209081546001600160a01b03168152600190910190602001808311611eab57505050505091509350935050509091565b60006001600160a01b0386166124e65760405162461bcd60e51b8152600401808060200182810382526025815260200180612c746025913960400191505060405180910390fd5b60016124f96124f487612818565b6128a4565b83868660405160008152602001604052604051808581526020018460ff1660ff1681526020018381526020018281526020019450505050506020604051602081039080840390855afa158015612553573d6000803e3d6000fd5b505050602060405103516001600160a01b0316866001600160a01b031614905095945050505050565b600082820183811015610df8576040805162461bcd60e51b815260206004820152601b60248201527f536166654d6174683a206164646974696f6e206f766572666c6f770000000000604482015290519081900360640190fd5b60008282111561262d576040805162461bcd60e51b815260206004820152601e60248201527f536166654d6174683a207375627472616374696f6e206f766572666c6f770000604482015290519081900360640190fd5b50900390565b60008261264257506000610dfb565b8282028284828161264f57fe5b0414610df85760405162461bcd60e51b8152600401808060200182810382526021815260200180612c996021913960400191505060405180910390fd5b60008082116126e2576040805162461bcd60e51b815260206004820152601a60248201527f536166654d6174683a206469766973696f6e206279207a65726f000000000000604482015290519081900360640190fd5b8183816126eb57fe5b049392505050565b60003330141561274b5760606000368080601f0160208091040260200160405190810160405280939291908181526020018383808284376000920191909152505050503601516001600160a01b0316915061274e9050565b50335b90565b604080516001600160a01b038416602482015260448082018490528251808303909101815260649091019091526020810180516001600160e01b031663a9059cbb60e01b1790526127a39084906128f0565b505050565b60008183106127b75781610df8565b5090919050565b604080516001600160a01b0380861660248301528416604482015260648082018490528251808303909101815260849091019091526020810180516001600160e01b03166323b872dd60e01b179052610d429085906128f0565b6000604051806080016040528060438152602001612c0b60439139805190602001208260000151836020015184604001518051906020012060405160200180858152602001848152602001836001600160a01b03166001600160a01b03168152602001828152602001945050505050604051602081830303815290604052805190602001209050919050565b60006128ae610d48565b82604051602001808061190160f01b81525060020183815260200182815260200192505050604051602081830303815290604052805190602001209050919050565b6060612945826040518060400160405280602081526020017f5361666545524332303a206c6f772d6c6576656c2063616c6c206661696c6564815250856001600160a01b03166129a19092919063ffffffff16565b8051909150156127a35780806020019051602081101561296457600080fd5b50516127a35760405162461bcd60e51b815260040180806020018281038252602a815260200180612d38602a913960400191505060405180910390fd5b60606129b084846000856129ba565b90505b9392505050565b6060824710156129fb5760405162461bcd60e51b8152600401808060200182810382526026815260200180612c4e6026913960400191505060405180910390fd5b612a0485612b16565b612a55576040805162461bcd60e51b815260206004820152601d60248201527f416464726573733a2063616c6c20746f206e6f6e2d636f6e7472616374000000604482015290519081900360640190fd5b60006060866001600160a01b031685876040518082805190602001908083835b60208310612a945780518252601f199092019160209182019101612a75565b6001836020036101000a03801982511681845116808217855250505050505090500191505060006040518083038185875af1925050503d8060008114612af6576040519150601f19603f3d011682016040523d82523d6000602084013e612afb565b606091505b5091509150612b0b828286612b1c565b979650505050505050565b3b151590565b60608315612b2b5750816129b3565b825115612b3b5782518084602001fd5b8160405162461bcd60e51b81526004018080602001828103825283818151815260200191508051906020019080838360005b83811015612b85578181015183820152602001612b6d565b50505050905090810190601f168015612bb25780820380516001836020036101000a031916815260200191505b509250505060405180910390fd5b60405180606001604052806000815260200160006001600160a01b0316815260200160608152509056fe5265656e7472616e637947756172643a207265656e7472616e742063616c6c004d6574615472616e73616374696f6e2875696e74323536206e6f6e63652c616464726573732066726f6d2c62797465732066756e6374696f6e5369676e617475726529416464726573733a20696e73756666696369656e742062616c616e636520666f722063616c6c4e61746976654d6574615472616e73616374696f6e3a20494e56414c49445f5349474e4552536166654d6174683a206d756c7469706c69636174696f6e206f766572666c6f775369676e657220616e64207369676e617475726520646f206e6f74206d617463685374616b696e67526577617264733a20726573637565206f66207374616b696e6720746f6b656e206e6f7420616c6c6f77656443616c6c6572206973206e6f742052657761726473446973747269627574696f6e20636f6e74726163745361666545524332303a204552433230206f7065726174696f6e20646964206e6f742073756363656564a26469706673582212209a11f5399758a24ed3e882367150970a3fb6207ab798e3b834770e114f51075464736f6c634300060b0033454950373132446f6d61696e28737472696e67206e616d652c737472696e672076657273696f6e2c6164647265737320766572696679696e67436f6e74726163742c627974657333322073616c7429"
}