{
    "abi": [
        {
            "inputs": [
                {
                    "internalType": "address",
                    "name": "_vaultToken",
                    "type": "address"
                },
                {
                    "internalType": "uint256",
                    "name": "_vestingPeriod",
                    "type": "uint256"
                },
                {
                    "internalType": "uint256",
                    "name": "_interestRate",
                    "type": "uint256"
                },
                {
                    "internalType": "uint256",
                    "name": "_vaultLimit",
                    "type": "uint256"
                }
            ],
            "stateMutability": "nonpayable",
            "type": "constructor"
        },
        {
            "anonymous": false,
            "inputs": [
                {
                    "indexed": true,
                    "internalType": "address",
                    "name": "user",
                    "type": "address"
                },
                {
                    "indexed": false,
                    "internalType": "uint256",
                    "name": "reward",
                    "type": "uint256"
                }
            ],
            "name": "Claimed",
            "type": "event"
        },
        {
            "anonymous": false,
            "inputs": [
                {
                    "indexed": false,
                    "internalType": "address",
                    "name": "userAddress",
                    "type": "address"
                },
                {
                    "indexed": false,
                    "internalType": "address payable",
                    "name": "relayerAddress",
                    "type": "address"
                },
                {
                    "indexed": false,
                    "internalType": "bytes",
                    "name": "functionSignature",
                    "type": "bytes"
                }
            ],
            "name": "MetaTransactionExecuted",
            "type": "event"
        },
        {
            "anonymous": false,
            "inputs": [
                {
                    "indexed": true,
                    "internalType": "address",
                    "name": "user",
                    "type": "address"
                },
                {
                    "indexed": false,
                    "internalType": "uint256",
                    "name": "amount",
                    "type": "uint256"
                }
            ],
            "name": "Staked",
            "type": "event"
        },
        {
            "inputs": [],
            "name": "ERC712_VERSION",
            "outputs": [
                {
                    "internalType": "string",
                    "name": "",
                    "type": "string"
                }
            ],
            "stateMutability": "view",
            "type": "function"
        },
        {
            "inputs": [
                {
                    "internalType": "address",
                    "name": "account",
                    "type": "address"
                }
            ],
            "name": "balanceOf",
            "outputs": [
                {
                    "internalType": "uint256",
                    "name": "",
                    "type": "uint256"
                }
            ],
            "stateMutability": "view",
            "type": "function"
        },
        {
            "inputs": [],
            "name": "claim",
            "outputs": [],
            "stateMutability": "nonpayable",
            "type": "function"
        },
        {
            "inputs": [
                {
                    "internalType": "address",
                    "name": "account",
                    "type": "address"
                }
            ],
            "name": "earned",
            "outputs": [
                {
                    "internalType": "uint256",
                    "name": "",
                    "type": "uint256"
                }
            ],
            "stateMutability": "view",
            "type": "function"
        },
        {
            "inputs": [
                {
                    "internalType": "address",
                    "name": "userAddress",
                    "type": "address"
                },
                {
                    "internalType": "bytes",
                    "name": "functionSignature",
                    "type": "bytes"
                },
                {
                    "internalType": "bytes32",
                    "name": "sigR",
                    "type": "bytes32"
                },
                {
                    "internalType": "bytes32",
                    "name": "sigS",
                    "type": "bytes32"
                },
                {
                    "internalType": "uint8",
                    "name": "sigV",
                    "type": "uint8"
                }
            ],
            "name": "executeMetaTransaction",
            "outputs": [
                {
                    "internalType": "bytes",
                    "name": "",
                    "type": "bytes"
                }
            ],
            "stateMutability": "payable",
            "type": "function"
        },
        {
            "inputs": [],
            "name": "getChainId",
            "outputs": [
                {
                    "internalType": "uint256",
                    "name": "",
                    "type": "uint256"
                }
            ],
            "stateMutability": "pure",
            "type": "function"
        },
        {
            "inputs": [],
            "name": "getDomainSeperator",
            "outputs": [
                {
                    "internalType": "bytes32",
                    "name": "",
                    "type": "bytes32"
                }
            ],
            "stateMutability": "view",
            "type": "function"
        },
        {
            "inputs": [
                {
                    "internalType": "address",
                    "name": "user",
                    "type": "address"
                }
            ],
            "name": "getNonce",
            "outputs": [
                {
                    "internalType": "uint256",
                    "name": "nonce",
                    "type": "uint256"
                }
            ],
            "stateMutability": "view",
            "type": "function"
        },
        {
            "inputs": [
                {
                    "internalType": "address",
                    "name": "account",
                    "type": "address"
                }
            ],
            "name": "getUserVaultInfo",
            "outputs": [
                {
                    "components": [
                        {
                            "internalType": "uint256",
                            "name": "amount",
                            "type": "uint256"
                        },
                        {
                            "internalType": "uint256",
                            "name": "depositTime",
                            "type": "uint256"
                        },
                        {
                            "internalType": "uint256",
                            "name": "vestingPeriodEnds",
                            "type": "uint256"
                        },
                        {
                            "internalType": "uint256",
                            "name": "lastUpdated",
                            "type": "uint256"
                        },
                        {
                            "internalType": "uint256",
                            "name": "claimedAmount",
                            "type": "uint256"
                        },
                        {
                            "internalType": "uint256",
                            "name": "totalEarned",
                            "type": "uint256"
                        }
                    ],
                    "internalType": "struct Vault.UserVault[]",
                    "name": "",
                    "type": "tuple[]"
                }
            ],
            "stateMutability": "view",
            "type": "function"
        },
        {
            "inputs": [],
            "name": "interestRate",
            "outputs": [
                {
                    "internalType": "uint256",
                    "name": "",
                    "type": "uint256"
                }
            ],
            "stateMutability": "view",
            "type": "function"
        },
        {
            "inputs": [
                {
                    "internalType": "uint256",
                    "name": "amount",
                    "type": "uint256"
                }
            ],
            "name": "stake",
            "outputs": [],
            "stateMutability": "nonpayable",
            "type": "function"
        },
        {
            "inputs": [],
            "name": "totalDeposits",
            "outputs": [
                {
                    "internalType": "uint256",
                    "name": "",
                    "type": "uint256"
                }
            ],
            "stateMutability": "view",
            "type": "function"
        },
        {
            "inputs": [],
            "name": "totalSupply",
            "outputs": [
                {
                    "internalType": "uint256",
                    "name": "",
                    "type": "uint256"
                }
            ],
            "stateMutability": "view",
            "type": "function"
        },
        {
            "inputs": [
                {
                    "internalType": "address",
                    "name": "",
                    "type": "address"
                },
                {
                    "internalType": "uint256",
                    "name": "",
                    "type": "uint256"
                }
            ],
            "name": "userVault",
            "outputs": [
                {
                    "internalType": "uint256",
                    "name": "amount",
                    "type": "uint256"
                },
                {
                    "internalType": "uint256",
                    "name": "depositTime",
                    "type": "uint256"
                },
                {
                    "internalType": "uint256",
                    "name": "vestingPeriodEnds",
                    "type": "uint256"
                },
                {
                    "internalType": "uint256",
                    "name": "lastUpdated",
                    "type": "uint256"
                },
                {
                    "internalType": "uint256",
                    "name": "claimedAmount",
                    "type": "uint256"
                },
                {
                    "internalType": "uint256",
                    "name": "totalEarned",
                    "type": "uint256"
                }
            ],
            "stateMutability": "view",
            "type": "function"
        },
        {
            "inputs": [],
            "name": "vaultLimit",
            "outputs": [
                {
                    "internalType": "uint256",
                    "name": "",
                    "type": "uint256"
                }
            ],
            "stateMutability": "view",
            "type": "function"
        },
        {
            "inputs": [],
            "name": "vaultToken",
            "outputs": [
                {
                    "internalType": "contract IERC20",
                    "name": "",
                    "type": "address"
                }
            ],
            "stateMutability": "view",
            "type": "function"
        },
        {
            "inputs": [],
            "name": "vestingPeriod",
            "outputs": [
                {
                    "internalType": "uint256",
                    "name": "",
                    "type": "uint256"
                }
            ],
            "stateMutability": "view",
            "type": "function"
        }
    ],
    "bytecode": "60806040526001805460ff191690553480156200001b57600080fd5b5060405162001db338038062001db38339810160408190526200003e9162000269565b6001600055600480546001600160a01b0319166001600160a01b0386161790556200007e81670de0b6b3a7640000620000f7602090811b62000dc717901c565b6006556200009a82606462000149602090811b62000e0a17901c565b600755620000b88362015180620000f7602090811b62000dc717901c565b6005556040805180820190915260078152665661756c74563160c81b6020820152620000ed906001600160e01b036200017116565b5050505062000380565b600082620001085750600062000143565b828202828482816200011657fe5b0414620001405760405162461bcd60e51b8152600401620001379062000317565b60405180910390fd5b90505b92915050565b600082820183811015620001405760405162461bcd60e51b81526004016200013790620002e0565b60015460ff1615620001975760405162461bcd60e51b8152600401620001379062000358565b620001ab816001600160e01b03620001ba16565b506001805460ff191681179055565b6040518060800160405280604f815260200162001d64604f913980516020918201208251838301206040805180820190915260018152603160f81b930192909252907fc89efdaa54c0f20c7adf612882df0950f5a951637e0307cdcb4c672f298b8bc630620002316001600160e01b036200026516565b60405162000247959493929190602001620002b4565b60408051601f19818403018152919052805160209091012060025550565b4690565b600080600080608085870312156200027f578384fd5b84516001600160a01b038116811462000296578485fd5b60208601516040870151606090970151919890975090945092505050565b948552602085019390935260408401919091526001600160a01b03166060830152608082015260a00190565b6020808252601b908201527f536166654d6174683a206164646974696f6e206f766572666c6f770000000000604082015260600190565b60208082526021908201527f536166654d6174683a206d756c7469706c69636174696f6e206f766572666c6f6040820152607760f81b606082015260800190565b6020808252600e908201526d185b1c9958591e481a5b9a5d195960921b604082015260600190565b6119d480620003906000396000f3fe6080604052600436106100fd5760003560e01c8063703bafd5116100955780637d882097116100645780637d8820971461024f578063a694fc3a14610264578063d43eb23d14610284578063dc7e676c146102b6578063e81a5c73146102e3576100fd565b8063703bafd5146101e357806370a08231146102055780637313ee5a146102255780637c3a00fd1461023a576100fd565b806320379ee5116100d157806320379ee5146101825780632d0335ab146101975780633408e470146101b75780634e71d92d146101cc576100fd565b80628cc262146101025780630c53c51c146101385780630f7e59701461015857806318160ddd1461016d575b600080fd5b34801561010e57600080fd5b5061012261011d3660046112b9565b6102f8565b60405161012f919061158a565b60405180910390f35b61014b6101463660046112d4565b6104d9565b60405161012f91906115d5565b34801561016457600080fd5b5061014b610673565b34801561017957600080fd5b50610122610690565b34801561018e57600080fd5b50610122610696565b3480156101a357600080fd5b506101226101b23660046112b9565b61069c565b3480156101c357600080fd5b506101226106b7565b3480156101d857600080fd5b506101e16106bb565b005b3480156101ef57600080fd5b506101f8610a3b565b60405161012f91906115e8565b34801561021157600080fd5b506101226102203660046112b9565b610a4a565b34801561023157600080fd5b50610122610a65565b34801561024657600080fd5b50610122610a6b565b34801561025b57600080fd5b50610122610a71565b34801561027057600080fd5b506101e161027f3660046113ee565b610a77565b34801561029057600080fd5b506102a461029f3660046113a4565b610cbf565b60405161012f96959493929190611907565b3480156102c257600080fd5b506102d66102d13660046112b9565b610d10565b60405161012f9190611512565b3480156102ef57600080fd5b50610122610dc1565b6001600160a01b03811660009081526008602090815260408083208054825181850281018501909352808352606093859084015b8282101561039a57838290600052602060002090600602016040518060c001604052908160008201548152602001600182015481526020016002820154815260200160038201548152602001600482015481526020016005820154815250508152602001906001019061032c565b5092935060009250829150505b82518110156104d1578281815181106103bc57fe5b6020026020010151608001518382815181106103d457fe5b602002602001015160000151116103ea576104c9565b60008382815181106103f857fe5b60200260200101516040015142116104105742610429565b83828151811061041c57fe5b6020026020010151604001515b9050600061045785848151811061043c57fe5b60200260200101516060015183610e2f90919063ffffffff16565b9050600061049760055461048b8489888151811061047157fe5b602002602001015160000151610dc790919063ffffffff16565b9063ffffffff610e5716565b90506104c36104b6606461048b60075485610dc790919063ffffffff16565b869063ffffffff610e0a16565b94505050505b6001016103a7565b509392505050565b60606104e3611231565b50604080516060810182526001600160a01b038816600081815260036020908152908490205483528201529081018690526105218782878787610e89565b6105465760405162461bcd60e51b815260040161053d9061180e565b60405180910390fd5b6001600160a01b03871660009081526003602052604090205461057090600163ffffffff610e0a16565b6001600160a01b0388166000908152600360205260409081902091909155517f5845892132946850460bff5a0083f71031bc5bf9aadcd40f1de79423eac9b10b906105c090899033908a906114a0565b60405180910390a160006060306001600160a01b0316888a6040516020016105e992919061144e565b60408051601f198184030181529082905261060391611432565b6000604051808303816000865af19150503d8060008114610640576040519150601f19603f3d011682016040523d82523d6000602084013e610645565b606091505b5091509150816106675760405162461bcd60e51b815260040161053d906115fc565b98975050505050505050565b604051806040016040528060018152602001603160f81b81525081565b60095490565b60025490565b6001600160a01b031660009081526003602052604090205490565b4690565b600260005414156106de5760405162461bcd60e51b815260040161053d906118d0565b60026000908155338152600b602052604090205415610a345733600090815260086020526040812090805b82548110156109d25782818154811061071e57fe5b90600052602060002090600602016004015483828154811061073c57fe5b90600052602060002090600602016000015411610758576109ca565b600083828154811061076657fe5b906000526020600020906006020160020154421161078457426107a3565b83828154811061079057fe5b9060005260206000209060060201600201545b905060006107d78584815481106107b657fe5b90600052602060002090600602016003015483610e2f90919063ffffffff16565b9050600061080e60055461048b848988815481106107f157fe5b60009182526020909120600690910201549063ffffffff610dc716565b905085848154811061081c57fe5b9060005260206000209060060201600201548314156108825761087f86858154811061084457fe5b90600052602060002090600602016004015487868154811061086257fe5b60009182526020909120600690910201549063ffffffff610e2f16565b90505b61089f6104b6606461048b60075485610dc790919063ffffffff16565b94506108d1818786815481106108b157fe5b906000526020600020906006020160040154610e0a90919063ffffffff16565b8685815481106108dd57fe5b90600052602060002090600602016004018190555061093b61090f606461048b60075485610dc790919063ffffffff16565b87868154811061091b57fe5b906000526020600020906006020160050154610e0a90919063ffffffff16565b86858154811061094757fe5b600091825260209091206005600690920201015560095461096e908263ffffffff610e2f16565b600955336000908152600b6020526040902054610991908263ffffffff610e2f16565b336000908152600b6020526040902055855483908790869081106109b157fe5b9060005260206000209060060201600301819055505050505b600101610709565b506004546109f0906001600160a01b0316338363ffffffff610f2f16565b336001600160a01b03167fd8138f8a3f377c5259ca548e70e4c2de94f129f5a11036a15b69513cba2b426a82604051610a29919061158a565b60405180910390a250505b6001600055565b6004546001600160a01b031681565b6001600160a01b03166000908152600b602052604090205490565b60055481565b60075481565b600a5490565b60026000541415610a9a5760405162461bcd60e51b815260040161053d906118d0565b600260005580610abc5760405162461bcd60e51b815260040161053d90611633565b600654600a54610ad2908363ffffffff610e0a16565b1115610af05760405162461bcd60e51b815260040161053d90611692565b600954610b03908263ffffffff610e0a16565b600955600a54610b19908263ffffffff610e0a16565b600a55610b5281600b6000610b2c610f8a565b6001600160a01b031681526020810191909152604001600020549063ffffffff610e0a16565b600b6000610b5e610f8a565b6001600160a01b03168152602081019190915260400160002055610b9d610b83610f8a565b6004546001600160a01b031690308463ffffffff610fe816565b600060086000610bab610f8a565b6001600160a01b03166001600160a01b031681526020019081526020016000209050610bd561125b565b6040518060c00160405280848152602001428152602001610c0160055442610e0a90919063ffffffff16565b815242602080830191909152600060408084018290526060938401829052865460018181018955888452928490208651600690920201908155928501519183019190915583015160028201559082015160038201556080820151600482015560a08201516005909101559050610c75610f8a565b6001600160a01b03167f9e71bc8eea02a63969f509818f2dafb9254532904319f9dbda79b67bd34a5f3d84604051610cad919061158a565b60405180910390a25050600160005550565b60086020528160005260406000208181548110610cd857fe5b600091825260209091206006909102018054600182015460028301546003840154600485015460059095015493965091945092909186565b6001600160a01b0381166000908152600860209081526040808320805482518185028101850190935280835260609492939192909184015b82821015610db657838290600052602060002090600602016040518060c0016040529081600082015481526020016001820154815260200160028201548152602001600382015481526020016004820154815260200160058201548152505081526020019060010190610d48565b505050509050919050565b60065481565b600082610dd657506000610e04565b82820282848281610de357fe5b0414610e015760405162461bcd60e51b815260040161053d906117cd565b90505b92915050565b600082820183811015610e015760405162461bcd60e51b815260040161053d9061165b565b600082821115610e515760405162461bcd60e51b815260040161053d906116d4565b50900390565b6000808211610e785760405162461bcd60e51b815260040161053d90611751565b818381610e8157fe5b049392505050565b60006001600160a01b038616610eb15760405162461bcd60e51b815260040161053d90611788565b6001610ec4610ebf8761100f565b61106d565b83868660405160008152602001604052604051610ee494939291906115b7565b6020604051602081039080840390855afa158015610f06573d6000803e3d6000fd5b505050602060405103516001600160a01b0316866001600160a01b031614905095945050505050565b610f858363a9059cbb60e01b8484604051602401610f4e9291906114f9565b60408051601f198184030181529190526020810180516001600160e01b03166001600160e01b031990931692909217909152611089565b505050565b600033301415610fe25760606000368080601f0160208091040260200160405190810160405280939291908181526020018383808284376000920191909152505050503601516001600160a01b03169150610fe59050565b50335b90565b611009846323b872dd60e01b858585604051602401610f4e939291906114d5565b50505050565b600060405180608001604052806043815260200161195c60439139805160209182012083518483015160408087015180519086012090516110509501611593565b604051602081830303815290604052805190602001209050919050565b6000611077610696565b82604051602001611050929190611485565b60606110de826040518060400160405280602081526020017f5361666545524332303a206c6f772d6c6576656c2063616c6c206661696c6564815250856001600160a01b03166111189092919063ffffffff16565b805190915015610f8557808060200190518101906110fc91906113ce565b610f855760405162461bcd60e51b815260040161053d90611886565b60606111278484600085611131565b90505b9392505050565b6060824710156111535760405162461bcd60e51b815260040161053d9061170b565b61115c856111f2565b6111785760405162461bcd60e51b815260040161053d9061184f565b60006060866001600160a01b031685876040516111959190611432565b60006040518083038185875af1925050503d80600081146111d2576040519150601f19603f3d011682016040523d82523d6000602084013e6111d7565b606091505b50915091506111e78282866111f8565b979650505050505050565b3b151590565b6060831561120757508161112a565b8251156112175782518084602001fd5b8160405162461bcd60e51b815260040161053d91906115d5565b60405180606001604052806000815260200160006001600160a01b03168152602001606081525090565b6040518060c001604052806000815260200160008152602001600081526020016000815260200160008152602001600081525090565b80356001600160a01b0381168114610e0457600080fd5b803560ff81168114610e0457600080fd5b6000602082840312156112ca578081fd5b61112a8383611291565b600080600080600060a086880312156112eb578081fd5b6112f58787611291565b945060208087013567ffffffffffffffff80821115611312578384fd5b8189018a601f820112611323578485fd5b8035925081831115611333578485fd5b604051601f8401601f1916810185018381118282101715611352578687fd5b60405283815281840185018c1015611368578586fd5b838583018683013792830190930184905250945050604086013592506060860135915061139887608088016112a8565b90509295509295909350565b600080604083850312156113b6578182fd5b6113c08484611291565b946020939093013593505050565b6000602082840312156113df578081fd5b81518015158114610e01578182fd5b6000602082840312156113ff578081fd5b5035919050565b6000815180845261141e81602086016020860161192f565b601f01601f19169290920160200192915050565b6000825161144481846020870161192f565b9190910192915050565b6000835161146081846020880161192f565b60609390931b6bffffffffffffffffffffffff19169190920190815260140192915050565b61190160f01b81526002810192909252602282015260420190565b6001600160a01b038481168252831660208201526060604082018190526000906114cc90830184611406565b95945050505050565b6001600160a01b039384168152919092166020820152604081019190915260600190565b6001600160a01b03929092168252602082015260400190565b602080825282518282018190526000919060409081850190868401855b8281101561157d5781518051855286810151878601528581015186860152606080820151908601526080808201519086015260a0908101519085015260c0909301929085019060010161152f565b5091979650505050505050565b90815260200190565b93845260208401929092526001600160a01b03166040830152606082015260800190565b93845260ff9290921660208401526040830152606082015260800190565b60006020825261112a6020830184611406565b6001600160a01b0391909116815260200190565b6020808252601c908201527f46756e6374696f6e2063616c6c206e6f74207375636365737366756c00000000604082015260600190565b6020808252600e908201526d043616e6e6f74207374616b6520360941b604082015260600190565b6020808252601b908201527f536166654d6174683a206164646974696f6e206f766572666c6f770000000000604082015260600190565b60208082526022908201527f5661756c743a7374616b653a3a207661756c74206c696d697420657863656564604082015261195960f21b606082015260800190565b6020808252601e908201527f536166654d6174683a207375627472616374696f6e206f766572666c6f770000604082015260600190565b60208082526026908201527f416464726573733a20696e73756666696369656e742062616c616e636520666f6040820152651c8818d85b1b60d21b606082015260800190565b6020808252601a908201527f536166654d6174683a206469766973696f6e206279207a65726f000000000000604082015260600190565b60208082526025908201527f4e61746976654d6574615472616e73616374696f6e3a20494e56414c49445f5360408201526424a3a722a960d91b606082015260800190565b60208082526021908201527f536166654d6174683a206d756c7469706c69636174696f6e206f766572666c6f6040820152607760f81b606082015260800190565b60208082526021908201527f5369676e657220616e64207369676e617475726520646f206e6f74206d6174636040820152600d60fb1b606082015260800190565b6020808252601d908201527f416464726573733a2063616c6c20746f206e6f6e2d636f6e7472616374000000604082015260600190565b6020808252602a908201527f5361666545524332303a204552433230206f7065726174696f6e20646964206e6040820152691bdd081cdd58d8d9595960b21b606082015260800190565b6020808252601f908201527f5265656e7472616e637947756172643a207265656e7472616e742063616c6c00604082015260600190565b958652602086019490945260408501929092526060840152608083015260a082015260c00190565b60005b8381101561194a578181015183820152602001611932565b83811115611009575050600091015256fe4d6574615472616e73616374696f6e2875696e74323536206e6f6e63652c616464726573732066726f6d2c62797465732066756e6374696f6e5369676e617475726529a2646970667358221220f9d0a78e4fd27bd7a7823ade10ea30c9f996dba6e5977d58a72bd27a1e27f61a64736f6c634300060b0033454950373132446f6d61696e28737472696e67206e616d652c737472696e672076657273696f6e2c6164647265737320766572696679696e67436f6e74726163742c627974657333322073616c7429"
}