{
    "abi": [
        {
            "inputs": [
                {
                    "internalType": "address",
                    "name": "_vaultToken",
                    "type": "address"
                },
                {
                    "internalType": "uint256",
                    "name": "_vestingPeriod",
                    "type": "uint256"
                },
                {
                    "internalType": "uint256",
                    "name": "_interestRate",
                    "type": "uint256"
                },
                {
                    "internalType": "uint256",
                    "name": "_vaultLimit",
                    "type": "uint256"
                }
            ],
            "stateMutability": "nonpayable",
            "type": "constructor"
        },
        {
            "anonymous": false,
            "inputs": [
                {
                    "indexed": true,
                    "internalType": "address",
                    "name": "user",
                    "type": "address"
                },
                {
                    "indexed": false,
                    "internalType": "uint256",
                    "name": "reward",
                    "type": "uint256"
                }
            ],
            "name": "Claimed",
            "type": "event"
        },
        {
            "anonymous": false,
            "inputs": [
                {
                    "indexed": false,
                    "internalType": "address",
                    "name": "userAddress",
                    "type": "address"
                },
                {
                    "indexed": false,
                    "internalType": "address payable",
                    "name": "relayerAddress",
                    "type": "address"
                },
                {
                    "indexed": false,
                    "internalType": "bytes",
                    "name": "functionSignature",
                    "type": "bytes"
                }
            ],
            "name": "MetaTransactionExecuted",
            "type": "event"
        },
        {
            "anonymous": false,
            "inputs": [
                {
                    "indexed": true,
                    "internalType": "address",
                    "name": "user",
                    "type": "address"
                },
                {
                    "indexed": false,
                    "internalType": "uint256",
                    "name": "amount",
                    "type": "uint256"
                }
            ],
            "name": "Staked",
            "type": "event"
        },
        {
            "inputs": [],
            "name": "ERC712_VERSION",
            "outputs": [
                {
                    "internalType": "string",
                    "name": "",
                    "type": "string"
                }
            ],
            "stateMutability": "view",
            "type": "function"
        },
        {
            "inputs": [
                {
                    "internalType": "address",
                    "name": "account",
                    "type": "address"
                }
            ],
            "name": "balanceOf",
            "outputs": [
                {
                    "internalType": "uint256",
                    "name": "",
                    "type": "uint256"
                }
            ],
            "stateMutability": "view",
            "type": "function"
        },
        {
            "inputs": [],
            "name": "claim",
            "outputs": [],
            "stateMutability": "nonpayable",
            "type": "function"
        },
        {
            "inputs": [
                {
                    "internalType": "address",
                    "name": "account",
                    "type": "address"
                }
            ],
            "name": "earned",
            "outputs": [
                {
                    "internalType": "uint256",
                    "name": "",
                    "type": "uint256"
                }
            ],
            "stateMutability": "view",
            "type": "function"
        },
        {
            "inputs": [
                {
                    "internalType": "address",
                    "name": "userAddress",
                    "type": "address"
                },
                {
                    "internalType": "bytes",
                    "name": "functionSignature",
                    "type": "bytes"
                },
                {
                    "internalType": "bytes32",
                    "name": "sigR",
                    "type": "bytes32"
                },
                {
                    "internalType": "bytes32",
                    "name": "sigS",
                    "type": "bytes32"
                },
                {
                    "internalType": "uint8",
                    "name": "sigV",
                    "type": "uint8"
                }
            ],
            "name": "executeMetaTransaction",
            "outputs": [
                {
                    "internalType": "bytes",
                    "name": "",
                    "type": "bytes"
                }
            ],
            "stateMutability": "payable",
            "type": "function"
        },
        {
            "inputs": [],
            "name": "getChainId",
            "outputs": [
                {
                    "internalType": "uint256",
                    "name": "",
                    "type": "uint256"
                }
            ],
            "stateMutability": "pure",
            "type": "function"
        },
        {
            "inputs": [],
            "name": "getDomainSeperator",
            "outputs": [
                {
                    "internalType": "bytes32",
                    "name": "",
                    "type": "bytes32"
                }
            ],
            "stateMutability": "view",
            "type": "function"
        },
        {
            "inputs": [
                {
                    "internalType": "address",
                    "name": "user",
                    "type": "address"
                }
            ],
            "name": "getNonce",
            "outputs": [
                {
                    "internalType": "uint256",
                    "name": "nonce",
                    "type": "uint256"
                }
            ],
            "stateMutability": "view",
            "type": "function"
        },
        {
            "inputs": [
                {
                    "internalType": "address",
                    "name": "account",
                    "type": "address"
                }
            ],
            "name": "getUserVaultInfo",
            "outputs": [
                {
                    "components": [
                        {
                            "internalType": "uint256",
                            "name": "amount",
                            "type": "uint256"
                        },
                        {
                            "internalType": "uint256",
                            "name": "depositTime",
                            "type": "uint256"
                        },
                        {
                            "internalType": "uint256",
                            "name": "vestingPeriodEnds",
                            "type": "uint256"
                        },
                        {
                            "internalType": "uint256",
                            "name": "lastUpdated",
                            "type": "uint256"
                        },
                        {
                            "internalType": "uint256",
                            "name": "claimedAmount",
                            "type": "uint256"
                        },
                        {
                            "internalType": "uint256",
                            "name": "totalEarned",
                            "type": "uint256"
                        }
                    ],
                    "internalType": "struct Vault.UserVault[]",
                    "name": "",
                    "type": "tuple[]"
                }
            ],
            "stateMutability": "view",
            "type": "function"
        },
        {
            "inputs": [],
            "name": "interestRate",
            "outputs": [
                {
                    "internalType": "uint256",
                    "name": "",
                    "type": "uint256"
                }
            ],
            "stateMutability": "view",
            "type": "function"
        },
        {
            "inputs": [
                {
                    "internalType": "uint256",
                    "name": "amount",
                    "type": "uint256"
                }
            ],
            "name": "stake",
            "outputs": [],
            "stateMutability": "nonpayable",
            "type": "function"
        },
        {
            "inputs": [],
            "name": "totalSupply",
            "outputs": [
                {
                    "internalType": "uint256",
                    "name": "",
                    "type": "uint256"
                }
            ],
            "stateMutability": "view",
            "type": "function"
        },
        {
            "inputs": [
                {
                    "internalType": "address",
                    "name": "",
                    "type": "address"
                },
                {
                    "internalType": "uint256",
                    "name": "",
                    "type": "uint256"
                }
            ],
            "name": "userVault",
            "outputs": [
                {
                    "internalType": "uint256",
                    "name": "amount",
                    "type": "uint256"
                },
                {
                    "internalType": "uint256",
                    "name": "depositTime",
                    "type": "uint256"
                },
                {
                    "internalType": "uint256",
                    "name": "vestingPeriodEnds",
                    "type": "uint256"
                },
                {
                    "internalType": "uint256",
                    "name": "lastUpdated",
                    "type": "uint256"
                },
                {
                    "internalType": "uint256",
                    "name": "claimedAmount",
                    "type": "uint256"
                },
                {
                    "internalType": "uint256",
                    "name": "totalEarned",
                    "type": "uint256"
                }
            ],
            "stateMutability": "view",
            "type": "function"
        },
        {
            "inputs": [],
            "name": "vaultLimit",
            "outputs": [
                {
                    "internalType": "uint256",
                    "name": "",
                    "type": "uint256"
                }
            ],
            "stateMutability": "view",
            "type": "function"
        },
        {
            "inputs": [],
            "name": "vaultToken",
            "outputs": [
                {
                    "internalType": "contract IERC20",
                    "name": "",
                    "type": "address"
                }
            ],
            "stateMutability": "view",
            "type": "function"
        },
        {
            "inputs": [],
            "name": "vestingPeriod",
            "outputs": [
                {
                    "internalType": "uint256",
                    "name": "",
                    "type": "uint256"
                }
            ],
            "stateMutability": "view",
            "type": "function"
        }
    ],
    "bytecode": "60806040526001805460ff191690553480156200001b57600080fd5b5060405162001d8d38038062001d8d8339810160408190526200003e9162000269565b6001600055600480546001600160a01b0319166001600160a01b0386161790556200007e81670de0b6b3a7640000620000f7602090811b62000da117901c565b6006556200009a82606462000149602090811b62000de417901c565b600755620000b88362015180620000f7602090811b62000da117901c565b6005556040805180820190915260078152665661756c74563160c81b6020820152620000ed906001600160e01b036200017116565b5050505062000380565b600082620001085750600062000143565b828202828482816200011657fe5b0414620001405760405162461bcd60e51b8152600401620001379062000317565b60405180910390fd5b90505b92915050565b600082820183811015620001405760405162461bcd60e51b81526004016200013790620002e0565b60015460ff1615620001975760405162461bcd60e51b8152600401620001379062000358565b620001ab816001600160e01b03620001ba16565b506001805460ff191681179055565b6040518060800160405280604f815260200162001d3e604f913980516020918201208251838301206040805180820190915260018152603160f81b930192909252907fc89efdaa54c0f20c7adf612882df0950f5a951637e0307cdcb4c672f298b8bc630620002316001600160e01b036200026516565b60405162000247959493929190602001620002b4565b60408051601f19818403018152919052805160209091012060025550565b4690565b600080600080608085870312156200027f578384fd5b84516001600160a01b038116811462000296578485fd5b60208601516040870151606090970151919890975090945092505050565b948552602085019390935260408401919091526001600160a01b03166060830152608082015260a00190565b6020808252601b908201527f536166654d6174683a206164646974696f6e206f766572666c6f770000000000604082015260600190565b60208082526021908201527f536166654d6174683a206d756c7469706c69636174696f6e206f766572666c6f6040820152607760f81b606082015260800190565b6020808252600e908201526d185b1c9958591e481a5b9a5d195960921b604082015260600190565b6119ae80620003906000396000f3fe6080604052600436106100f25760003560e01c8063703bafd51161008a578063a694fc3a11610059578063a694fc3a14610244578063d43eb23d14610264578063dc7e676c14610296578063e81a5c73146102c3576100f2565b8063703bafd5146101d857806370a08231146101fa5780637313ee5a1461021a5780637c3a00fd1461022f576100f2565b806320379ee5116100c657806320379ee5146101775780632d0335ab1461018c5780633408e470146101ac5780634e71d92d146101c1576100f2565b80628cc262146100f75780630c53c51c1461012d5780630f7e59701461014d57806318160ddd14610162575b600080fd5b34801561010357600080fd5b50610117610112366004611293565b6102d8565b6040516101249190611564565b60405180910390f35b61014061013b3660046112ae565b6104b9565b60405161012491906115af565b34801561015957600080fd5b50610140610653565b34801561016e57600080fd5b50610117610670565b34801561018357600080fd5b50610117610676565b34801561019857600080fd5b506101176101a7366004611293565b61067c565b3480156101b857600080fd5b50610117610697565b3480156101cd57600080fd5b506101d661069b565b005b3480156101e457600080fd5b506101ed610a1b565b60405161012491906115c2565b34801561020657600080fd5b50610117610215366004611293565b610a2a565b34801561022657600080fd5b50610117610a45565b34801561023b57600080fd5b50610117610a4b565b34801561025057600080fd5b506101d661025f3660046113c8565b610a51565b34801561027057600080fd5b5061028461027f36600461137e565b610c99565b604051610124969594939291906118e1565b3480156102a257600080fd5b506102b66102b1366004611293565b610cea565b60405161012491906114ec565b3480156102cf57600080fd5b50610117610d9b565b6001600160a01b03811660009081526008602090815260408083208054825181850281018501909352808352606093859084015b8282101561037a57838290600052602060002090600602016040518060c001604052908160008201548152602001600182015481526020016002820154815260200160038201548152602001600482015481526020016005820154815250508152602001906001019061030c565b5092935060009250829150505b82518110156104b15782818151811061039c57fe5b6020026020010151608001518382815181106103b457fe5b602002602001015160000151116103ca576104a9565b60008382815181106103d857fe5b60200260200101516040015142116103f05742610409565b8382815181106103fc57fe5b6020026020010151604001515b9050600061043785848151811061041c57fe5b60200260200101516060015183610e0990919063ffffffff16565b9050600061047760055461046b8489888151811061045157fe5b602002602001015160000151610da190919063ffffffff16565b9063ffffffff610e3116565b90506104a3610496606461046b60075485610da190919063ffffffff16565b869063ffffffff610de416565b94505050505b600101610387565b509392505050565b60606104c361120b565b50604080516060810182526001600160a01b038816600081815260036020908152908490205483528201529081018690526105018782878787610e63565b6105265760405162461bcd60e51b815260040161051d906117e8565b60405180910390fd5b6001600160a01b03871660009081526003602052604090205461055090600163ffffffff610de416565b6001600160a01b0388166000908152600360205260409081902091909155517f5845892132946850460bff5a0083f71031bc5bf9aadcd40f1de79423eac9b10b906105a090899033908a9061147a565b60405180910390a160006060306001600160a01b0316888a6040516020016105c9929190611428565b60408051601f19818403018152908290526105e39161140c565b6000604051808303816000865af19150503d8060008114610620576040519150601f19603f3d011682016040523d82523d6000602084013e610625565b606091505b5091509150816106475760405162461bcd60e51b815260040161051d906115d6565b98975050505050505050565b604051806040016040528060018152602001603160f81b81525081565b60095490565b60025490565b6001600160a01b031660009081526003602052604090205490565b4690565b600260005414156106be5760405162461bcd60e51b815260040161051d906118aa565b60026000908155338152600b602052604090205415610a145733600090815260086020526040812090805b82548110156109b2578281815481106106fe57fe5b90600052602060002090600602016004015483828154811061071c57fe5b90600052602060002090600602016000015411610738576109aa565b600083828154811061074657fe5b90600052602060002090600602016002015442116107645742610783565b83828154811061077057fe5b9060005260206000209060060201600201545b905060006107b785848154811061079657fe5b90600052602060002090600602016003015483610e0990919063ffffffff16565b905060006107ee60055461046b848988815481106107d157fe5b60009182526020909120600690910201549063ffffffff610da116565b90508584815481106107fc57fe5b9060005260206000209060060201600201548314156108625761085f86858154811061082457fe5b90600052602060002090600602016004015487868154811061084257fe5b60009182526020909120600690910201549063ffffffff610e0916565b90505b61087f610496606461046b60075485610da190919063ffffffff16565b94506108b18187868154811061089157fe5b906000526020600020906006020160040154610de490919063ffffffff16565b8685815481106108bd57fe5b90600052602060002090600602016004018190555061091b6108ef606461046b60075485610da190919063ffffffff16565b8786815481106108fb57fe5b906000526020600020906006020160050154610de490919063ffffffff16565b86858154811061092757fe5b600091825260209091206005600690920201015560095461094e908263ffffffff610e0916565b600955336000908152600b6020526040902054610971908263ffffffff610e0916565b336000908152600b60205260409020558554839087908690811061099157fe5b9060005260206000209060060201600301819055505050505b6001016106e9565b506004546109d0906001600160a01b0316338363ffffffff610f0916565b336001600160a01b03167fd8138f8a3f377c5259ca548e70e4c2de94f129f5a11036a15b69513cba2b426a82604051610a099190611564565b60405180910390a250505b6001600055565b6004546001600160a01b031681565b6001600160a01b03166000908152600b602052604090205490565b60055481565b60075481565b60026000541415610a745760405162461bcd60e51b815260040161051d906118aa565b600260005580610a965760405162461bcd60e51b815260040161051d9061160d565b600654600a54610aac908363ffffffff610de416565b1115610aca5760405162461bcd60e51b815260040161051d9061166c565b600954610add908263ffffffff610de416565b600955600a54610af3908263ffffffff610de416565b600a55610b2c81600b6000610b06610f64565b6001600160a01b031681526020810191909152604001600020549063ffffffff610de416565b600b6000610b38610f64565b6001600160a01b03168152602081019190915260400160002055610b77610b5d610f64565b6004546001600160a01b031690308463ffffffff610fc216565b600060086000610b85610f64565b6001600160a01b03166001600160a01b031681526020019081526020016000209050610baf611235565b6040518060c00160405280848152602001428152602001610bdb60055442610de490919063ffffffff16565b815242602080830191909152600060408084018290526060938401829052865460018181018955888452928490208651600690920201908155928501519183019190915583015160028201559082015160038201556080820151600482015560a08201516005909101559050610c4f610f64565b6001600160a01b03167f9e71bc8eea02a63969f509818f2dafb9254532904319f9dbda79b67bd34a5f3d84604051610c879190611564565b60405180910390a25050600160005550565b60086020528160005260406000208181548110610cb257fe5b600091825260209091206006909102018054600182015460028301546003840154600485015460059095015493965091945092909186565b6001600160a01b0381166000908152600860209081526040808320805482518185028101850190935280835260609492939192909184015b82821015610d9057838290600052602060002090600602016040518060c0016040529081600082015481526020016001820154815260200160028201548152602001600382015481526020016004820154815260200160058201548152505081526020019060010190610d22565b505050509050919050565b60065481565b600082610db057506000610dde565b82820282848281610dbd57fe5b0414610ddb5760405162461bcd60e51b815260040161051d906117a7565b90505b92915050565b600082820183811015610ddb5760405162461bcd60e51b815260040161051d90611635565b600082821115610e2b5760405162461bcd60e51b815260040161051d906116ae565b50900390565b6000808211610e525760405162461bcd60e51b815260040161051d9061172b565b818381610e5b57fe5b049392505050565b60006001600160a01b038616610e8b5760405162461bcd60e51b815260040161051d90611762565b6001610e9e610e9987610fe9565b611047565b83868660405160008152602001604052604051610ebe9493929190611591565b6020604051602081039080840390855afa158015610ee0573d6000803e3d6000fd5b505050602060405103516001600160a01b0316866001600160a01b031614905095945050505050565b610f5f8363a9059cbb60e01b8484604051602401610f289291906114d3565b60408051601f198184030181529190526020810180516001600160e01b03166001600160e01b031990931692909217909152611063565b505050565b600033301415610fbc5760606000368080601f0160208091040260200160405190810160405280939291908181526020018383808284376000920191909152505050503601516001600160a01b03169150610fbf9050565b50335b90565b610fe3846323b872dd60e01b858585604051602401610f28939291906114af565b50505050565b6000604051806080016040528060438152602001611936604391398051602091820120835184830151604080870151805190860120905161102a950161156d565b604051602081830303815290604052805190602001209050919050565b6000611051610676565b8260405160200161102a92919061145f565b60606110b8826040518060400160405280602081526020017f5361666545524332303a206c6f772d6c6576656c2063616c6c206661696c6564815250856001600160a01b03166110f29092919063ffffffff16565b805190915015610f5f57808060200190518101906110d691906113a8565b610f5f5760405162461bcd60e51b815260040161051d90611860565b6060611101848460008561110b565b90505b9392505050565b60608247101561112d5760405162461bcd60e51b815260040161051d906116e5565b611136856111cc565b6111525760405162461bcd60e51b815260040161051d90611829565b60006060866001600160a01b0316858760405161116f919061140c565b60006040518083038185875af1925050503d80600081146111ac576040519150601f19603f3d011682016040523d82523d6000602084013e6111b1565b606091505b50915091506111c18282866111d2565b979650505050505050565b3b151590565b606083156111e1575081611104565b8251156111f15782518084602001fd5b8160405162461bcd60e51b815260040161051d91906115af565b60405180606001604052806000815260200160006001600160a01b03168152602001606081525090565b6040518060c001604052806000815260200160008152602001600081526020016000815260200160008152602001600081525090565b80356001600160a01b0381168114610dde57600080fd5b803560ff81168114610dde57600080fd5b6000602082840312156112a4578081fd5b611104838361126b565b600080600080600060a086880312156112c5578081fd5b6112cf878761126b565b945060208087013567ffffffffffffffff808211156112ec578384fd5b8189018a601f8201126112fd578485fd5b803592508183111561130d578485fd5b604051601f8401601f191681018501838111828210171561132c578687fd5b60405283815281840185018c1015611342578586fd5b83858301868301379283019093018490525094505060408601359250606086013591506113728760808801611282565b90509295509295909350565b60008060408385031215611390578182fd5b61139a848461126b565b946020939093013593505050565b6000602082840312156113b9578081fd5b81518015158114610ddb578182fd5b6000602082840312156113d9578081fd5b5035919050565b600081518084526113f8816020860160208601611909565b601f01601f19169290920160200192915050565b6000825161141e818460208701611909565b9190910192915050565b6000835161143a818460208801611909565b60609390931b6bffffffffffffffffffffffff19169190920190815260140192915050565b61190160f01b81526002810192909252602282015260420190565b6001600160a01b038481168252831660208201526060604082018190526000906114a6908301846113e0565b95945050505050565b6001600160a01b039384168152919092166020820152604081019190915260600190565b6001600160a01b03929092168252602082015260400190565b602080825282518282018190526000919060409081850190868401855b828110156115575781518051855286810151878601528581015186860152606080820151908601526080808201519086015260a0908101519085015260c09093019290850190600101611509565b5091979650505050505050565b90815260200190565b93845260208401929092526001600160a01b03166040830152606082015260800190565b93845260ff9290921660208401526040830152606082015260800190565b60006020825261110460208301846113e0565b6001600160a01b0391909116815260200190565b6020808252601c908201527f46756e6374696f6e2063616c6c206e6f74207375636365737366756c00000000604082015260600190565b6020808252600e908201526d043616e6e6f74207374616b6520360941b604082015260600190565b6020808252601b908201527f536166654d6174683a206164646974696f6e206f766572666c6f770000000000604082015260600190565b60208082526022908201527f5661756c743a7374616b653a3a207661756c74206c696d697420657863656564604082015261195960f21b606082015260800190565b6020808252601e908201527f536166654d6174683a207375627472616374696f6e206f766572666c6f770000604082015260600190565b60208082526026908201527f416464726573733a20696e73756666696369656e742062616c616e636520666f6040820152651c8818d85b1b60d21b606082015260800190565b6020808252601a908201527f536166654d6174683a206469766973696f6e206279207a65726f000000000000604082015260600190565b60208082526025908201527f4e61746976654d6574615472616e73616374696f6e3a20494e56414c49445f5360408201526424a3a722a960d91b606082015260800190565b60208082526021908201527f536166654d6174683a206d756c7469706c69636174696f6e206f766572666c6f6040820152607760f81b606082015260800190565b60208082526021908201527f5369676e657220616e64207369676e617475726520646f206e6f74206d6174636040820152600d60fb1b606082015260800190565b6020808252601d908201527f416464726573733a2063616c6c20746f206e6f6e2d636f6e7472616374000000604082015260600190565b6020808252602a908201527f5361666545524332303a204552433230206f7065726174696f6e20646964206e6040820152691bdd081cdd58d8d9595960b21b606082015260800190565b6020808252601f908201527f5265656e7472616e637947756172643a207265656e7472616e742063616c6c00604082015260600190565b958652602086019490945260408501929092526060840152608083015260a082015260c00190565b60005b8381101561192457818101518382015260200161190c565b83811115610fe3575050600091015256fe4d6574615472616e73616374696f6e2875696e74323536206e6f6e63652c616464726573732066726f6d2c62797465732066756e6374696f6e5369676e617475726529a2646970667358221220a822ecd5d633a8063e2fc19583359589709c03a8b0eaf888de5e08c95cfc49dc64736f6c634300060b0033454950373132446f6d61696e28737472696e67206e616d652c737472696e672076657273696f6e2c6164647265737320766572696679696e67436f6e74726163742c627974657333322073616c7429"
}